:1000000004C1000023C1000021C100001FC1000085
:100010001DC100001BC1000019C1000017C1000074
:1000200015C1000013C1000011C100000FC1000084
:100030000DC100000BC1000009C1000007C1000094
:1000400005C1000003C1000001C10000FFC00000A5
:10005000FDC00000FBC00000F9C00000F7C00000B8
:10006000F5C000000C9468130C94AB13EFC00000B3
:10007000EDC00000EBC00000E9C00000E7C00000D8
:10008000E5C00000E3C00000E1C00000DFC00000E8
:10009000DDC00000DBC00000D9C00000D7C00000F8
:1000A000D5C00000D3C00000D1C00000CFC0000008
:1000B000CDC00000CBC00000C9C00000C7C0000018
:1000C000C5C00000C3C00000C1C00000BFC0000028
:1000D000BDC00000BBC00000B9C00000B7C0000038
:1000E000B5C00000B3C00000B1C00000AFC0000048
:1000F000ADC00000ABC00000A9C00000A7C0000058
:10010000A5C00000A3C00000A1C000009FC0000067
:100110009DC000009BC0000099C0000097C0000077
:1001200095C0000093C0000091C000008FC0000087
:100130008DC000008BC0000089C0000087C0000097
:1001400085C0000083C0000081C000007FC00000A7
:100150007DC000007BC0000079C0000077C00000B7
:1001600075C0000073C0000071C000006FC00000C7
:100170006DC000006BC0000069C0000067C00000D7
:1001800065C0000063C0000061C000005FC00000E7
:100190005DC000005BC0000059C0000057C00000F7
:1001A00055C0000053C0000051C000004FC0000007
:1001B0004DC000004BC0000049C0000047C0000017
:1001C00045C0000043C0000041C000003FC0000027
:1001D0003DC000003BC0000039C0000037C0000037
:1001E00035C0000033C0000031C000002FC0000047
:1001F0002DC000000C94EB100C94A611E00BE30B47
:10020000E60BE90BEC0BEF0BF20B11241FBECFEF4B
:10021000CDBFDFE5DEBF00E00CBF10E2A0E0B0E242
:10022000E4E5F8E200E00BBF02C007900D92AA3BA4
:10023000B107D9F723E2AAEBB0E201C01D92AC39B5
:10024000B207E1F70E949E120C942814D9CE82E0E6
:100250008093E607089582E08093E507089580E2A1
:1002600080936606089580E280936506089580E194
:1002700080936606089580E1809365060895089549
:100280000895009721F481E08093E6070895883E61
:10029000934019F481E08093E50708950F931F932D
:1002A000CF93DF93CDB7DEB72797CDBFDEBF8FEFFC
:1002B000809370008093710080937200809373002C
:1002C00080937400809375008093760064E081E4ED
:1002D00090E00E94D20A6CE170E082E00E94D80AAD
:1002E0008A836DE170E082E00E94D80A8983898167
:1002F0009A81019621F480E493E289839A8389812B
:100300009A818B839C83E0E6F0E082838C818383F7
:100310008FB78E83F8949E81E0E5F0E08081826063
:1003200080839FBF818181FFFDCF8FB78D83F8943C
:100330009D8100E510E0D80116968C911697897F73
:1003400016968C931697E0E6F0E080E885838BEBB9
:10035000868316968C911697846016968C9380816E
:10036000816080839FBF61E080E490E00E94D20AB8
:100370008FB78F83F8949F81F80180818E7F80836F
:100380009FBF2796CDBFDEBFDF91CF911F910F9109
:100390000895CF93DF931F92CDB7DEB79FB79983B0
:1003A000F8949981E82FF0E0E059FF4F6095808143
:1003B000682360839FBF0F90DF91CF910895CF9303
:1003C000DF931F92CDB7DEB79FB79983F8949981D9
:1003D000E82FF0E0E059FF4F8081682B60839FBFDA
:1003E0000F90DF91CF910895CF93DF931F921F92CB
:1003F000CDB7DEB7863011F060E001C068E18091D2
:10040000510081FD2AC08FB78A83F8949A81E0E574
:10041000F0E08081826080839FBF818181FFFDCF7A
:100420008FB78983F8949981A0E5B0E016968C91F6
:100430001697897F16968C931697E0E6F0E080E891
:1004400085838BEB868316968C911697846016961F
:100450008C938081816080839FBF636084E490E09F
:100460000E94D20A60E480E094DF0F900F90DF9149
:10047000CF910895CF93DF93FC01709620E030E098
:10048000C62FD0E0DE01022E02C0B595A7950A94D2
:10049000E2F7A0FD50832F5F3F4F319628303105A2
:1004A00089F740FF0AC041FF03C0FC01658302C019
:1004B000FC016683FC01618302C0FC016283DF9161
:1004C000CF9108958091D02181508093D0210895BB
:1004D00080E0089580E0089560EE71E280E00C9481
:1004E000DB1208951092D0211092DC211092DD21B0
:1004F000E2EDF1E281EA808380E28183128213825D
:100500001482158282E090E086839783108611869C
:10051000E0EEF1E280E895E2A0E0B0E08083918334
:10052000A283B3831482158288E08683BF0180E0B2
:100530000E94DB1280E00E94C912882329F090916A
:10054000D0219F5F9093D0210895FF920F931F9326
:10055000CF93DF931F92CDB7DEB78091BD2081117D
:100560009EC00E94B10E882351F00091BE201091D0
:10057000BF200E94BE0E0817190759F490C00091C1
:10058000BE201091BF200E94B90E0817190709F468
:1005900086C08FB78983F89419810091C020E02F1D
:1005A000F0E0EE0FFF1FEF53FF4D80819181892B0B
:1005B00009F58091BA209091BB2001968093BA20D2
:1005C0009093BB200E94B10E811107C08091BA2088
:1005D0009091BB208436910558F00E94B10E88237B
:1005E00049F08091BA209091BB208032934010F462
:1005F0001FBF55C01092BA201092BB208091BC2022
:10060000811106C081E0011180E08093C02004C008
:1006100081E0011180E0082F81E08093BD201FBFA1
:1006200010E0F801EE0FFF1FEF53FF4DFF24F3948E
:10063000808191818034910509F4F12CFF2091F0A3
:100640000E94B10E882339F00E94BE0E8093BE2016
:100650009093BF200BC00E94B90E8093BE20909350
:10066000BF2004C01092BE201092BF20F801EE0FF0
:10067000FF1FEF53FF4D20813181A80100245695C3
:1006800047950794569547950794542F402D4A5304
:100690005F4D06E513E06F2D81E80E94A20F0F90D9
:1006A000DF91CF911F910F91FF900895811115C097
:1006B0002091C02081E090E0222311F080E090E0C2
:1006C000880F991FFC01EF53FF4D10821182109289
:1006D000BC201092BD2080E038CF089580E035CF57
:1006E00008950F931F938091DE2181111FC02091E7
:1006F000DC213091DD218091DA219091DB212817D6
:100700003907A1F0862F2091DC213091DD21209343
:10071000DA213093DB2103EC13E02AE030E042EDF4
:1007200051E260E00E94A20F8093DE211F910F91A1
:100730000895CF93DF931F92CDB7DEB78FB789832C
:10074000F8942981662359F08091DC219091DD2174
:10075000482B592B4093DC215093DD210CC0809114
:10076000DC219091DD2140955095482359234093F9
:10077000DC215093DD212FBF62E880E0B2DF0F90D3
:10078000DF91CF9108951092DE218091DC2190912C
:10079000DD2183788093DC219093DD21E2EDF1E28D
:1007A00080859185837880879187642F80E099CFB9
:1007B00008958091CF2181508093CF218091CF21C6
:1007C0000E94CF121092CE21089580918C2388230D
:1007D000CCF480768032F1F580918D238132E1F581
:1007E00080919223909193230797C1F5ECE8F3E26F
:1007F00080EE91E28087918787E090E082879387FF
:1008000081E008958076803259F580918D23803281
:1008100019F08232B9F026C08091922390919323EF
:10082000079711F5ECE8F3E28CE692E08487958770
:1008300080EE91E28087918787E090E082879387BE
:1008400081E0089560918E23617080E00E94D31250
:1008500081E0089580E0089580E0089580E00895A3
:1008600080E0089580E0089580E0089540E150E040
:1008700061E080E05ECF089540E450E061E080E018
:1008800058CF0895CF93DF931F92CDB7DEB78FB7C0
:100890008983F89449812091472130914821E09142
:1008A0004921F0E0EE0FFF1FE65BFE4D8081918154
:1008B0004FBF821B930B0F90DF91CF910895E2DF22
:1008C00021E0892B09F420E0822F08950F931F93D4
:1008D000CF93DF931F92CDB7DEB78FB78983F8949C
:1008E00099812091492180914621811110C0609108
:1008F000472170914821022F10E0F801EE0FFF1FF1
:10090000E65BFE4D408151816417750718F49FBF67
:1009100080E028C0109247211092482181E02111E7
:1009200080E08093492181E0809346219FBF80E051
:10093000C6DF882319F080E00E946013A80100241C
:10094000569547950794569547950794542F402DF3
:10095000425B5E4D0AEE14E020E430E061E082E0AC
:100960000E94A20F0F90DF91CF911F910F910895D8
:100970001092CF211092BD201092BC201092C02066
:10098000E1ECF0E210821182128213821092BE20FA
:100990001092BF2080E0D9DD1092462110924921AB
:1009A000EAE4F1E21082118212821382109247214E
:1009B0001092482180E08ADF882359F09091CF215E
:1009C0009F5F9093CF219091CF21913011F490931C
:1009D000CE2108950F931F93811129C08091492141
:1009E000E1E08111E0E0842F61157105A9F4F0E0E8
:1009F0000024F695E7950794F695E7950794FE2F62
:100A0000E02DAF01425B5E4D0AEE14E020E430E0E1
:100A100061E00E94A20F0BC0F0E0EE0FFF1FE65B4B
:100A2000FE4D608371831092462180E04FDF1F915D
:100A30000F91089580E043CF0895EF92FF921F93A6
:100A4000CF93DF931F92CDB7DEB711E08091E621FF
:100A5000893009F010E040E050E08FB78983F894C6
:100A6000A98120914721309148218091492190E02E
:100A7000FC01EE0FFF1FE65BFE4D60817181AFBF91
:100A80002617370730F08091CE218111E6CF90E014
:100A900021C0FC010024F695E7950794F695E795AB
:100AA0000794FE2FE02DE20FF31FE25BFE4D8081E5
:100AB0007A01E82A2F5F3F4F209347213093482146
:100AC00080E004DF112321F05E2D442710E0C5CF24
:100AD0008E2D9F2D0F90DF91CF911F91FF90EF9062
:100AE000089580E0AACF0895CF92DF92EF92FF920F
:100AF0000F931F93CF93DF931F92CDB7DEB76B0198
:100B00007A018FB78983F894498160914721709168
:100B100048212091492130E0F901EE0FFF1FE65BEB
:100B2000FE4D808191814FBF6817790738F0809121
:100B3000CE218111E6CF8E2D9F2D35C0F901EE0F0C
:100B4000FF1FE65BFE4D80819181861B970B87011D
:100B50008E159F0508F48C0100243695279507947F
:100B6000369527950794322F202D620F731F625BF5
:100B70007E4DA801C6010E941F14809147219091CB
:100B80004821800F911F8093472190934821C00EE8
:100B9000D11EE01AF10A80E099DEE114F10409F0B7
:100BA000B0CF80E090E00F90DF91CF911F910F9137
:100BB000FF90EF90DF90CF900895AB01BC0180E0F3
:100BC00093CF0895CF93DF931F92CDB7DEB78FB742
:100BD0008983F89499818091C020E82FF0E0EE0F8E
:100BE000FF1FEF53FF4D208131812034310589F4FF
:100BF0004091BD2041110DC04091BC20411109C060
:100C000021E02093BC20811120E02093C02020E02F
:100C100030E09FBF80E490E0821B930B0F90DF9148
:100C2000CF910895CFDF21E0892B09F420E0822FB6
:100C3000089580E0F7CF0895FF920F931F93CF930D
:100C4000DF931F92CDB7DEB7F62E172F01E080910C
:100C5000E621893009F000E080E0E4DF811107C07F
:100C60008091CE218111F8CF80E090E02DC08FB728
:100C70008983F8942981E091C020F0E0DF01AA0F78
:100C8000BB1FAF53BF4D8D919C911197AC014F5F2E
:100C90005F4F4D935C930024F695E7950794F69586
:100CA000E7950794FE2FE02D8E0F9F1FFC01EA535E
:100CB000FF4DF0822FBF002329F0F12E110F110BF1
:100CC00000E0CACF81E090E00F90DF91CF911F91BB
:100CD0000F91FF900895BC0180E0AECF08955F9220
:100CE0006F927F928F929F92AF92BF92CF92DF923C
:100CF000EF92FF920F931F93CF93DF931F92CDB785
:100D0000DEB74B015A018091E621893011F4AA0C1B
:100D1000BB1C6894662466F8712C80E083DF811127
:100D200007C08091CE218111F8CF8A2D9B2D3AC02A
:100D30008FB78983F89459800091C02010E0F801A2
:100D4000EE0FFF1FEF53FF4DE080F180C3018E19BE
:100D50009F0965018A159B0508F46C01C8010024F0
:100D6000969587950794969587950794982F802D4B
:100D70008E0D9F1DA601B4018A539F4D0E941F1422
:100D8000000F111FF801EF53FF4DEC0CFD1CE0822A
:100D9000F1825FBE8C0C9D1CAC18BD0809F0BDCF64
:100DA00080E090E00F90DF91CF911F910F91FF9025
:100DB000EF90DF90CF90BF90AF909F908F907F90FB
:100DC0006F905F900895AB01BC0180E088CF0895DB
:100DD000E091EC21F091ED210190F081E02D228154
:100DE00033812E0F3F1FFC014081E40FF11DE217FC
:100DF000F307B8F481818430B9F0861309C005C0C7
:100E000081818430A1F0861303C08E2F9F2F089517
:100E10008081E80FF11DE217F30790F380E090E086
:100E2000089580E090E0089580E090E0089580E0EB
:100E300090E0089580918E238F7795C708959091C3
:100E4000EE21992381F1E091EC21F091ED210190C7
:100E5000F081E02D9481891740F5E093EA21F09329
:100E6000EB21228133812E0F3F1FE217F307F8F4A5
:100E70009181943061F49281981309C09381961303
:100E800006C0E093EA21F093EB2181E00895908180
:100E9000E90FF11DE217F30758F3E093EA21F0930D
:100EA000EB2180E0089580E0089580E0089580E0DF
:100EB0000895EF92FF921F93CF93DF93C82F60E0C6
:100EC000BEDF182F882381F1A091EC21B091ED2194
:100ED000EC2FF0E0EE0FFF1F12968D919C9113976F
:100EE000E80FF91FE080F180D7011696ED91FC9193
:100EF00017971995682F8C2FA2DF182F8823A1F040
:100F0000C091EA21D091EB2165E0CE0161DFEC01D7
:100F1000892B21F08A810E94B210F6CFD701129658
:100F2000ED91FC9113971995812FDF91CF911F912E
:100F3000FF90EF9008951F93CF93DF93182F7FDFDB
:100F4000882339F1C091EA21D091EB2165E0CE01EF
:100F50003FDFEC01892B41F04C815D816B818A81FF
:100F600017D78111F3CF15C0A091EC21B091ED21DD
:100F7000E12FF0E0EE0FFF1F12968D919C911397D9
:100F8000E80FF91F0190F081E02D0190F081E02D34
:100F90001995DF91CF911F91089560C60895CF9361
:100FA0008091EE218823C1F0E091EC21F091ED21B8
:100FB0000190F081E02D8481882371F0C0E08C2FB6
:100FC00078DFCF5FE091EC21F091ED210190F0818D
:100FD000E02D8481C81798F31092EE2181E090E013
:100FE0008093F2219093F321CF910895CF93809134
:100FF000EE21882349F1A091EC21B091ED21ED91F2
:10100000FC91119784818823F9F0C0E0EC2FF0E087
:10101000EE0FFF1F12968D919C911397E80FF91F09
:101020000190F081E02D0084F185E02D309709F0EA
:101030001995CF5FA091EC21B091ED21ED91FC913C
:1010400011978481C81710F3CF9108950F931F93C0
:10105000CF93DF93ECE8F3E21286138614861586AD
:1010600016861786808188230CF05AC2209192231D
:10107000309193232115310509F057C24DC28F716C
:1010800009F0A3C090918D23963079F0983009F43F
:1010900092C091119AC02230310509F0C6C162E0B8
:1010A00070E082EF91E26DD645C280918E239091DF
:1010B0008F23292F332722303105A9F024F4213042
:1010C000310541F0A9C123303105D9F12F30310567
:1010D00051F1A2C18091142090911520DC016C91F6
:1010E00070E04FD659C0E0911420F091152021896D
:1010F000821708F09AC19927880F991F880F991FA6
:10110000E0911620F0911720E80FF91F808191815E
:10111000FC016281738135D6E0919423F09195238F
:1011200082E0818339C08091182090911920009726
:1011300009F47BC1DC0112966D917C91139721D645
:101140002BC099278130910571F038F0029709F092
:101150006CC188E990E22FE009C064E070E082EBA6
:1011600090E20FD619C088EA90E229E0382FAAE76A
:10117000B0E2E82FF92F819190E08D939D938E2F0F
:10118000831B8217C0F3622F660F6E5F6093782017
:1011900070E088E790E2F5D5ECE8F3E2868197818C
:1011A000228533858217930708F0C4C18093962364
:1011B00090939723BFC12130310509F036C161E01A
:1011C00070E08EEE91E2DDD5B5C18130E1F5909110
:1011D0008D239A30C1F52130310509F026C1809167
:1011E000EE21882309F421C1C0919023D09191234D
:1011F0000091EC211091ED21D801ED91FC918481B9
:10120000C81708F012C160E08C2F19DE882309F49A
:101210000CC1CE019927880F991FD8011296ED9124
:10122000FC911397E80FF91F0190F081E02D868162
:101230009781FC0119958093F02161E070E080EFC7
:1012400091E29FD577C1823009F0EFC080918D2364
:101250008111E4C02230310509F0E7C0809190236C
:101260001FD690E08093E8219093E92162E070E03E
:1012700088EE91E286D55EC18F7109F083C09091AE
:101280008D23933009F4CCC018F49130A1F07AC0CA
:10129000953019F0993039F175C080919223909171
:1012A0009323892B09F0C1C08AE197E080939823AA
:1012B000909399233FC18091922390919323892BFE
:1012C00009F0B3C080918E2390918F23019709F08C
:1012D000ACC08091F2219091F3218D7F8093F22117
:1012E0009093F32127C18091922390919323892B8E
:1012F00009F09BC03BD5882309F497C020918E2329
:1013000030918F233327E0911420F09115208189AB
:1013100090E08217930708F488C041DE80918E2305
:1013200090918F238093EE21882309F403C199279C
:101330008150904C880F991F880F991FE0911620BB
:10134000F0911720E80FF91FE093EC21F093ED21C5
:101350000190F081E02D8481882309F4EBC0C0E086
:1013600060E08C2FE8DD882309F45FC0CF5FE09157
:10137000EC21F091ED210190F081E02D8481C817DE
:1013800078F3D8C08130E1F490918D239B30C1F483
:101390008091922390919323892B09F046C08091EC
:1013A000EE21882309F441C0ECE8F3E2C481D28144
:1013B0008C2F7FDD8823C9F16D2F8C2FBCDD33C0CE
:1013C000823099F580918D23813019F0833089F036
:1013D00029C08091922390919323892B31F580919C
:1013E0008E2390918F23892B01F58091902373D5C3
:1013F0001AC08091922390919323892BB1F480910C
:101400008E2390918F23892B81F4CCE8D3E28C81B9
:1014100060D68C81C3D607C080E005C080E003C0E1
:1014200080E001C080E0811186C080918C238F71A3
:10143000813071F58091EE21882351F10091902344
:1014400010919123C091EC21D091ED21E881F98197
:1014500084810817E8F460E0802FF1DC8823C1F074
:10146000F801FF27CF01880F991FEA81FB81E80F60
:10147000F91FC081D181EE81FF811995682F802FDE
:10148000DEDC882329F0EC81FD811995811153C0A0
:1014900080918C238F71823009F040C08091EE21C1
:1014A0008823B1F1A091EC21B091ED21ED91FC9157
:1014B00011978481882371F1C0E0EC2FF0E0EE0FEA
:1014C000FF1F12968D919C911397E80FF91F0081D1
:1014D0001181D8011696ED91FC9117971995682FF7
:1014E0008C2FADDC882339F1D8011496ED91FC9155
:1014F0001597199581111FC0CF5FA091EC21B09174
:10150000ED21ED91FC9111979481C917B0F213C0B0
:1015100080E011C080E00FC080E00DC080E00BC013
:10152000982F907609F081CFA7CE982F907609F06A
:101530007CCFA5CD81E0DF91CF911F910F910895D0
:1015400043E050E061E080EE97E00E943A0243E021
:1015500050E062E080EE97E00E943A0243E050E003
:1015600060E180E696E00E943A0241E050E460E2E9
:1015700080E696E00E943A0240E05BE160E280E8AB
:1015800096E00E943A0240E05BE162E080EA96E089
:101590000E943A0240E05BE164E080EA96E00C944D
:1015A0003A0208951BBEFC0128ED24BF6083089514
:1015B0004091CA01E62FF72F8093CA01849140938E
:1015C000CA010895CF93DF931F921F92CDB7DEB764
:1015D000811126C0909120239923F9F090918723BF
:1015E000911101C0FFCF9FB79A83F8942A81E6E852
:1015F000F3E29181915091832FBF0FC09091872387
:101600009F3F09F4FFCF9FB79983F8942981E6E8BB
:10161000F3E291819F5F91832FBF8093202305C0C8
:1016200090912023992351F3F8CF0F900F90DF91E1
:10163000CF9108950F93E8ECF4E080818F7D808353
:1016400080818F7D8083E4EFF2E202E005931092C7
:10165000F6221092F72200E2069300E40693ECEEE5
:10166000F2E200E40693ECE8F3E2148615861686AF
:101670001786128613861092DD220F9108950F931C
:1016800085E08093DD22E5EFF2E204E00593EDEEE4
:10169000F2E204E005930F9108950F9383E08093A5
:1016A000DD221092F6221092F722E4EFF2E202E03D
:1016B00006930F910895E0919823F0919923309724
:1016C00009F0199508950F93CF93DF938091DD2250
:1016D000833019F4F0DFAEDF5EC08091D9229091A3
:1016E000DA22C0919623D0919723C81BD90B71F5AC
:1016F0002091DB223091DC22820F931F8093DB222A
:101700009093DC22209192233091932382179307A8
:1017100021F08091F421882341F084E08093DD2240
:10172000ECEEF2E202E0069336C0E0919A23F091EB
:101730009B23309799F01995882381F01092D92234
:101740001092DA22C0919623D0919723C034D1050C
:1017500028F01092F421C0E4D0E003C081E080932F
:10176000F421E0EEF2E2C68BD78B8091D9229091E2
:10177000DA222091942330919523280F391F208F4E
:10178000318FC80FD91FC093D922D093DA22E4EF4A
:10179000F2E202E00693DF91CF910F910895FC01F0
:1017A0008181E82FE7708E2F90E0FC013197E730C0
:1017B000F105D8F48827E250FF4F8F4F0C9417148F
:1017C00080E190E0089580E290E0089580E490E068
:1017D000089580E890E0089580E091E0089580E029
:1017E00092E008958FEF93E0089588E090E00895E7
:1017F000282F2F7030E0220F331F082E000C990B7A
:101800008827990F881F9927820F931F02979C01A1
:10181000220F331F220F331F220F331F820F931FFC
:101820008B589D4D08950F93CF938091CC0480FFEA
:1018300064C081E08093CC04ECEEF2E200E8069311
:10184000E4EFF2E200E806938093CA04ECEEF2E2E1
:1018500000E106938091DD22882329F083508230B5
:1018600008F429DFE7DE8091EE229091EF220897BD
:1018700009F045C088E0E9E9F2E2ACE8B3E20190A2
:101880000D928A95E1F7E8ECF4E080818062808334
:10189000808180628083DADBC82F811103C0EFDE94
:1018A000C1E02EC080918C2388236CF41092DB223F
:1018B0001092DC221092D9221092DA2282E08093D8
:1018C000DD2201DF1DC08091922390919323892B0B
:1018D00011F4E3DE15C01092DB221092DC2210928C
:1018E000D9221092DA2281E08093DD22ECEEF2E23E
:1018F00002E0069300E2069303C0C0E001C0C1E02D
:101900008C2FCF910F9108958F929F92AF92BF929B
:10191000DF92EF92FF920F931F93CF93DF93D82E16
:1019200067DF8C01BD2CBB1CBB24BB1CCD2DCF7035
:10193000D0E0CC0FDD1FCB0DD11DCE01880F991F3C
:10194000880F991F880F991F9C0124513D4D7901E3
:10195000C90125DF4C01BB2009F479C0FE01EE0F5F
:10196000FF1FEE0FFF1FEE0FFF1FE052FD4D2289FC
:101970003389D80115968D919C911697820F931FEC
:1019800015968D939C93169713962D913C911497D1
:101990008217930709F445C0281B390B2115B4E0C1
:1019A0003B0738F02FEF33E0C901B4010AD7281BF9
:1019B000390BF801808181FF09C0C901B40101D749
:1019C00041E0892B09F040E0842F01C080E0D8017C
:1019D0009C9180FB91F99C93FE01EE0FFF1FEE0F8F
:1019E000FF1FEE0FFF1FE052FD4D128A138A26875C
:1019F000378711962D913C91129715968D919C9158
:101A00001697820F931FCC0FDD1FCC0FDD1FCC0F5D
:101A1000DD1FC051DD4D88839983F70102E00693F5
:101A2000E4C0D8018C9181FFCDC08D7F8C93CC0F09
:101A3000DD1FCC0FDD1FCC0FDD1FC052DD4D1A8A1C
:101A40001B8A1E861F86F70102E00693CEC0FE01A8
:101A5000EE0FFF1FEE0FFF1FEE0FFF1FE052FD4DB9
:101A6000A684B784D8018C9182FF19C01196ED919C
:101A7000FC91129715962D913C91169713968D9186
:101A80009C911497B4019DD6B0E4DB9EB001112463
:101A90006B547E4DAC01CF01820F931FD0D6F8015D
:101AA000258136812A0D3B1D2583368383819481D0
:101AB0008217930768F485839683CC0FDD1FCC0FC4
:101AC000DD1FCC0FDD1FC052DD4D8A899B897AC096
:101AD000FE01EE0FFF1FEE0FFF1FEE0FFF1FE05284
:101AE000FD4D428953894A155B0509F06BC02817E3
:101AF000390709F467C0AC01421B530B9A01211549
:101B000054E0350750F02FEF33E0C901B40159D646
:101B1000D901A81BB90BCD0107C0C901B40151D629
:101B2000F901E81BF90BCF01FE01EE0FFF1FEE0FCD
:101B3000FF1FEE0FFF1FE052FD4D1686178688151A
:101B4000990500F5D8018C9184608C93B0E4DB9EFC
:101B5000C00111248B549E4DFE01EE0FFF1FEE0FAE
:101B6000FF1FEE0FFF1FE051FD4D80839183CC0FCF
:101B7000DD1FCC0FDD1FCC0FDD1FC052DD4D8A8A6B
:101B80009B8A1CC0F8014181528125813681240F36
:101B9000351FFE01EE0FFF1FEE0FFF1FEE0FFF1FA1
:101BA000E051FD4D20833183CC0FDD1FCC0FDD1FB5
:101BB000CC0FDD1FC052DD4D8A8B9B8BF70102E0FD
:101BC000069313C0D8018C9180FF0FC08E7F8C9339
:101BD0001796ED91FC911897309739F015966D9105
:101BE0007C9116974D2D80E01995DF91CF911F9133
:101BF0000F91FF90EF90DF90BF90AF909F908F90EC
:101C000008951F93CF93DF931F92CDB7DEB78FB7A1
:101C10008983F894198181E0D5DCEAECF4E080E472
:101C2000808380E28083E1ECF4E0808181608083C6
:101C3000A9ECB4E08C9182608C93E8ECF4E08081B4
:101C4000806480838C9181608C93808180688083A4
:101C50001FBF0F90DF91CF911F9108950F931F9396
:101C6000CF93DF931F921F92CDB7DEB700E610E04F
:101C7000F801108280E30E94F401E0ECF4E080813E
:101C80008064808381E0F80180838FB78A83F89431
:101C90001A81E0EEF2E21586158A158E15A215A6B8
:101CA00015AAE5E7F2E280818E7F8083EEE7F2E21B
:101CB00080818E7F8083E7E8F2E280818E7F80835F
:101CC000E0E9F2E280818E7F80836AE170E082E069
:101CD0006FDC8F3F19F08093FA0403C08FE180938B
:101CE000FA046BE170E082E063DC8F3F19F08093CF
:101CF000FB0403C08FE18093FB04E0ECF4E08081FF
:101D0000826080838081806880838081806180831D
:101D10008CEE92E2868397838081806280838FEF4E
:101D20008093C504E8ECF4E08081816080831092A8
:101D3000202380918B238F3F09F4FFCF8FB78983B6
:101D4000F8949981E6E8F3E285818F5F85839FBFF0
:101D500058DF1FBF0F900F90DF91CF911F910F9110
:101D6000089580E008958093C30408958091C3048A
:101D7000089580911C2390911D23089580E090E0A8
:101D80000895ECE8F3E2808791876287738708956E
:101D9000282F2F7030E0220F331F082E000C990BD4
:101DA0008827990F881F9927820F931FFC01EE0F38
:101DB000FF1FEE0FFF1FEE0FFF1FE052FD4D2585A9
:101DC000207C09F069C06370613011F018F404C020
:101DD00020EC03C020E801C020E440385105E9F0C0
:101DE00050F440325105A9F040345105A1F0403182
:101DF0005105D9F40CC0411532E0530791F04F3F23
:101E000033E0530781F04115514079F408C041E0B7
:101E10000DC042E00BC043E009C044E007C045E00C
:101E200005C046E003C047E001C040E0FC01EE0F02
:101E3000FF1FEE0FFF1FEE0FFF1FE052FD4D158637
:101E400036E03487242B2587FC01EE0FFF1FEE0FB1
:101E5000FF1FEE0FFF1FE052FD4D2585207C203C2B
:101E600069F4FC01EE0FFF1FEE0FFF1FEE0FFF1FC7
:101E7000E052FD4D25852770273081F0880F991F8E
:101E8000880F991F880F991FFC01E052FD4D858531
:101E90008062858781E0089580E0089581E008955B
:101EA000E82FEF70F0E0EE0FFF1F082E000C990BEB
:101EB0008827990F881F9927E80FF91FEE0FFF1F3A
:101EC000EE0FFF1FEE0FFF1FE052FD4D858582FBD9
:101ED000882780F908950F93282F2F7030E0A901EB
:101EE000440F551F282F082E000C330B2227330FC9
:101EF000221F3327240F351FA901440F551F440FFC
:101F0000551F440F551FFA01E451FD4D01E00693A2
:101F1000FA01E052FD4D958592FF11C0FA01E052A1
:101F2000FD4D95859B7F958763DCFC01808180FF5B
:101F300006C08E7F80830780F085E02D199581E0B3
:101F40000F9108955F926F927F928F929F92AF92BE
:101F5000BF92CF92DF92EF92FF920F931F93CF9396
:101F6000DF931F92CDB7DEB7782E662E4A01590156
:101F70003FDC6C01572C551C5524551C872D8F7048
:101F8000E82EF12CEE0CFF1CE50CF11CF701EE0F16
:101F9000FF1FEE0FFF1FEE0FFF1FE052FD4D858567
:101FA000807C09F481C0F701EE0FFF1FEE0FFF1FC9
:101FB000EE0FFF1FE052FD4D8585807C803C61F077
:101FC000F701EE0FFF1FEE0FFF1FEE0FFF1FE05296
:101FD000FD4D858582FD6AC08FB78983F89489811C
:101FE000F601908190FF03C08FBF512C60C0F601B5
:101FF0009081916090838FBF81829282A382B4820C
:102000001582168207831087611006C091E0A11423
:10201000B10419F090E001C091E0F601808190FBDD
:1020200081F98B7F8083552061F0F701EE0FFF1F50
:10203000EE0FFF1FEE0FFF1FE052FD4D128A138AB5
:102040002EC0F701EE0FFF1FEE0FFF1FEE0FFF1F59
:10205000E052FD4D8585807C803CA1F4C701880F4E
:10206000991F880F991F880F991F84519D4D97DBE9
:10207000BC01C501A6D3892B29F0F60180818E7F92
:10208000808315C0F701EE0FFF1FEE0FFF1FEE0F4D
:10209000FF1FE052FD4D16861786128A138A872D80
:1020A00033DC5524539403C0512C01C0512C852D91
:1020B0000F90DF91CF911F910F91FF90EF90DF90E4
:1020C000CF90BF90AF909F908F907F906F905F90D8
:1020D0000895FF920F931F93CF93DF93182FF82E3D
:1020E000FF1CFF24FF1CC82FCF70D0E0CC0FDD1FDA
:1020F000CF0DD11D7DDBDC01FE01EE0FFF1FEE0FCA
:10210000FF1FEE0FFF1FE451FD4D02E005938C9180
:1021100080FF22C08E7F8C931796ED91FC911897CB
:102120003097D1F0FF2059F0CC0FDD1FCC0FDD1F11
:10213000CC0FDD1FC052DD4D6A897B890AC0CC0FF0
:10214000DD1FCC0FDD1FCC0FDD1FC052DD4D6E85B6
:102150007F85412F81E01995DF91CF911F910F91DC
:10216000FF900895CF93C82FB4DFEC2FEF70F0E00D
:10217000EE0FFF1F8C2FCC0F990B8827990F881F0C
:102180009927E80FF91FEE0FFF1FEE0FFF1FEE0F4D
:10219000FF1FE052FD4D1586CF910895E82FEF7097
:1021A000F0E0EE0FFF1F282F082E000C330B222724
:1021B000330F221F3327E20FF31FEE0FFF1FEE0F27
:1021C000FF1FEE0FFF1FE052FD4D95859460958730
:1021D00080DF81E008951F920F920FB60F921124B5
:1021E0000BB60F920F932F933F934F935F936F9381
:1021F0007F938F939F93AF93BF93EF93FF938091C0
:10220000CB0488233CF480E88093CA040E94F6073C
:10221000B8D188C08091CB0482FF20C084E0809335
:10222000CA048091F42286FF7DC08091CC0481FD98
:1022300079C0F9DA811176C08091DD22813011F404
:102240002CDA70C0843009F06DC0E5EFF2E204E0F2
:102250000593EDEEF2E204E0059364C08091CB04B7
:1022600081FF5BC082E08093CA048091EC2286FFEC
:1022700059C08091CC0481FD55C0D5DA811152C07E
:102280008091DD22823041F484E08093DD22ECEE07
:10229000F2E202E0069346C0833009F043C0E5EF66
:1022A000F2E204E00593EDEEF2E204E005933AC0B9
:1022B00080E18093CA0481E00CDF81E80ADF82E0DC
:1022C00008DF82E806DF0E94CF071092C304E0EE29
:1022D000F2E2158696E0948783E48587158A948BCD
:1022E000858B89E992E2808B918BA4D91BC0809168
:1022F000CB0486FF07C080E48093CA0480E062D9E3
:102300003ED110C08091CB0485FF0CC080E2809349
:10231000CA0481E057D934D105C08091CB0484FD33
:10232000C7CFE5CFFF91EF91BF91AF919F918F9173
:102330007F916F915F914F913F912F910F910F90EE
:102340000BBE0F900FBE0F901F9018951F920F920B
:102350000FB60F9211240BB60F920F931F932F936A
:102360003F934F935F936F937F938F939F93AF931D
:10237000BF93CF93DF93EF93FF938091CC0481FDC4
:1023800003C051DA8111C3C082E08093CC048091F4
:10239000C5048195880FECEEF2E2E81BF10920817B
:1023A00031812C5E324236952795369527953695A4
:1023B0002795822F869520FD02C090E001C090E80D
:1023C000890FE82FEF70F0E0EE0FFF1F282F082E87
:1023D000000C330B2227330F221F3327E20FF31F8A
:1023E000DF01AA0FBB1FAA0FBB1FAA0FBB1FA05262
:1023F000BD4D1C969C9195FF8AC0EE0FFF1FEE0FFE
:10240000FF1FEE0FFF1FE451FD4D00E20693811107
:1024100079C08091DD22843019F44DD90BD977C071
:102420000091EE221091EF228091962390919723B4
:10243000C091D922D091DA229E01200F311F82173C
:10244000930718F48C010C1B1D0B80919423909121
:102450009523A80169E972E28C0F9D1FF0D1C00F8E
:10246000D11FC093D922D093DA220034110569F428
:102470008091DB229091DC228C0F9D1F2091922372
:10248000309193238217930780F0ECE8F3E2C28740
:10249000D3870684F785E02D309729F019958111AF
:1024A00002C0EDD834C0F9D832C080919623909103
:1024B0009723C817D907F9F4E0919A23F0919B2349
:1024C000309711F4DCD823C01995811102C0D7D8F8
:1024D0001EC02091DB223091DC228091D922909184
:1024E000DA22820F931F8093DB229093DC221092DA
:1024F000D9221092DA22ECEEF2E202E0069300E238
:10250000069305C0803811F4DED801C0FDD9FF91D3
:10251000EF91DF91CF91BF91AF919F918F917F917B
:102520006F915F914F913F912F911F910F910F905C
:102530000BBE0F900FBE0F901F9018950E944E017A
:1025400087E08093A20078940E94A00A0E94CD07A1
:102550000E941A058823E1F364E670E081E293E2C9
:102560000E94DD050E9419068823E1F362E070E015
:102570008091B6209091B7200E94E306E9CF08959C
:10258000089580918523882319F0F3DB0C94410191
:10259000089591E09093852379D081E00895109279
:1025A000852385C00895662319F00C9427010895AA
:1025B0000C942B010895FF920F931F93CF93DF93F9
:1025C0008B01FB018481823021F46894FF24F3F8AD
:1025D00001C0F12CF8018581813031F0823039F46D
:1025E000FF2DF062FF2E03C08F2D8063F82EF801BF
:1025F0008681863049F018F48530A9F00DC0873007
:1026000039F0893069F008C0FF2DF160FF2E0BC052
:102610008F2D8260F82E07C0EF2DE360FE2E03C0E1
:10262000FF2DF760FF2E60E183E00E94C901C0EA40
:10263000D8E0FD82F80180819181A281B381880F69
:10264000991FAA1FBB1F880F991FAA1FBB1F9C01A0
:10265000AD01220F331F441F551F60E07CE68CED57
:1026600092E0C3D0DA01C9010196A11DB11DB69552
:10267000A795979587959C01215031092E833F831B
:10268000DF91CF911F910F91FF90089560E183E05A
:102690000E94C901E0E4F6E088E0818384E082835F
:1026A000E0EAF8E08CE1848380E38383089560E1CD
:1026B00083E00E94DF01E0EAF8E0138214820895CB
:1026C0008091A308882319F083E38093A3080895D9
:1026D0001F920F920FB60F9211240BB60F922F93E9
:1026E0003F934F935F936F937F938F939F93AF939A
:1026F000BF93CF93EF93FF930E9437018091A1087E
:10270000887121F00E9436040E943F01C091A00808
:102710000E941906811105C00E943C040E944001DC
:1027200004C08C2F90E00E946B060E943B01FF9139
:10273000EF91CF91BF91AF919F918F917F916F91C9
:102740005F914F913F912F910F900BBE0F900FBE55
:102750000F901F9018951F920F920FB60F92112491
:102760000BB60F922F933F934F935F936F937F938B
:102770008F939F93AF93BF93EF93FF930E941A059C
:10278000882339F00E942F010E9471058093A008D0
:1027900005C080E38093A3080E943301FF91EF916D
:1027A000BF91AF919F918F917F916F915F914F9169
:1027B0003F912F910F900BBE0F900FBE0F901F9067
:1027C0001895AA1BBB1B51E107C0AA1FBB1FA61768
:1027D000B70710F0A61BB70B881F991F5A95A9F7CA
:1027E00080959095BC01CD010895A1E21A2EAA1BF7
:1027F000BB1BFD010DC0AA1FBB1FEE1FFF1FA217B1
:10280000B307E407F50720F0A21BB30BE40BF50BAD
:10281000661F771F881F991F1A9469F76095709536
:10282000809590959B01AC01BD01CF010895EE0FFD
:10283000FF1F881F8BBF0790F691E02D1994FB01B5
:10284000DC0102C001900D9241505040D8F708952C
:04285000F894FFCF2A
:10285400B804D90368026A026E0372026202E503D5
:102864006A02000066201A20000022201E200A208E
:10287400002009024300020100C0320904000001E3
:1028840002020100052400100104240202052406AA
:102894000001052401030107058203400010090417
:1028A4000100020A0000000705810240000007053C
:1028B4000202400000001201000202000040EB038B
:1028C40004240001010200010003000000000000D4
:1028D40000000000000000000000000000000000F4
:1028E4000000000000000000434443205669727455
:1028F40075616C20436F6D0041544D454C2041532C
:0A290400460004030904B820000097
:00000001FF
