:1000000004C1000023C1000021C100001FC1000085
:100010001DC100001BC1000019C1000017C1000074
:1000200015C1000013C1000011C100000FC1000084
:100030000DC100000BC1000009C1000007C1000094
:1000400005C1000003C1000001C10000FFC00000A5
:10005000FDC00000FBC00000F9C00000F7C00000B8
:10006000F5C000000C9490130C94D313EFC0000063
:10007000EDC00000EBC00000E9C00000E7C00000D8
:10008000E5C00000E3C00000E1C00000DFC00000E8
:10009000DDC00000DBC00000D9C00000D7C00000F8
:1000A000D5C00000D3C00000D1C00000CFC0000008
:1000B000CDC00000CBC00000C9C00000C7C0000018
:1000C000C5C00000C3C00000C1C00000BFC0000028
:1000D000BDC00000BBC00000B9C00000B7C0000038
:1000E000B5C00000B3C00000B1C00000AFC0000048
:1000F000ADC00000ABC00000A9C00000A7C0000058
:10010000A5C00000A3C00000A1C000009FC0000067
:100110009DC000009BC0000099C0000097C0000077
:1001200095C0000093C0000091C000008FC0000087
:100130008DC000008BC0000089C0000087C0000097
:1001400085C0000083C0000081C000007FC00000A7
:100150007DC000007BC0000079C0000077C00000B7
:1001600075C0000073C0000071C000006FC00000C7
:100170006DC000006BC0000069C0000067C00000D7
:1001800065C0000063C0000061C000005FC00000E7
:100190005DC000005BC0000059C0000057C00000F7
:1001A00055C0000053C0000051C000004FC0000007
:1001B0004DC000004BC0000049C0000047C0000017
:1001C00045C0000043C0000041C000003FC0000027
:1001D0003DC000003BC0000039C0000037C0000037
:1001E00035C0000033C0000031C000002FC0000047
:1001F0002DC000000C9409110C94C411FE0B010CCD
:10020000040C070C0A0C0D0C100C11241FBECFEFB0
:10021000CDBFDFE5DEBF00E00CBF10E2A0E0B0E242
:10022000E4EAF8E200E00BBF02C007900D92AC3C9C
:10023000B107D9F723E2ACECB0E201C01D92A834BB
:10024000B207E1F70E94BC120C945014D9CEE0EE34
:10025000F7E081E0868382E08583E0E6F6E080E1F6
:10026000858380E285830895E0EEF7E081E0858371
:1002700082E08583E0E6F6E080E1858380E28583A5
:10028000089581E08093E607089582E08093E60771
:10029000089582E08093E507089580E280936606E2
:1002A000089580E280936506089580E18093660654
:1002B000089580E180936506089508950895009754
:1002C00021F481E08093E6070895883E934019F475
:1002D00081E08093E50708950F931F93CF93DF93F9
:1002E000CDB7DEB72797CDBFDEBF8FEF809370000D
:1002F00080937100809372008093730080937400E8
:10030000809375008093760064E081E490E00E9421
:10031000F00A6CE170E082E00E94F60A8A836DE1E7
:1003200070E082E00E94F60A898389819A810196B1
:1003300021F480E493E289839A8389819A818B8373
:100340009C83E0E6F0E082838C8183838FB78E8389
:10035000F8949E81E0E5F0E08081826080839FBF19
:10036000818181FFFDCF8FB78D83F8949D8100E55A
:1003700010E0D80116968C911697897F16968C936B
:100380001697E0E6F0E080E885838BEB868316968F
:100390008C911697846016968C93808181608083FF
:1003A0009FBF61E080E490E00E94F00A8FB78F83E6
:1003B000F8949F81F80180818E7F80839FBF27966C
:1003C000CDBFDEBFDF91CF911F910F910895CF93E5
:1003D000DF931F92CDB7DEB79FB79983F8949981C9
:1003E000E82FF0E0E059FF4F60958081682360833B
:1003F0009FBF0F90DF91CF910895CF93DF931F920E
:10040000CDB7DEB79FB79983F8949981E82FF0E0D4
:10041000E059FF4F8081682B60839FBF0F90DF9171
:10042000CF910895CF93DF931F921F92CDB7DEB780
:10043000863011F060E001C068E18091510081FDDB
:100440002AC08FB78A83F8949A81E0E5F0E0808132
:10045000826080839FBF818181FFFDCF8FB78983B9
:10046000F8949981A0E5B0E016968C911697897F53
:1004700016968C931697E0E6F0E080E885838BEB88
:10048000868316968C911697846016968C9380813D
:10049000816080839FBF636084E490E00E94F00AE3
:1004A00060E480E094DF0F900F90DF91CF9108958A
:1004B000CF93DF93FC01709620E030E0C62FD0E0B0
:1004C000DE01022E02C0B595A7950A94E2F7A0FDC1
:1004D00050832F5F3F4F31962830310589F740FF19
:1004E0000AC041FF03C0FC01658302C0FC016683B2
:1004F000FC01618302C0FC016283DF91CF9108950A
:100500008091E22181508093E221089580E0089556
:1005100080E0089562EF71E280E00C940313089587
:100520001092E2211092EE211092EF21E4EEF1E21E
:1005300081EA808380E28183128213821482158291
:1005400082E090E08683978310861186E2EFF1E2E5
:1005500080E895E2A0E0B0E080839183A283B3833A
:100560001482158288E08683BF0180E00E94031315
:1005700080E00E94F112882329F09091E2219F5F90
:100580009093E2210895FF920F931F93CF93DF93EF
:100590001F92CDB7DEB78091CF2081119EC00E94FF
:1005A000CF0E882351F00091D0201091D1200E94CD
:1005B000DC0E0817190759F490C00091D020109153
:1005C000D1200E94D70E0817190709F486C08FB7EB
:1005D0008983F89419810091D220E02FF0E0EE0F8A
:1005E000FF1FED52FF4D80819181892B09F580918C
:1005F000CC209091CD2001968093CC209093CD205B
:100600000E94CF0E811107C08091CC209091CD2007
:100610008436910558F00E94CF0E882349F08091CE
:10062000CC209091CD208032934010F41FBF55C054
:100630001092CC201092CD208091CE20811106C046
:1006400081E0011180E08093D22004C081E001119B
:1006500080E0082F81E08093CF201FBF10E0F801D9
:10066000EE0FFF1FED52FF4DFF24F3948081918127
:100670008034910509F4F12CFF2091F00E94CF0EF7
:10068000882339F00E94DC0E8093D0209093D120F3
:100690000BC00E94D70E8093D0209093D12004C02D
:1006A0001092D0201092D120F801EE0FFF1FED52D2
:1006B000FF4D20813181A80100245695479507946C
:1006C000569547950794542F402D48525F4D04E7A7
:1006D00013E06F2D81E80E94C00F0F90DF91CF9142
:1006E0001F910F91FF900895811115C02091D22084
:1006F00081E090E0222311F080E090E0880F991FC4
:10070000FC01ED52FF4D108211821092CE2010920A
:10071000CF2080E038CF089580E035CF08950F9343
:100720001F938091F02181111FC02091EE21309103
:10073000EF218091EC219091ED2128173907A1F04C
:10074000862F2091EE213091EF212093EC213093E0
:10075000ED2101EE13E02AE030E044EE51E260E0EA
:100760000E94C00F8093F0211F910F910895CF93A5
:10077000DF931F92CDB7DEB78FB78983F8942981B5
:10078000662359F08091EE219091EF21482B592B4F
:100790004093EE215093EF210CC08091EE21909177
:1007A000EF2140955095482359234093EE215093D3
:1007B000EF212FBF62E880E0B2DF0F90DF91CF9191
:1007C00008951092F0218091EE219091EF2183788D
:1007D0008093EE219093EF21E4EEF1E28085918504
:1007E000837880879187642F80E099CF08958091E6
:1007F000E12181508093E1218091E1210E94F71253
:100800001092E0210895809138238823CCF48076DB
:100810008032F1F5809139238132E1F580913E23D8
:1008200090913F230797C1F5E8E3F3E282EF91E26D
:100830008087918787E090E08287938781E00895A1
:100840008076803259F580913923803219F08232D6
:10085000B9F026C080913E2390913F23079711F570
:10086000E8E3F3E28AE892E08487958782EF91E2F9
:100870008087918787E090E08287938781E0089561
:1008800060913A23617080E00E94FB1281E008953C
:1008900080E0089580E0089580E0089580E0089564
:1008A00080E0089580E0089540E150E061E080E05C
:1008B0005ECF089540E450E061E080E058CF0895B5
:1008C000CF93DF931F92CDB7DEB78FB78983F894AC
:1008D00049812091592130915A21E0915B21F0E02A
:1008E000EE0FFF1FE45AFE4D808191814FBF821BA6
:1008F000930B0F90DF91CF910895E2DF21E0892BD8
:1009000009F420E0822F08950F931F93CF93DF9374
:100910001F92CDB7DEB78FB78983F8949981209164
:100920005B2180915821811110C0609159217091F3
:100930005A21022F10E0F801EE0FFF1FE45AFE4D7E
:10094000408151816417750718F49FBF80E028C06B
:100950001092592110925A2181E0211180E0809358
:100960005B2181E0809358219FBF80E0C6DF882310
:1009700019F080E00E948813A8010024569547953D
:100980000794569547950794542F402D405A5E4D35
:1009900008E015E020E430E061E082E00E94C00F52
:1009A0000F90DF91CF911F910F9108951092E12147
:1009B0001092CF201092CE201092D220E3EDF0E2E0
:1009C00010821182128213821092D0201092D120B4
:1009D00080E0D9DD1092582110925B21ECE5F1E224
:1009E00010821182128213821092592110925A2180
:1009F00080E08ADF882359F09091E1219F5F9093F6
:100A0000E1219091E121913011F49093E02108953A
:100A10000F931F93811129C080915B21E1E0811127
:100A2000E0E0842F61157105A9F4F0E00024F6954B
:100A3000E7950794F695E7950794FE2FE02DAF0113
:100A4000405A5E4D08E015E020E430E061E00E948D
:100A5000C00F0BC0F0E0EE0FFF1FE45AFE4D6083A5
:100A600071831092582180E04FDF1F910F910895FC
:100A700080E043CF0895EF92FF921F93CF93DF93CF
:100A80001F92CDB7DEB711E08091F821893009F0CF
:100A900010E040E050E08FB78983F894A98120915D
:100AA000592130915A2180915B2190E0FC01EE0F99
:100AB000FF1FE45AFE4D60817181AFBF26173707D3
:100AC00030F08091E0218111E6CF90E021C0FC015F
:100AD0000024F695E7950794F695E7950794FE2F81
:100AE000E02DE20FF31FE05AFE4D80817A01E82AE3
:100AF0002F5F3F4F2093592130935A2180E004DF2C
:100B0000112321F05E2D442710E0C5CF8E2D9F2D9F
:100B10000F90DF91CF911F91FF90EF90089580E0AB
:100B2000AACF0895CF92DF92EF92FF920F931F9377
:100B3000CF93DF931F92CDB7DEB76B017A018FB7EA
:100B40008983F89449816091592170915A212091AB
:100B50005B2130E0F901EE0FFF1FE45AFE4D80816A
:100B600091814FBF6817790738F08091E02181119A
:100B7000E6CF8E2D9F2D35C0F901EE0FFF1FE45AF1
:100B8000FE4D80819181861B970B87018E159F05F5
:100B900008F48C01002436952795079436952795FF
:100BA0000794322F202D620F731F605A7E4DA801CB
:100BB000C6010E9447148091592190915A21800FBB
:100BC000911F8093592190935A21C00ED11EE01A93
:100BD000F10A80E099DEE114F10409F0B0CF80E081
:100BE00090E00F90DF91CF911F910F91FF90EF90C8
:100BF000DF90CF900895AB01BC0180E093CF0895C2
:100C0000CF93DF931F92CDB7DEB78FB78983F89468
:100C100099818091D220E82FF0E0EE0FFF1FED5276
:100C2000FF4D208131812034310589F44091CF205E
:100C300041110DC04091CE20411109C021E0209307
:100C4000CE20811120E02093D22020E030E09FBF11
:100C500080E490E0821B930B0F90DF91CF91089579
:100C6000CFDF21E0892B09F420E0822F089580E076
:100C7000F7CF0895FF920F931F93CF93DF931F92A7
:100C8000CDB7DEB7F62E172F01E08091F82189301D
:100C900009F000E080E0E4DF811107C08091E021ED
:100CA0008111F8CF80E090E02DC08FB78983F89450
:100CB0002981E091D220F0E0DF01AA0FBB1FAD52E5
:100CC000BF4D8D919C911197AC014F5F5F4F4D933C
:100CD0005C930024F695E7950794F695E7950794BD
:100CE000FE2FE02D8E0F9F1FFC01E852FF4DF0827A
:100CF0002FBF002329F0F12E110F110B00E0CACFF6
:100D000081E090E00F90DF91CF911F910F91FF90C4
:100D10000895BC0180E0AECF08955F926F927F92FC
:100D20008F929F92AF92BF92CF92DF92EF92FF92FB
:100D30000F931F93CF93DF931F92CDB7DEB74B0175
:100D40005A018091F821893011F4AA0CBB1C6894D7
:100D5000662466F8712C80E083DF811107C08091E2
:100D6000E0218111F8CF8A2D9B2D3AC08FB789835E
:100D7000F89459800091D22010E0F801EE0FFF1F87
:100D8000ED52FF4DE080F180C3018E199F0965018E
:100D90008A159B0508F46C01C80100249695879577
:100DA0000794969587950794982F802D8E0D9F1DFB
:100DB000A601B40188529F4D0E944714000F111FD5
:100DC000F801ED52FF4DEC0CFD1CE082F1825FBE9C
:100DD0008C0C9D1CAC18BD0809F0BDCF80E090E0E4
:100DE0000F90DF91CF911F910F91FF90EF90DF90C7
:100DF000CF90BF90AF909F908F907F906F905F90BB
:100E00000895AB01BC0180E088CF0895E091FE21F8
:100E1000F091FF210190F081E02D228133812E0F8E
:100E20003F1FFC014081E40FF11DE217F307B8F406
:100E300081818430B9F0861309C005C08181843076
:100E4000A1F0861303C08E2F9F2F08958081E80F95
:100E5000F11DE217F30790F380E090E0089580E041
:100E600090E0089580E090E0089580E090E008959B
:100E700080913A238F7795C7089590910022992306
:100E800081F1E091FE21F091FF210190F081E02DB0
:100E90009481891740F5E093FC21F093FD21228194
:100EA00033812E0F3F1FE217F307F8F4918194303E
:100EB00061F49281981309C09381961306C0E09360
:100EC000FC21F093FD2181E008959081E90FF11D4F
:100ED000E217F30758F3E093FC21F093FD2180E043
:100EE000089580E0089580E0089580E00895EF92ED
:100EF000FF921F93CF93DF93C82F60E0BEDF182FC0
:100F0000882381F1A091FE21B091FF21EC2FF0E028
:100F1000EE0FFF1F12968D919C911397E80FF91F0A
:100F2000E080F180D7011696ED91FC911797199505
:100F3000682F8C2FA2DF182F8823A1F0C091FC21ED
:100F4000D091FD2165E0CE0161DFEC01892B21F01C
:100F50008A810E94D010F6CFD7011296ED91FC91B4
:100F600013971995812FDF91CF911F91FF90EF90EB
:100F700008951F93CF93DF93182F7FDF882339F1D4
:100F8000C091FC21D091FD2165E0CE013FDFEC0155
:100F9000892B41F04C815D816B818A8117D781114A
:100FA000F3CF15C0A091FE21B091FF21E12FF0E019
:100FB000EE0FFF1F12968D919C911397E80FF91F6A
:100FC0000190F081E02D0190F081E02D1995DF91E5
:100FD000CF911F91089560C60895CF93809100220C
:100FE0008823C1F0E091FE21F091FF210190F08172
:100FF000E02D8481882371F0C0E08C2F78DFCF5FF3
:10100000E091FE21F091FF210190F081E02D84819B
:10101000C81798F31092002281E090E08093042298
:1010200090930522CF910895CF9380910022882339
:1010300049F1A091FE21B091FF21ED91FC91119712
:1010400084818823F9F0C0E0EC2FF0E0EE0FFF1F61
:1010500012968D919C911397E80FF91F0190F081E2
:10106000E02D0084F185E02D309709F01995CF5FD0
:10107000A091FE21B091FF21ED91FC911197848107
:10108000C81710F3CF9108950F931F93CF93DF9359
:10109000E8E3F3E212861386148615861686178611
:1010A000808188230CF05AC220913E2330913F2347
:1010B0002115310509F057C24DC28F7109F0A3C047
:1010C00090913923963079F0983009F492C09111BB
:1010D0009AC02230310509F0C6C162E070E084E0B8
:1010E00092E26DD645C280913A2390913B23292FFD
:1010F000332722303105A9F024F42130310541F0A5
:10110000A9C123303105D9F12F30310551F1A2C1E8
:101110008091142090911520DC016C9170E04FD6E5
:1011200059C0E0911420F09115202189821708F010
:101130009AC19927880F991F880F991FE09116204F
:10114000F0911720E80FF91F80819181FC016281E5
:10115000738135D6E0914023F091412382E0818371
:1011600039C08091182090911920009709F47BC113
:10117000DC0112966D917C91139721D62BC0992793
:101180008130910571F038F0029709F06CC188E95F
:1011900090E22FE009C064E070E082EB90E20FD6AD
:1011A00019C088EA90E229E0382FAAE7B0E2E82FD8
:1011B000F92F819190E08D939D938E2F831B821741
:1011C000C0F3622F660F6E5F6093782070E088E74F
:1011D00090E2F5D5E8E3F3E28681978122853385B5
:1011E0008217930708F0C4C180934223909343234E
:1011F000BFC12130310509F036C161E070E080E007
:1012000092E2DDD5B5C18130E1F5909139239A3074
:10121000C1F52130310509F026C1809100228823D3
:1012200009F421C1C0913C23D0913D230091FE21BE
:101230001091FF21D801ED91FC918481C81708F02D
:1012400012C160E08C2F19DE882309F40CC1CE0195
:101250009927880F991FD8011296ED91FC91139749
:10126000E80FF91F0190F081E02D86819781FC0144
:1012700019958093022261E070E082E092E29FD5AE
:1012800077C1823009F0EFC0809139238111E4C029
:101290002230310509F0E7C080913C231FD690E051
:1012A0008093FA219093FB2162E070E08AEF91E253
:1012B00086D55EC18F7109F083C090913923933038
:1012C00009F4CCC018F49130A1F07AC0953019F02F
:1012D000993039F175C080913E2390913F23892B3D
:1012E00009F0C1C088E397E080934423909345239D
:1012F0003FC180913E2390913F23892B09F0B3C0D9
:1013000080913A2390913B23019709F0ACC08091E2
:101310000422909105228D7F8093042290930522D0
:1013200027C180913E2390913F23892B09F09BC0D8
:101330003BD5882309F497C020913A2330913B2371
:101340003327E0911420F0911520818990E08217D5
:10135000930708F488C041DE80913A2390913B23A3
:1013600080930022882309F403C199278150904C6F
:10137000880F991F880F991FE0911620F091172070
:10138000E80FF91FE093FE21F093FF210190F08117
:10139000E02D8481882309F4EBC0C0E060E08C2F4D
:1013A000E8DD882309F45FC0CF5FE091FE21F09172
:1013B000FF210190F081E02D8481C81778F3D8C017
:1013C0008130E1F4909139239B30C1F480913E2328
:1013D00090913F23892B09F046C0809100228823F9
:1013E00009F441C0E8E3F3E2C481D2818C2F7FDDB0
:1013F0008823C9F16D2F8C2FBCDD33C0823099F565
:1014000080913923813019F0833089F029C080918F
:101410003E2390913F23892B31F580913A2390917F
:101420003B23892B01F580913C2373D51AC0809111
:101430003E2390913F23892BB1F480913A239091E0
:101440003B23892B81F4C8E3D3E28C8160D68C8165
:10145000C3D607C080E005C080E003C080E001C0C3
:1014600080E0811186C0809138238F71813071F5C1
:1014700080910022882351F100913C2310913D235B
:10148000C091FE21D091FF21E881F9818481081764
:10149000E8F460E0802FF1DC8823C1F0F801FF2739
:1014A000CF01880F991FEA81FB81E80FF91FC081E6
:1014B000D181EE81FF811995682F802FDEDC882392
:1014C00029F0EC81FD811995811153C08091382359
:1014D0008F71823009F040C0809100228823B1F1E1
:1014E000A091FE21B091FF21ED91FC911197848193
:1014F000882371F1C0E0EC2FF0E0EE0FFF1F129691
:101500008D919C911397E80FF91F00811181D801EB
:101510001696ED91FC9117971995682F8C2FADDCDD
:10152000882339F1D8011496ED91FC9115971995FE
:1015300081111FC0CF5FA091FE21B091FF21ED91DD
:10154000FC9111979481C917B0F213C080E011C0CB
:1015500080E00FC080E00DC080E00BC0982F907637
:1015600009F081CFA7CE982F907609F07CCFA5CD3A
:1015700081E0DF91CF911F910F91089543E050E0FA
:1015800061E080EE97E00E94580243E050E062E0A4
:1015900080EE97E00E94580243E050E060E180E670
:1015A00096E00E94580241E050E460E280E696E056
:1015B0000E94580240E05BE160E280E896E00E9411
:1015C000580240E05BE162E080EA96E00E94580247
:1015D00040E05BE164E080EA96E00C9458020895F4
:1015E0001BBEFC0128ED24BF608308954091CA0111
:1015F000E62FF72F8093CA0184914093CA01089582
:10160000CF93DF931F921F92CDB7DEB7811126C013
:10161000909130239923F9F090913323911101C0D7
:10162000FFCF9FB79A83F8942A81E2E3F3E2918196
:10163000915091832FBF0FC0909133239F3F09F4A6
:10164000FFCF9FB79983F8942981E2E3F3E2918178
:101650009F5F91832FBF8093302305C090913023EB
:10166000992351F3F8CF0F900F90DF91CF91089508
:101670000F93E8ECF4E080818F7D808380818F7D03
:101680008083E4E0F3E202E00593109206231092D7
:10169000072300E2069300E40693ECEFF2E200E495
:1016A0000693E8E3F3E214861586168617861286FB
:1016B00013861092EF220F9108950F9385E0809387
:1016C000EF22E5E0F3E204E00593EDEFF2E204E05F
:1016D00005930F9108950F9383E08093EF2210926A
:1016E000062310920723E4E0F3E202E006930F9151
:1016F0000895E0914423F0914523309709F019951E
:1017000008950F93CF93DF938091EF22833019F4E4
:10171000F0DFAEDF5EC08091EB229091EC22C091B1
:101720004223D0914323C81BD90B71F52091ED22A0
:101730003091EE22820F931F8093ED229093EE2240
:1017400020913E2330913F238217930721F080910F
:101750000622882341F084E08093EF22ECEFF2E24E
:1017600002E0069336C0E0914623F091472330977C
:1017700099F01995882381F01092EB221092EC22B7
:10178000C0914223D0914323C034D10528F0109258
:101790000622C0E4D0E003C081E080930622E0EF9F
:1017A000F2E2C68BD78B8091EB229091EC222091B4
:1017B000402330914123280F391F208F318FC80FCC
:1017C000D91FC093EB22D093EC22E4E0F3E202E0D5
:1017D0000693DF91CF910F910895FC018181E82F4D
:1017E000E7708E2F90E0FC013197E730F105D8F4D7
:1017F0008827E250FF4F8F4F0C943F1480E190E018
:10180000089580E290E0089580E490E0089580E8F3
:1018100090E0089580E091E0089580E092E00895DE
:101820008FEF93E0089588E090E00895282F2F70BF
:1018300030E0220F331F082E000C990B8827990FD8
:10184000881F9927820F931F02979C01220F331F35
:10185000220F331F220F331F820F931F89579D4D75
:1018600008950F93CF938091CC0480FF64C081E0F2
:101870008093CC04ECEFF2E200E80693E4E0F3E2BC
:1018800000E806938093CA04ECEFF2E200E10693CD
:101890008091EF22882329F08350823008F429DFD9
:1018A000E7DE8091FE229091FF22089709F045C063
:1018B00088E0EBEAF2E2A8E3B3E201900D928A95A8
:1018C000E1F7E8ECF4E080818062808380818062CF
:1018D0008083DADBC82F811103C0EFDEC1E02EC0A8
:1018E0008091382388236CF41092ED221092EE221E
:1018F0001092EB221092EC2282E08093EF2201DF23
:101900001DC080913E2390913F23892B11F4E3DE8B
:1019100015C01092ED221092EE221092EB2210923E
:10192000EC2281E08093EF22ECEFF2E202E00693FA
:1019300000E2069303C0C0E001C0C1E08C2FCF914C
:101940000F9108958F929F92AF92BF92DF92EF9284
:10195000FF920F931F93CF93DF93D82E67DF8C01F5
:10196000BD2CBB1CBB24BB1CCD2DCF70D0E0CC0F3D
:10197000DD1FCB0DD11DCE01880F991F880F991F38
:10198000880F991F9C0124503D4D7901C90125DF25
:101990004C01BB2009F479C0FE01EE0FFF1FEE0FD2
:1019A000FF1FEE0FFF1FE051FD4D22893389D80143
:1019B00015968D919C911697820F931F15968D9376
:1019C0009C93169713962D913C9114978217930729
:1019D00009F445C0281B390B2115B4E03B0738F04A
:1019E0002FEF33E0C901B40114D7281B390BF801DC
:1019F000808181FF09C0C901B4010BD741E0892B67
:101A000009F040E0842F01C080E0D8019C9180FB68
:101A100091F99C93FE01EE0FFF1FEE0FFF1FEE0FDB
:101A2000FF1FE051FD4D128A138A268737871196D2
:101A30002D913C91129715968D919C911697820F3E
:101A4000931FCC0FDD1FCC0FDD1FCC0FDD1FC0504F
:101A5000DD4D88839983F70102E00693E4C0D80145
:101A60008C9181FFCDC08D7F8C93CC0FDD1FCC0F6F
:101A7000DD1FCC0FDD1FC051DD4D1A8A1B8A1E866B
:101A80001F86F70102E00693CEC0FE01EE0FFF1F96
:101A9000EE0FFF1FEE0FFF1FE051FD4DA684B78430
:101AA000D8018C9182FF19C01196ED91FC9112978B
:101AB00015962D913C91169713968D919C911497A4
:101AC000B401A7D6B0E4DB9EB001112469537E4D6A
:101AD000AC01CF01820F931FDAD6F8012581368140
:101AE0002A0D3B1D258336838381948182179307BA
:101AF00068F485839683CC0FDD1FCC0FDD1FCC0FE0
:101B0000DD1FC051DD4D8A899B897AC0FE01EE0F31
:101B1000FF1FEE0FFF1FEE0FFF1FE051FD4D42892B
:101B200053894A155B0509F06BC02817390709F47A
:101B300067C0AC01421B530B9A01211554E03507D5
:101B400050F02FEF33E0C901B40163D6D901A81BCF
:101B5000B90BCD0107C0C901B4015BD6F901E81B7F
:101B6000F90BCF01FE01EE0FFF1FEE0FFF1FEE0F6F
:101B7000FF1FE051FD4D168617868815990500F563
:101B8000D8018C9184608C93B0E4DB9EC001112459
:101B900089539E4DFE01EE0FFF1FEE0FFF1FEE0F4C
:101BA000FF1FE050FD4D80839183CC0FDD1FCC0FD4
:101BB000DD1FCC0FDD1FC051DD4D8A8A9B8A1CC002
:101BC000F8014181528125813681240F351FFE01A4
:101BD000EE0FFF1FEE0FFF1FEE0FFF1FE050FD4D3A
:101BE00020833183CC0FDD1FCC0FDD1FCC0FDD1F19
:101BF000C051DD4D8A8B9B8BF70102E0069313C029
:101C0000D8018C9180FF0FC08E7F8C931796ED9139
:101C1000FC911897309739F015966D917C91169735
:101C20004D2D80E01995DF91CF911F910F91FF907D
:101C3000EF90DF90BF90AF909F908F9008951F938B
:101C4000CF93DF931F92CDB7DEB78FB78983F89418
:101C5000198181E0D5DCEAECF4E080E4808380E265
:101C60008083E1ECF4E0808181608083A9ECB4E0C2
:101C70008C9182608C93E8ECF4E0808180648083B6
:101C80008C9181608C938081806880831FBF0F90CE
:101C9000DF91CF911F9108950F931F93CF93DF93FF
:101CA0001F921F92CDB7DEB700E610E0F801108258
:101CB00080E30E941202E0ECF4E080818064808383
:101CC00081E0F80180838FB78A83F8941A81E0EF6E
:101CD000F2E21586158A158E15A215A615AAE7E853
:101CE000F2E280818E7F8083E0E9F2E280818E7F64
:101CF0008083E9E9F2E280818E7F8083E2EAF2E28A
:101D000080818E7F80836AE170E082E06FDC8F3FAC
:101D100019F08093FA0403C08FE18093FA046BE119
:101D200070E082E063DC8F3F19F08093FB0403C016
:101D30008FE18093FB04E0ECF4E08081826080839B
:101D40008081806880838081806180838CEF92E2D3
:101D5000868397838081806280838FEF8093C50420
:101D6000E8ECF4E0808181608083109230238091E0
:101D700037238F3F09F4FFCF8FB78983F894998178
:101D8000E2E3F3E285818F5F85839FBF58DF1FBF4A
:101D90000F900F90DF91CF911F910F91089580E0E8
:101DA00008958093C30408958091C3040895809199
:101DB0002C2390912D23089580E090E00895E8E38E
:101DC000F3E280879187628773870895282F2F70A9
:101DD00030E0220F331F082E000C990B8827990F33
:101DE000881F9927820F931FFC01EE0FFF1FEE0F34
:101DF000FF1FEE0FFF1FE051FD4D2585207C09F0F0
:101E000069C06370613011F018F404C020EC03C0A5
:101E100020E801C020E440385105E9F050F4403298
:101E20005105A9F040345105A1F040315105D9F4D4
:101E30000CC0411532E0530791F04F3F33E0530798
:101E400081F04115514079F408C041E00DC042E0F5
:101E50000BC043E009C044E007C045E005C046E0D0
:101E600003C047E001C040E0FC01EE0FFF1FEE0F92
:101E7000FF1FEE0FFF1FE051FD4D158636E0348742
:101E8000242B2587FC01EE0FFF1FEE0FFF1FEE0F27
:101E9000FF1FE051FD4D2585207C203C69F4FC01AD
:101EA000EE0FFF1FEE0FFF1FEE0FFF1FE051FD4D66
:101EB00025852770273081F0880F991F880F991F7B
:101EC000880F991FFC01E051FD4D85858062858753
:101ED00081E0089580E0089581E00895E82FEF7093
:101EE000F0E0EE0FFF1F082E000C990B8827990FCA
:101EF000881F9927E80FF91FEE0FFF1FEE0FFF1F36
:101F0000EE0FFF1FE051FD4D858582FB882780F98C
:101F100008950F93282F2F7030E0A901440F551F0B
:101F2000282F082E000C330B2227330F221F3327B4
:101F3000240F351FA901440F551F440F551F440F8F
:101F4000551FFA01E450FD4D01E00693FA01E051FE
:101F5000FD4D958592FF11C0FA01E051FD4D95852B
:101F60009B7F958763DCFC01808180FF06C08E7FAC
:101F700080830780F085E02D199581E00F91089509
:101F80005F926F927F928F929F92AF92BF92CF9209
:101F9000DF92EF92FF920F931F93CF93DF931F92E5
:101FA000CDB7DEB7782E662E4A0159013FDC6C01B1
:101FB000572C551C5524551C872D8F70E82EF12C5D
:101FC000EE0CFF1CE50CF11CF701EE0FFF1FEE0FEE
:101FD000FF1FEE0FFF1FE051FD4D8585807C09F44A
:101FE00081C0F701EE0FFF1FEE0FFF1FEE0FFF1F67
:101FF000E051FD4D8585807C803C61F0F701EE0F5E
:10200000FF1FEE0FFF1FEE0FFF1FE051FD4D8585F7
:1020100082FD6AC08FB78983F8948981F601908127
:1020200090FF03C08FBF512C60C0F601908191607A
:1020300090838FBF81829282A382B482158216829E
:1020400007831087611006C091E0A114B10419F054
:1020500090E001C091E0F601808190FB81F98B7FD7
:102060008083552061F0F701EE0FFF1FEE0FFF1F79
:10207000EE0FFF1FE051FD4D128A138A2EC0F701AB
:10208000EE0FFF1FEE0FFF1FEE0FFF1FE051FD4D84
:102090008585807C803CA1F4C701880F991F880F3B
:1020A000991F880F991F84509D4D97DBBC01C50176
:1020B000B0D3892B29F0F60180818E7F808315C0F3
:1020C000F701EE0FFF1FEE0FFF1FEE0FFF1FE05196
:1020D000FD4D16861786128A138A872D33DC552408
:1020E000539403C0512C01C0512C852D0F90DF91CA
:1020F000CF911F910F91FF90EF90DF90CF90BF9005
:10210000AF909F908F907F906F905F900895FF9217
:102110000F931F93CF93DF93182FF82EFF1CFF24EC
:10212000FF1CC82FCF70D0E0CC0FDD1FCF0DD11D0D
:102130007DDBDC01FE01EE0FFF1FEE0FFF1FEE0F38
:10214000FF1FE450FD4D02E005938C9180FF22C0FB
:102150008E7F8C931796ED91FC9118973097D1F064
:10216000FF2059F0CC0FDD1FCC0FDD1FCC0FDD1F82
:10217000C051DD4D6A897B890AC0CC0FDD1FCC0FB1
:10218000DD1FCC0FDD1FC051DD4D6E857F85412FDA
:1021900081E01995DF91CF911F910F91FF900895E4
:1021A000CF93C82FB4DFEC2FEF70F0E0EE0FFF1FDE
:1021B0008C2FCC0F990B8827990F881F9927E80F30
:1021C000F91FEE0FFF1FEE0FFF1FEE0FFF1FE05175
:1021D000FD4D1586CF910895E82FEF70F0E0EE0FDA
:1021E000FF1F282F082E000C330B2227330F221F2E
:1021F0003327E20FF31FEE0FFF1FEE0FFF1FEE0F4F
:10220000FF1FE051FD4D95859460958780DF81E04B
:1022100008951F920F920FB60F9211240BB60F92D2
:102220000F932F933F934F935F936F937F938F936E
:102230009F93AF93BF93EF93FF938091CB04882339
:102240003CF480E88093CA040E941408C2D188C07C
:102250008091CB0482FF20C084E08093CA048091E7
:10226000042386FF7DC08091CC0481FD79C0F9DA1A
:10227000811176C08091EF22813011F42CDA70C088
:10228000843009F06DC0E5E0F3E204E00593EDEF82
:10229000F2E204E0059364C08091CB0481FF5BC04F
:1022A00082E08093CA048091FC2286FF59C080910D
:1022B000CC0481FD55C0D5DA811152C08091EF2246
:1022C000823041F484E08093EF22ECEFF2E202E00E
:1022D000069346C0833009F043C0E5E0F3E204E032
:1022E0000593EDEFF2E204E005933AC080E18093BC
:1022F000CA0481E00CDF81E80ADF82E008DF82E8BF
:1023000006DF0E94ED071092C304E0EFF2E21586AB
:1023100096E0948783E48587158A948B858B8BEA76
:1023200092E2808B918BA4D91BC08091CB0486FF55
:1023300007C080E48093CA0480E062D944D110C011
:102340008091CB0485FF0CC080E28093CA0481E0B9
:1023500057D93CD105C08091CB0484FDC7CFE5CFD0
:10236000FF91EF91BF91AF919F918F917F916F916D
:102370005F914F913F912F910F910F900BBE0F9056
:102380000FBE0F901F9018951F920F920FB60F92CD
:1023900011240BB60F920F931F932F933F934F93DC
:1023A0005F936F937F938F939F93AF93BF93CF93DD
:1023B000DF93EF93FF938091CC0481FD03C051DA4A
:1023C0008111C3C082E08093CC048091C5048195C3
:1023D000880FECEFF2E2E81BF109208131812C5FDC
:1023E0003242369527953695279536952795822F33
:1023F000869520FD02C090E001C090E8890FE82F8B
:10240000EF70F0E0EE0FFF1F282F082E000C330BAB
:102410002227330F221F3327E20FF31FDF01AA0FFA
:10242000BB1FAA0FBB1FAA0FBB1FA051BD4D1C96FF
:102430009C9195FF8AC0EE0FFF1FEE0FFF1FEE0F5E
:10244000FF1FE450FD4D00E20693811179C0809199
:10245000EF22843019F44DD90BD977C00091FE22B8
:102460001091FF228091422390914323C091EB224F
:10247000D091EC229E01200F311F8217930718F490
:102480008C010C1B1D0B8091402390914123A801CE
:102490006BEA72E28C0F9D1FFAD1C00FD11FC0935F
:1024A000EB22D093EC220034110569F48091ED22E7
:1024B0009091EE228C0F9D1F20913E2330913F235F
:1024C0008217930780F0E8E3F3E2C287D38706849C
:1024D000F785E02D309729F01995811102C0EDD8CC
:1024E00034C0F9D832C08091422390914323C81759
:1024F000D907F9F4E0914623F0914723309711F47E
:10250000DCD823C01995811102C0D7D81EC02091F4
:10251000ED223091EE228091EB229091EC22820FFD
:10252000931F8093ED229093EE221092EB22109253
:10253000EC22ECEFF2E202E0069300E2069305C023
:10254000803811F4DED801C0FDD9FF91EF91DF9101
:10255000CF91BF91AF919F918F917F916F915F913B
:102560004F913F912F911F910F910F900BBE0F90A4
:102570000FBE0F901F90189587E08093A20078946B
:102580000E946C010E94BE0A0E9427010E94340131
:102590000E94EB070E9438058823E1F362E070E0B7
:1025A0008091B6209091B7200E94FB050E943706CB
:1025B0008823E1F362E070E08091B6209091B7202B
:1025C0000E940107E7CF0C94340108950C94410157
:1025D000089580913123882319F0E9DB0C945F0181
:1025E000089591E09093312379D081E0089510927D
:1025F000312385C00895662319F00C944501089590
:102600000C9449010895FF920F931F93CF93DF938A
:102610008B01FB018481823021F46894FF24F3F85C
:1026200001C0F12CF8018581813031F0823039F41C
:10263000FF2DF062FF2E03C08F2D8063F82EF8016E
:102640008681863049F018F48530A9F00DC08730B6
:1026500039F0893069F008C0FF2DF160FF2E0BC002
:102660008F2D8260F82E07C0EF2DE360FE2E03C091
:10267000FF2DF760FF2E60E183E00E94E701C0EAD2
:10268000D8E0FD82F80180819181A281B381880F19
:10269000991FAA1FBB1F880F991FAA1FBB1F9C0150
:1026A000AD01220F331F441F551F60E07CE68CED07
:1026B00092E0C3D0DA01C9010196A11DB11DB69502
:1026C000A795979587959C01215031092E833F83CB
:1026D000DF91CF911F910F91FF90089560E183E00A
:1026E0000E94E701E0E4F6E088E0818384E08283F1
:1026F000E0EAF8E08CE1848380E38383089560E17D
:1027000083E00E94FD01E0EAF8E01382148208955C
:102710008091A308882319F083E38093A308089588
:102720001F920F920FB60F9211240BB60F922F9398
:102730003F934F935F936F937F938F939F93AF9349
:10274000BF93CF93EF93FF930E9455018091A1080F
:10275000887121F00E9454040E945D01C091A0087C
:102760000E943706811105C00E945A040E945E0132
:1027700004C08C2F90E00E9489060E945901FF91AD
:10278000EF91CF91BF91AF919F918F917F916F9179
:102790005F914F913F912F910F900BBE0F900FBE05
:1027A0000F901F9018951F920F920FB60F92112441
:1027B0000BB60F922F933F934F935F936F937F933B
:1027C0008F939F93AF93BF93EF93FF930E9438052E
:1027D000882339F00E944D010E948F058093A00844
:1027E00005C080E38093A3080E945101FF91EF91FF
:1027F000BF91AF919F918F917F916F915F914F9119
:102800003F912F910F900BBE0F900FBE0F901F9016
:102810001895AA1BBB1B51E107C0AA1FBB1FA61717
:10282000B70710F0A61BB70B881F991F5A95A9F779
:1028300080959095BC01CD010895A1E21A2EAA1BA6
:10284000BB1BFD010DC0AA1FBB1FEE1FFF1FA21760
:10285000B307E407F50720F0A21BB30BE40BF50B5D
:10286000661F771F881F991F1A9469F760957095E6
:10287000809590959B01AC01BD01CF010895EE0FAD
:10288000FF1F881F8BBF0790F691E02D1994FB0165
:10289000DC0102C001900D9241505040D8F70895DC
:0428A000F894FFCFDA
:1028A400D604F703860288028C0390028002030494
:1028B4008802000066201A20000022201E200A2020
:1028C400002009024300020100C032090400000193
:1028D400020201000524001001042402020524065A
:1028E40000010524010301070582034000100904C7
:1028F4000100020A000000070581024000000705EC
:102904000202400000001201000202000040EB033A
:102914000424000101020001000300000000000083
:1029240000000000000000000000000000000000A3
:102934000000000000000000434443205669727404
:1029440075616C20436F6D0041544D454C204153DB
:10295400460004030904B82074656D70007465733F
:0C29640074656D62656467696C61000059
:00000001FF
