:1000000004C1000023C1000021C100001FC1000085
:100010001DC100001BC1000019C1000017C1000074
:1000200015C1000013C1000011C100000FC1000084
:100030000DC100000BC1000009C1000007C1000094
:1000400005C1000003C1000001C10000FFC00000A5
:10005000FDC00000FBC00000F9C00000F7C00000B8
:10006000F5C000000C949F150C94E215EFC0000041
:10007000EDC00000EBC00000E9C00000E7C00000D8
:10008000E5C00000E3C00000E1C00000DFC00000E8
:10009000DDC00000DBC00000D9C00000D7C00000F8
:1000A000D5C00000D3C00000D1C00000CFC0000008
:1000B000CDC00000CBC00000C9C00000C7C0000018
:1000C000C5C00000C3C00000C1C00000BFC0000028
:1000D000BDC00000BBC00000B9C00000B7C0000038
:1000E000B5C00000B3C00000B1C00000AFC0000048
:1000F000ADC00000ABC00000A9C00000A7C0000058
:10010000A5C00000A3C00000A1C000009FC0000067
:100110009DC000009BC0000099C0000097C0000077
:1001200095C0000093C0000091C000008FC0000087
:100130008DC000008BC0000089C0000087C0000097
:1001400085C0000083C0000081C000007FC00000A7
:100150007DC000007BC0000079C0000077C00000B7
:1001600075C0000073C0000071C000006FC00000C7
:100170006DC000006BC0000069C0000067C00000D7
:1001800065C0000063C0000061C000005FC00000E7
:100190005DC000005BC0000059C0000057C00000F7
:1001A00055C0000053C0000051C000004FC0000007
:1001B0004DC000004BC0000049C0000047C0000017
:1001C00045C0000043C0000041C000003FC0000027
:1001D0003DC000003BC0000039C0000037C0000037
:1001E00035C0000033C0000031C000002FC0000047
:1001F0002DC000000C94D7120C949213CC0DCF0D8F
:10020000D20DD50DD80DDB0DDE0D11241FBECFEFA5
:10021000CDBFDFE5DEBF00E00CBF10E2A0E0B0E242
:10022000E2ECFCE200E00BBF02C007900D92AE3B97
:10023000B107D9F723E2AEEBB0E201C01D92A03ABC
:10024000B207E1F70E94C6140C945F16D9CE82E083
:100250008093E607089582E08093E507089580E2A1
:1002600080936606089580E280936506089580E194
:1002700080936606089580E1809365060895089549
:100280000895009721F481E08093E6070895883E61
:10029000934019F481E08093E50708950F931F932D
:1002A000CF93DF93CDB7DEB72797CDBFDEBF8FEFFC
:1002B000809370008093710080937200809373002C
:1002C00080937400809375008093760064E081E4ED
:1002D00090E00E94710A6CE170E082E00E94770A6F
:1002E0008A836DE170E082E00E94770A89838981C8
:1002F0009A81019621F480E493E289839A8389812B
:100300009A818B839C83E0E6F0E082838C818383F7
:100310008FB78E83F8949E81E0E5F0E08081826063
:1003200080839FBF818181FFFDCF8FB78D83F8943C
:100330009D8100E510E0D80116968C911697897F73
:1003400016968C931697E0E6F0E080E885838BEBB9
:10035000868316968C911697846016968C9380816E
:10036000816080839FBF61E080E490E00E94710A19
:100370008FB78F83F8949F81F80180818E7F80836F
:100380009FBF2796CDBFDEBFDF91CF911F910F9109
:100390000895CF93DF931F92CDB7DEB79FB79983B0
:1003A000F8949981E82FF0E0E059FF4F6095808143
:1003B000682360839FBF0F90DF91CF910895CF9303
:1003C000DF931F92CDB7DEB79FB79983F8949981D9
:1003D000E82FF0E0E059FF4F8081682B60839FBFDA
:1003E0000F90DF91CF910895CF93DF931F921F92CB
:1003F000CDB7DEB7863011F060E001C068E18091D2
:10040000510081FD2AC08FB78A83F8949A81E0E574
:10041000F0E08081826080839FBF818181FFFDCF7A
:100420008FB78983F8949981A0E5B0E016968C91F6
:100430001697897F16968C931697E0E6F0E080E891
:1004400085838BEB868316968C911697846016961F
:100450008C938081816080839FBF636084E490E09F
:100460000E94710A60E480E094DF0F900F90DF91AA
:10047000CF910895CF93DF93FC01709620E030E098
:10048000C62FD0E0DE01022E02C0B595A7950A94D2
:10049000E2F7A0FD50832F5F3F4F319628303105A2
:1004A00089F740FF0AC041FF03C0FC01658302C019
:1004B000FC016683FC01618302C0FC016283DF9161
:1004C000CF9108958091D42181508093D4210895B3
:1004D00080E0089580E0089564EE71E280E00C947D
:1004E000121508951092D4211092E0211092E1216A
:1004F000E6EDF1E281EA808380E281831282138259
:100500001482158282E090E086839783108611869C
:10051000E4EEF1E280E895E2A0E0B0E08083918330
:10052000A283B3831482158288E08683BF0180E0B2
:100530000E94121580E00E940015882329F09091F6
:10054000D4219F5F9093D4210895FF920F931F931E
:10055000CF93DF931F92CDB7DEB78091C120811179
:100560009EC00E949D10882351F00091C2201091DE
:10057000C3200E94AA100817190759F490C00091CF
:10058000C2201091C3200E94A5100817190709F472
:1005900086C08FB78983F89419810091C420E02F19
:1005A000F0E0EE0FFF1FEB53FF4D80819181892B0F
:1005B00009F58091BE209091BF2001968093BE20C6
:1005C0009093BF200E949D10811107C08091BE2092
:1005D0009091BF208436910558F00E949D10882389
:1005E00049F08091BE209091BF208032934010F45A
:1005F0001FBF55C01092BE201092BF208091C02016
:10060000811106C081E0011180E08093C42004C004
:1006100081E0011180E0082F81E08093C1201FBF9D
:1006200010E0F801EE0FFF1FEB53FF4DFF24F39492
:10063000808191818034910509F4F12CFF2091F0A3
:100640000E949D10882339F00E94AA108093C22036
:100650009093C3200BC00E94A5108093C22090935A
:10066000C32004C01092C2201092C320F801EE0FE4
:10067000FF1FEB53FF4D20813181A80100245695C7
:1006800047950794569547950794542F402D465308
:100690005F4D06E513E06F2D81E80E948E110F90EB
:1006A000DF91CF911F910F91FF900895811115C097
:1006B0002091C42081E090E0222311F080E090E0BE
:1006C000880F991FFC01EB53FF4D1082118210928D
:1006D000C0201092C12080E038CF089580E035CF4F
:1006E00008950F931F938091E22181111FC02091E3
:1006F000E0213091E1218091DE219091DF212817C6
:100700003907A1F0862F2091E0213091E12120933B
:10071000DE213093DF2103EC13E02AE030E046EDE8
:1007200051E260E00E948E118093E2211F910F91AF
:100730000895CF93DF931F92CDB7DEB78FB789832C
:10074000F8942981662359F08091E0219091E1216C
:10075000482B592B4093E0215093E1210CC080910C
:10076000E0219091E12140955095482359234093F1
:10077000E0215093E1212FBF62E880E0B2DF0F90CB
:10078000DF91CF9108951092E2218091E021909124
:10079000E12183788093E0219093E121E6EDF1E27D
:1007A00080859185837880879187642F80E099CFB9
:1007B00008958091D32181508093D3218091D321BA
:1007C0000E9406151092D2210895809190238823CB
:1007D000CCF480768032F1F5809191238132E1F57D
:1007E00080919623909197230797C1F5E0E9F3E272
:1007F00084EE91E28087918787E090E082879387FB
:1008000081E008958076803259F58091912380327D
:1008100019F08232B9F026C08091962390919723E7
:10082000079711F5E0E9F3E28CE692E0848795877B
:1008300084EE91E28087918787E090E082879387BA
:1008400081E0089560919223617080E00E940A1512
:1008500081E0089580E0089580E0089580E00895A3
:1008600080E0089580E0089580E0089540E150E040
:1008700061E080E05ECF089540E450E061E080E018
:1008800058CF0895CF93DF931F92CDB7DEB78FB7C0
:100890008983F894498120914B2130914C21E0913A
:1008A0004D21F0E0EE0FFF1FE25BFE4D8081918154
:1008B0004FBF821B930B0F90DF91CF910895E2DF22
:1008C00021E0892B09F420E0822F08950F931F93D4
:1008D000CF93DF931F92CDB7DEB78FB78983F8949C
:1008E000998120914D2180914A21811110C0609100
:1008F0004B2170914C21022F10E0F801EE0FFF1FE9
:10090000E25BFE4D408151816417750718F49FBF6B
:1009100080E028C010924B2110924C2181E02111DF
:1009200080E080934D2181E080934A219FBF80E049
:10093000C6DF882319F080E00E949715A8010024E3
:10094000569547950794569547950794542F402DF3
:100950004E5A5E4D0AEE14E020E430E061E082E0A1
:100960000E948E110F90DF91CF911F910F910895EA
:100970001092D3211092C1201092C0201092C42056
:10098000E5ECF0E210821182128213821092C220F2
:100990001092C32080E0D9DD10924A2110924D219F
:1009A000EEE4F1E2108211821282138210924B2146
:1009B00010924C2180E08ADF882359F09091D32156
:1009C0009F5F9093D3219091D321913011F4909314
:1009D000D22108950F931F93811129C080914D2139
:1009E000E1E08111E0E0842F61157105A9F4F0E0E8
:1009F0000024F695E7950794F695E7950794FE2F62
:100A0000E02DAF014E5A5E4D0AEE14E020E430E0D6
:100A100061E00E948E110BC0F0E0EE0FFF1FE25B61
:100A2000FE4D6083718310924A2180E04FDF1F9159
:100A30000F91089580E043CF0895EF92FF921F93A6
:100A4000CF93DF931F92CDB7DEB711E08091EA21FB
:100A5000893009F010E040E050E08FB78983F894C6
:100A6000A98120914B2130914C2180914D2190E022
:100A7000FC01EE0FFF1FE25BFE4D60817181AFBF95
:100A80002617370730F08091D2218111E6CF90E010
:100A900021C0FC010024F695E7950794F695E795AB
:100AA0000794FE2FE02DE20FF31FEE5AFE4D8081DA
:100AB0007A01E82A2F5F3F4F20934B2130934C213E
:100AC00080E004DF112321F05E2D442710E0C5CF24
:100AD0008E2D9F2D0F90DF91CF911F91FF90EF9062
:100AE000089580E0AACF0895CF93DF931F92CDB7EA
:100AF000DEB78FB78983F89499818091C420E82F5D
:100B0000F0E0EE0FFF1FEB53FF4D208131812034C9
:100B1000310589F44091C12041110DC04091C020A0
:100B2000411109C021E02093C020811120E02093D1
:100B3000C42020E030E09FBF80E490E0821B930B54
:100B40000F90DF91CF910895CFDF21E0892B09F439
:100B500020E0822F089580E0F7CF0895FF920F9351
:100B60001F93CF93DF931F92CDB7DEB7F62E172FCB
:100B700001E08091EA21893009F000E080E0E4DFC3
:100B8000811107C08091D2218111F8CF80E090E0DF
:100B90002DC08FB78983F8942981E091C420F0E0BB
:100BA000DF01AA0FBB1FAB53BF4D8D919C911197D5
:100BB000AC014F5F5F4F4D935C930024F695E79532
:100BC0000794F695E7950794FE2FE02D8E0F9F1F53
:100BD000FC01E653FF4DF0822FBF002329F0F12ED8
:100BE000110F110B00E0CACF81E090E00F90DF9170
:100BF000CF911F910F91FF900895BC0180E0AECF7F
:100C000008955F926F927F928F929F92AF92BF9260
:100C1000CF92DF92EF92FF920F931F93CF93DF93C8
:100C20001F92CDB7DEB74B015A018091EA2189307E
:100C300011F4AA0CBB1C6894662466F8712C80E041
:100C400083DF811107C08091D2218111F8CF8A2DD5
:100C50009B2D3AC08FB78983F89459800091C420A6
:100C600010E0F801EE0FFF1FEB53FF4DE080F18025
:100C7000C3018E199F0965018A159B0508F46C0153
:100C8000C8010024969587950794969587950794B3
:100C9000982F802D8E0D9F1DA601B40186539F4D68
:100CA0000E945616000F111FF801EB53FF4DEC0C7C
:100CB000FD1CE082F1825FBE8C0C9D1CAC18BD084F
:100CC00009F0BDCF80E090E00F90DF91CF911F91B0
:100CD0000F91FF90EF90DF90CF90BF90AF909F90DB
:100CE0008F907F906F905F900895AB01BC0180E082
:100CF00088CF0895E091F021F091F1210190F081E9
:100D0000E02D228133812E0F3F1FFC014081E40F33
:100D1000F11DE217F307B8F481818430B9F086132E
:100D200009C005C081818430A1F0861303C08E2FD5
:100D30009F2F08958081E80FF11DE217F30790F3CC
:100D400080E090E0089580E090E0089580E090E0F9
:100D5000089580E090E00895809192238F770C941D
:100D60009F1008959091F221992381F1E091F02153
:100D7000F091F1210190F081E02D9481891740F5E7
:100D8000E093EE21F093EF21228133812E0F3F1F5C
:100D9000E217F307F8F49181943061F4928198138B
:100DA00009C09381961306C0E093EE21F093EF21E2
:100DB00081E008959081E90FF11DE217F30758F3E0
:100DC000E093EE21F093EF2180E0089580E0089514
:100DD00080E0089580E00895EF92FF921F93CF93F3
:100DE000DF93C82F60E0BEDF182F882381F1A09128
:100DF000F021B091F121EC2FF0E0EE0FFF1F1296E1
:100E00008D919C911397E80FF91FE080F180D70135
:100E10001696ED91FC9117971995682F8C2FA2DFEC
:100E2000182F8823A1F0C091EE21D091EF2165E029
:100E3000CE0160DFEC01892B21F08A810E949E1295
:100E4000F6CFD7011296ED91FC9113971995812F4A
:100E5000DF91CF911F91FF90EF9008951F93CF9353
:100E6000DF93182F7FDF882341F1C091EE21D091CD
:100E7000EF2165E0CE013EDFEC01892B49F04C818A
:100E80005D816B818A810E94B4108111F2CF15C0FF
:100E9000A091F021B091F121E12FF0E0EE0FFF1FC2
:100EA00012968D919C911397E80FF91F0190F08194
:100EB000E02D0190F081E02D1995DF91CF911F91E8
:100EC00008950C941A100895CF938091F2218823ED
:100ED000C1F0E091F021F091F1210190F081E02D3D
:100EE0008481882371F0C0E08C2F76DFCF5FE091A2
:100EF000F021F091F1210190F081E02D8481C8175B
:100F000098F31092F22181E090E08093F621909383
:100F1000F721CF910895CF938091F221882349F151
:100F2000A091F021B091F121ED91FC911197848174
:100F30008823F9F0C0E0EC2FF0E0EE0FFF1F1296CF
:100F40008D919C911397E80FF91F0190F081E02D8E
:100F50000084F185E02D309709F01995CF5FA091BD
:100F6000F021B091F121ED91FC9111978481C81786
:100F700010F3CF9108950F931F93CF93DF93E0E980
:100F8000F3E21286138614861586168617868081EC
:100F900088230CF064C22091962330919723211569
:100FA000310509F061C257C28F7109F0AAC0909152
:100FB0009123963081F0983009F498C09111A1C026
:100FC0002230310509F0D0C162E070E086EF91E295
:100FD0000E94AD104EC28091922390919323292FAD
:100FE000332722303105B1F024F42130310541F0AE
:100FF000B2C123303105F1F12F30310561F1ABC1C0
:101000008091142090911520DC016C9170E00E9479
:10101000AD105DC0E0911420F09115202189821758
:1010200008F0A2C19927880F991F880F991FE09196
:101030001620F0911720E80FF91F80819181FC01A3
:10104000628173810E94AD10E0919823F091992301
:1010500082E081833CC080911820909119200097F4
:1010600009F482C1DC0112966D917C9113970E9464
:10107000AD102DC099278130910579F038F0029795
:1010800009F072C188E990E22FE00AC064E070E0E4
:1010900082EB90E20E94AD101AC088EA90E229E04B
:1010A000382FAAE7B0E2E82FF92F819190E08D93D5
:1010B0009D938E2F831B8217C0F3622F660F6E5F86
:1010C0006093782070E088E790E20E94AD10E0E93C
:1010D000F3E286819781228533858217930708F092
:1010E000C8C180939A2390939B23C3C121303105BB
:1010F00009F03AC161E070E082EF91E20E94AD1028
:10110000B8C18130E1F5909191239A30C1F5213039
:10111000310509F029C18091F221882309F424C105
:10112000C0919423D09195230091F0211091F12149
:10113000D801ED91FC918481C81708F015C160E0D9
:101140008C2F10DE882309F40FC1CE019927880F58
:10115000991FD8011296ED91FC911397E80FF91F92
:101160000190F081E02D86819781FC011995809393
:10117000F42161E070E084EF91E2EFD77AC1823030
:1011800009F0F2C0809191238111E7C0223031052E
:1011900009F0EAC0809194230E943C1190E0809372
:1011A000EC219093ED2162E070E08CEE91E2D5D7D6
:1011B00060C18F7109F083C090919123933009F43D
:1011C000CEC018F49130A1F07AC0953019F0993062
:1011D00039F175C08091962390919723892B09F05E
:1011E000C3C08CEA96E080939C2390939D2341C1D9
:1011F0008091962390919723892B09F0B5C0809117
:10120000922390919323019709F0AEC08091F6212B
:101210009091F7218D7F8093F6219093F72129C13A
:101220008091962390919723892B09F09DC08AD7AE
:10123000882309F499C02091922330919323332776
:10124000E0911420F0911520818990E08217930796
:1012500008F48AC039DE8091922390919323809381
:10126000F221882309F405C199278150904C880FF9
:10127000991F880F991FE0911620F0911720E80F11
:10128000F91FE093F021F093F1210190F081E02D1E
:101290008481882309F4EDC0C0E060E08C2FDEDD9E
:1012A000882309F461C0CF5FE091F021F091F12132
:1012B0000190F081E02D8481C81778F3DAC0813085
:1012C000E1F4909191239B30C1F480919623909109
:1012D0009723892B09F048C08091F221882309F4D3
:1012E00043C0E0E9F3E2C481D2818C2F75DD88230D
:1012F000D9F16D2F8C2FB2DD35C08230A9F58091E8
:101300009123813019F0833089F02BC0809196238E
:1013100090919723892B41F580919223909193236B
:10132000892B11F580919423C2D71CC080919623FC
:1013300090919723892BC1F48091922390919323CC
:10134000892B91F4C0E9D3E28C810E9455128C81E3
:101350000E94BA1207C080E005C080E003C080E0B0
:1013600001C080E0811186C0809190238F7181300F
:1013700071F58091F221882351F10091942310910D
:101380009523C091F021D091F121E881F9818481E8
:101390000817E8F460E0802FE5DC8823C1F0F8014D
:1013A000FF27CF01880F991FEA81FB81E80FF91F02
:1013B000C081D181EE81FF811995682F802FD2DC09
:1013C000882329F0EC81FD811995811153C080910A
:1013D00090238F71823009F040C08091F2218823E0
:1013E000B1F1A091F021B091F121ED91FC91119713
:1013F0008481882371F1C0E0EC2FF0E0EE0FFF1F35
:1014000012968D919C911397E80FF91F008111811D
:10141000D8011696ED91FC9117971995682F8C2F8E
:10142000A1DC882339F1D8011496ED91FC91159730
:10143000199581111FC0CF5FA091F021B091F121CA
:10144000ED91FC9111979481C917B0F213C080E01F
:1014500011C080E00FC080E00DC080E00BC0982F6D
:10146000907609F081CFA5CE982F907609F07CCFA9
:101470009BCD81E0DF91CF911F910F91089543E0C3
:1014800050E061E080EE97E00E943A0243E050E0D5
:1014900062E080EE97E00E943A0243E050E060E1B3
:1014A00080E696E00E943A0241E050E460E280E685
:1014B00096E00E943A0240E05BE160E280E896E05C
:1014C0000E943A0240E05BE162E080EA96E00E941E
:1014D0003A0240E05BE164E080EA96E00C943A0274
:1014E00008951BBEFC0128ED24BF60830895409140
:1014F000CA01E62FF72F8093CA0184914093CA0155
:101500000895FC0191819923ECF7808108952F9231
:101510003F924F925F926F927F928F929F92AF9283
:10152000BF92CF92DF92EF92FF920F931F93CF93D0
:101530001C012A013B0148015901D901C8016894E5
:1015400012F8B695A795979587951694D1F7B90196
:10155000A801032E36E176956795579547953A95FC
:10156000D1F7302DF101248122FD08C0B695A79551
:101570009795879576956795579547958415950521
:10158000A605B70508F4AEC04416550666067706EC
:1015900008F4AAC0F101848182FD04C0440C551CEA
:1015A000661C771CC501B401A30192010E942C1690
:1015B0002F3F31054105510508F498C0C12CD12CAD
:1015C0007601CA94C9EF05C02C153D054E055F058F
:1015D00068F0CC0CDD1CEE1CFF1CCD3F14F46894AD
:1015E000C0F8CF5FC73081F78C2F56C08C2FCC232B
:1015F0000CF052C0D301C201880F991FAA1FBB1F54
:10160000880F991FAA1FBB1F880F991FAA1FBB1FF6
:1016100085017401E81AF90A0A0B1B0BD801C701EE
:10162000CE3FF4F42DEF3FEF2C1B3109C7FD33956E
:1016300004C0880F991FAA1FBB1F2A95D2F77301F8
:101640006201F694E794D794C794BC01CD016C0D68
:101650007D1D8E1D9F1DA30192010E942C1638C076
:1016600023E02C0F8301720104C0EE0CFF1C001F4D
:10167000111F2A95D2F7A801970167017801F69406
:10168000E794D794C794BC01CD016C0D7D1D8E1DD0
:101690009F1D0E942C161CC08D5FA301920104C0E7
:1016A000220F331F441F551F8A95D2F7DA01C90153
:1016B000B695A79597958795BC01CD01680D791DC5
:1016C0008A1D9B1D0E942C16215031094109510988
:1016D000832F8F70C295C07FC82BF101C7832683EB
:1016E00081E01CC080E01AC080E018C0D301C201B4
:1016F000880F991FAA1FBB1F880F991FAA1FBB1F06
:10170000880F991FAA1FBB1F85017401E81AF90AE7
:101710000A0B1B0BD801C701C9EF84CFCF911F91D2
:101720000F91FF90EF90DF90CF90BF90AF909F9080
:101730008F907F906F905F904F903F902F90089583
:101740000F931F93CF93DF93EC018B01009709F464
:1017500003C1803C910529F460E180E00E94C90149
:10176000FBC0C03881E0D80729F462E080E00E9425
:10177000C901F2C0C115E1E0DE0729F461E080E0B3
:101780000E94C901E9C0C038F3E0DF0729F461E035
:1017900081E00E94C901E0C0C03983E0D80729F484
:1017A00061E082E00E94C901D7C0C115E2E0DE0716
:1017B00029F462E081E00E94C901CEC0C034F2E0A9
:1017C000DF0729F462E082E00E94C901C5C0C0328F
:1017D00083E0D80729F464E082E00E94C901BCC01C
:1017E000C115E8E0DE0729F461E083E00E94C90149
:1017F000B3C0C115F9E0DF0729F461E084E00E947D
:10180000C901AAC0C1158AE0D80729F461E085E0C2
:101810000E94C901A1C0C115EBE0DE0729F461E017
:1018200086E00E94C90198C0C034F8E0DF0729F4BF
:1018300062E083E00E94C9018FC0C03489E0D8070C
:1018400029F462E084E00E94C90186C0C034EAE065
:10185000DE0729F462E085E00E94C9017DC0C0393D
:10186000F8E0DF0729F464E083E00E94C90174C056
:10187000C03989E0D80729F464E084E00E94C901F6
:101880006BC0C039EAE0DE0729F464E085E00E941D
:10189000C90162C0C039FBE0DF0729F464E086E0DB
:1018A0000E94C90159C0C03C88E0D80729F468E00B
:1018B00083E00E94C90150C0C03CE9E0DE0729F482
:1018C00068E084E00E94C90147C0C03AF8E0DF0741
:1018D00029F460E183E00E94C9013EC0C03A89E07A
:1018E000D80729F460E184E00E94C90135C0C03AFC
:1018F000EAE0DE0729F460E185E00E94C9012CC01E
:10190000C03AFBE0DF0729F460E186E00E94C901EC
:1019100023C0C03B88E0D80729F460E283E00E943E
:10192000C9011AC0C03BE9E0DE0729F460E284E0A7
:101930000E94C90111C0C038F4E0DF0729F460E457
:1019400083E00E94C90108C0C03A84E0D80721F4AE
:1019500060E485E00E94C9018D818F738D83F80159
:1019600094818581892B9681911198E0892B8D83B3
:10197000F801408151816281738100E016E32EE617
:1019800031E0CE01C4DD9C8198609C839C81906194
:101990009C83DF91CF911F910F910895CF93DF9397
:1019A0001F921F92CDB7DEB7811126C090912423DC
:1019B0009923F9F090918B23911101C0FFCF9FB72C
:1019C0009A83F8942A81EAE8F3E291819150918315
:1019D0002FBF0FC090918B239F3F09F4FFCF9FB77C
:1019E0009983F8942981EAE8F3E291819F5F9183DA
:1019F0002FBF8093242305C090912423992351F372
:101A0000F8CF0F900F90DF91CF9108950F93E8ECEE
:101A1000F4E080818F7D808380818F7D8083E8EFFB
:101A2000F2E202E005931092FA221092FB2200E209
:101A3000069300E40693E0EFF2E200E40693E0E9A7
:101A4000F3E2148615861686178612861386109280
:101A5000E1220F9108950F9385E08093E122E9EF51
:101A6000F2E204E00593E1EFF2E204E005930F9166
:101A700008950F9383E08093E1221092FA2210924E
:101A8000FB22E8EFF2E202E006930F910895E09165
:101A90009C23F0919D23309709F0199508950F9399
:101AA000CF93DF938091E122833019F4F0DFAEDF32
:101AB0005EC08091DD229091DE22C0919A23D09168
:101AC0009B23C81BD90B71F52091DF223091E022B6
:101AD000820F931F8093DF229093E0222091962320
:101AE000309197238217930721F08091F821882362
:101AF00041F084E08093E122E0EFF2E202E006931D
:101B000036C0E0919E23F0919F23309799F019956C
:101B1000882381F01092DD221092DE22C0919A2358
:101B2000D0919B23C034D10528F01092F821C0E455
:101B3000D0E003C081E08093F821E4EEF2E2C68BAE
:101B4000D78B8091DD229091DE22209198233091D5
:101B50009923280F391F208F318FC80FD91FC093A9
:101B6000DD22D093DE22E8EFF2E202E00693DF917D
:101B7000CF910F910895FC018181E82FE7708E2F9E
:101B800090E0FC013197E730F105D8F48827E25066
:101B9000FF4F8F4F0C944E1680E190E0089580E245
:101BA00090E0089580E490E0089580E890E0089542
:101BB00080E091E0089580E092E008958FEF93E057
:101BC000089588E090E00895282F2F7030E0220FCC
:101BD000331F082E000C990B8827990F881F99270F
:101BE000820F931F02979C01220F331F220F331F76
:101BF000220F331F820F931F87589D4D08950F9317
:101C0000CF938091CC0480FF64C081E08093CC04AA
:101C1000E0EFF2E200E80693E8EFF2E200E8069374
:101C20008093CA04E0EFF2E200E106938091E122A2
:101C3000882329F08350823008F429DFE7DE809181
:101C4000F2229091F322089709F045C088E0EDE96F
:101C5000F2E2A0E9B3E201900D928A95E1F7E8EC97
:101C6000F4E080818062808380818062808383D978
:101C7000C82F811103C0EFDEC1E02EC080919023F8
:101C800088236CF41092DF221092E0221092DD2261
:101C90001092DE2282E08093E12201DF1DC080915C
:101CA000962390919723892B11F4E3DE15C01092AF
:101CB000DF221092E0221092DD221092DE2281E0DB
:101CC0008093E122E0EFF2E202E0069300E2069365
:101CD00003C0C0E001C0C1E08C2FCF910F910895E7
:101CE0008F929F92AF92BF92DF92EF92FF920F93EB
:101CF0001F93CF93DF93D82E67DF8C01BD2CBB1CC5
:101D0000BB24BB1CCD2DCF70D0E0CC0FDD1FCB0D85
:101D1000D11DCE01880F991F880F991F880F991F19
:101D20009C0120513D4D7901C90125DF4C01BB20AB
:101D300009F479C0FE01EE0FFF1FEE0FFF1FEE0F3B
:101D4000FF1FEC51FD4D22893389D80115968D91E5
:101D50009C911697820F931F15968D939C931697BF
:101D600013962D913C9114978217930709F445C05F
:101D7000281B390B2115B4E03B0738F02FEF33E077
:101D8000C901B40155D7281B390BF801808181FFA7
:101D900009C0C901B4014CD741E0892B09F040E0EA
:101DA000842F01C080E0D8019C9180FB91F99C9325
:101DB000FE01EE0FFF1FEE0FFF1FEE0FFF1FEC5196
:101DC000FD4D128A138A2687378711962D913C91F3
:101DD000129715968D919C911697820F931FCC0F99
:101DE000DD1FCC0FDD1FCC0FDD1FCC50DD4D8883F8
:101DF0009983F70102E00693E4C0D8018C9181FF3A
:101E0000CDC08D7F8C93CC0FDD1FCC0FDD1FCC0F91
:101E1000DD1FCC51DD4D1A8A1B8A1E861F86F701F5
:101E200002E00693CEC0FE01EE0FFF1FEE0FFF1F74
:101E3000EE0FFF1FEC51FD4DA684B784D8018C91A5
:101E400082FF19C01196ED91FC91129715962D9174
:101E50003C91169713968D919C911497B401E8D6F6
:101E6000B0E4DB9EB001112467547E4DAC01CF017C
:101E7000820F931F1BD7F801258136812A0D3B1D48
:101E800025833683838194818217930768F4858341
:101E90009683CC0FDD1FCC0FDD1FCC0FDD1FCC5187
:101EA000DD4D8A899B897AC0FE01EE0FFF1FEE0F80
:101EB000FF1FEE0FFF1FEC51FD4D428953894A155C
:101EC0005B0509F06BC02817390709F467C0AC013E
:101ED000421B530B9A01211554E0350750F02FEFA8
:101EE00033E0C901B401A4D6D901A81BB90BCD01B7
:101EF00007C0C901B4019CD6F901E81BF90BCF0159
:101F0000FE01EE0FFF1FEE0FFF1FEE0FFF1FEC5144
:101F1000FD4D168617868815990500F5D8018C9118
:101F200084608C93B0E4DB9EC001112487549E4DE5
:101F3000FE01EE0FFF1FEE0FFF1FEE0FFF1FEC5015
:101F4000FD4D80839183CC0FDD1FCC0FDD1FCC0FA7
:101F5000DD1FCC51DD4D8A8A9B8A1CC0F80141816E
:101F6000528125813681240F351FFE01EE0FFF1FA0
:101F7000EE0FFF1FEE0FFF1FEC50FD4D208331834E
:101F8000CC0FDD1FCC0FDD1FCC0FDD1FCC51DD4D85
:101F90008A8B9B8BF70102E0069313C0D8018C91CA
:101FA00080FF0FC08E7F8C931796ED91FC91189750
:101FB000309739F015966D917C9116974D2D80E0F4
:101FC0001995DF91CF911F910F91FF90EF90DF90C6
:101FD000BF90AF909F908F9008951F93CF93DF9302
:101FE0001F92CDB7DEB78FB78983F894198181E04E
:101FF000D5DCEAECF4E080E4808380E28083E1ECED
:10200000F4E0808181608083A9ECB4E08C918260EF
:102010008C93E8ECF4E08081806480838C91816013
:102020008C938081806880831FBF0F90DF91CF9158
:102030001F9108950F931F93CF93DF931F921F92C9
:10204000CDB7DEB700E610E0F801108280E30E9411
:10205000F401E0ECF4E080818064808381E0F801A9
:1020600080838FB78A83F8941A81E4EEF2E21586B2
:10207000158A158E15A215A615AAE9E7F2E2808148
:102080008E7F8083E2E8F2E280818E7F8083EBE8BE
:10209000F2E280818E7F8083E4E9F2E280818E7FAC
:1020A00080836AE170E082E022DA8F3F19F080934A
:1020B000FA0403C08FE18093FA046BE170E082E0E0
:1020C00016DA8F3F19F08093FB0403C08FE18093F1
:1020D000FB04E0ECF4E08081826080838081806892
:1020E000808380818061808380EF92E28683978302
:1020F0008081806280838FEF8093C504E8ECF4E0F8
:102100008081816080831092242380918F238F3F70
:1021100009F4FFCF8FB78983F8949981EAE8F3E255
:1021200085818F5F85839FBF58DF1FBF0F900F9002
:10213000DF91CF911F910F91089580E008958093D2
:10214000C30408958091C304089580912023909141
:102150002123089580E090E00895E0E9F3E280878C
:102160009187628773870895282F2F7030E0220FA0
:10217000331F082E000C990B8827990F881F992769
:10218000820F931FFC01EE0FFF1FEE0FFF1FEE0FDC
:10219000FF1FEC51FD4D2585207C09F069C063705F
:1021A000613011F018F404C020EC03C020E801C035
:1021B00020E440385105E9F050F440325105A9F0CF
:1021C00040345105A1F040315105D9F40CC04115FE
:1021D00032E0530791F04F3F33E0530781F0411550
:1021E000514079F408C041E00DC042E00BC043E02B
:1021F00009C044E007C045E005C046E003C047E031
:1022000001C040E0FC01EE0FFF1FEE0FFF1FEE0FBD
:10221000FF1FEC51FD4D158636E03487242B2587B2
:10222000FC01EE0FFF1FEE0FFF1FEE0FFF1FEC5123
:10223000FD4D2585207C203C69F4FC01EE0FFF1F3D
:10224000EE0FFF1FEE0FFF1FEC51FD4D2585277090
:10225000273081F0880F991F880F991F880F991FC9
:10226000FC01EC51FD4D85858062858781E00895F4
:1022700080E0089581E00895E82FEF70F0E0EE0F20
:10228000FF1F082E000C990B8827990F881F99278C
:10229000E80FF91FEE0FFF1FEE0FFF1FEE0FFF1FDE
:1022A000EC51FD4D858582FB882780F908950F93B9
:1022B000282F2F7030E0A901440F551F282F082E1A
:1022C000000C330B2227330F221F3327240F351F17
:1022D000A901440F551F440F551F440F551FFA0104
:1022E000E051FD4D01E00693FA01EC51FD4D95855D
:1022F00092FF11C0FA01EC51FD4D95859B7F9587AA
:1023000063DCFC01808180FF06C08E7F80830780B4
:10231000F085E02D199581E00F9108955F926F92FD
:102320007F928F929F92AF92BF92CF92DF92EF9265
:10233000FF920F931F93CF93DF931F92CDB7DEB71A
:10234000782E662E4A0159013FDC6C01572C551C32
:102350005524551C872D8F70E82EF12CEE0CFF1C98
:10236000E50CF11CF701EE0FFF1FEE0FFF1FEE0F44
:10237000FF1FEC51FD4D8585807C09F481C0F7017C
:10238000EE0FFF1FEE0FFF1FEE0FFF1FEC51FD4D75
:102390008585807C803C61F0F701EE0FFF1FEE0F1A
:1023A000FF1FEE0FFF1FEC51FD4D858582FD6AC0BA
:1023B0008FB78983F8948981F601908190FF03C0DB
:1023C0008FBF512C60C0F6019081916090838FBFC8
:1023D00081829282A382B48215821682078310873B
:1023E000611006C091E0A114B10419F090E001C0A1
:1023F00091E0F601808190FB81F98B7F80835520ED
:1024000061F0F701EE0FFF1FEE0FFF1FEE0FFF1F32
:10241000EC51FD4D128A138A2EC0F701EE0FFF1FFB
:10242000EE0FFF1FEE0FFF1FEC51FD4D8585807CE9
:10243000803CA1F4C701880F991F880F991F880F4E
:10244000991F80519D4D97DBBC01C501F1D3892BAC
:1024500029F0F60180818E7F808315C0F701EE0F91
:10246000FF1FEE0FFF1FEE0FFF1FEC51FD4D1686F5
:102470001786128A138A872D33DC5524539403C0A0
:10248000512C01C0512C852D0F90DF91CF911F91C0
:102490000F91FF90EF90DF90CF90BF90AF909F9003
:1024A0008F907F906F905F900895FF920F931F938E
:1024B000CF93DF93182FF82EFF1CFF24FF1CC82F8B
:1024C000CF70D0E0CC0FDD1FCF0DD11D7DDBDC0147
:1024D000FE01EE0FFF1FEE0FFF1FEE0FFF1FE0517B
:1024E000FD4D02E005938C9180FF22C08E7F8C937E
:1024F0001796ED91FC9118973097D1F0FF2059F085
:10250000CC0FDD1FCC0FDD1FCC0FDD1FCC51DD4DFF
:102510006A897B890AC0CC0FDD1FCC0FDD1FCC0F71
:10252000DD1FCC51DD4D6E857F85412F81E01995F2
:10253000DF91CF911F910F91FF900895CF93C82FF6
:10254000B4DFEC2FEF70F0E0EE0FFF1F8C2FCC0FFD
:10255000990B8827990F881F9927E80FF91FEE0F0D
:10256000FF1FEE0FFF1FEE0FFF1FEC51FD4D1586F5
:10257000CF910895E82FEF70F0E0EE0FFF1F282FA6
:10258000082E000C330B2227330F221F3327E20FB4
:10259000F31FEE0FFF1FEE0FFF1FEE0FFF1FEC519B
:1025A000FD4D95859460958780DF81E008951F92A9
:1025B0000F920FB60F9211240BB60F920F932F9319
:1025C0003F934F935F936F937F938F939F93AF93BB
:1025D000BF93EF93FF938091CB0488233CF480E872
:1025E0008093CA040E948B0703D288C08091CB04D9
:1025F00082FF20C084E08093CA048091F82286FF85
:102600007DC08091CC0481FD79C0F9DA811176C05A
:102610008091E122813011F42CDA70C0843009F00D
:102620006DC0E9EFF2E204E00593E1EFF2E204E0CD
:10263000059364C08091CB0481FF5BC082E08093EE
:10264000CA048091F02286FF59C08091CC0481FD9C
:1026500055C0D5DA811152C08091E122823041F417
:1026600084E08093E122E0EFF2E202E0069346C0CC
:10267000833009F043C0E9EFF2E204E00593E1EFB3
:10268000F2E204E005933AC080E18093CA0481E05D
:102690000CDF81E80ADF82E008DF82E806DF0E94C3
:1026A00064071092C304E4EEF2E2158696E0948784
:1026B00083E48587158A948B858B8DE992E2808BE4
:1026C000918BA4D91BC08091CB0486FF07C080E406
:1026D0008093CA0480E062D989D110C08091CB0474
:1026E00085FF0CC080E28093CA0481E057D97FD176
:1026F00005C08091CB0484FDC7CFE5CFFF91EF915A
:10270000BF91AF919F918F917F916F915F914F9109
:102710003F912F910F910F900BBE0F900FBE0F9016
:102720001F9018951F920F920FB60F9211240BB69F
:102730000F920F931F932F933F934F935F936F933A
:102740007F938F939F93AF93BF93CF93DF93EF9339
:10275000FF938091CC0481FD03C051DA8111C3C085
:1027600082E08093CC048091C5048195880FE0EFCE
:10277000F2E2E81BF10920813181205F3242369577
:1027800027953695279536952795822F869520FD96
:1027900002C090E001C090E8890FE82FEF70F0E0F0
:1027A000EE0FFF1F282F082E000C330B2227330FAC
:1027B000221F3327E20FF31FDF01AA0FBB1FAA0F4F
:1027C000BB1FAA0FBB1FAC51BD4D1C969C9195FF22
:1027D0008AC0EE0FFF1FEE0FFF1FEE0FFF1FE0512D
:1027E000FD4D00E20693811179C08091E122843091
:1027F00019F44DD90BD977C00091F2221091F32230
:1028000080919A2390919B23C091DD22D091DE226A
:102810009E01200F311F8217930718F48C010C1BA7
:102820001D0B8091982390919923A8016DE972E284
:102830008C0F9D1F3BD2C00FD11FC093DD22D093C0
:10284000DE220034110569F48091DF229091E022AC
:102850008C0F9D1F20919623309197238217930709
:1028600080F0E0E9F3E2C287D3870684F785E02DA4
:10287000309729F01995811102C0EDD834C0F9D8EC
:1028800032C080919A2390919B23C817D907F9F4FD
:10289000E0919E23F0919F23309711F4DCD823C060
:1028A0001995811102C0D7D81EC02091DF22309126
:1028B000E0228091DD229091DE22820F931F80938F
:1028C000DF229093E0221092DD221092DE22E0EFD0
:1028D000F2E202E0069300E2069305C0803811F4AC
:1028E000DED801C0FDD9FF91EF91DF91CF91BF916B
:1028F000AF919F918F917F916F915F914F913F9198
:102900002F911F910F910F900BBE0F900FBE0F9044
:102910001F9018951092A70A8CE08093A60A109237
:10292000A30A83E08093A50A88E18093A40A08950E
:10293000E1EAFAE0908195FFFDCF8093A00A089527
:102940000F931F93CF93DF9305E213E2C0E0D0E033
:1029500080EA9AE00E94810A8A3021F4CA35D105C2
:1029600034F00FC02196F80181938F01F1CFFE0161
:10297000EB5DFC4D2FE733E280E28193E217F30732
:10298000E1F7DF91CF911F910F9108950E944E01C1
:1029900087E08093A20078940E943F0A0E9461071A
:1029A00088E0809385068093810684E08093860684
:1029B00080938206AFDF66EB70E280EA9AE00E94C5
:1029C000A00B0E941A058823E1F30E9471058093F1
:1029D000BD20AEDFB5DF0E94AB058823E1F364E6DE
:1029E00070E085E293E20E947506EBCF08950895AA
:1029F00080918923882319F0A8DB0C944101089564
:102A000091E09093892379D081E0089510928923F1
:102A100085C00895662319F00C94270108950C943D
:102A20002B010895FF920F931F93CF93DF938B0198
:102A3000FB018481823021F46894FF24F3F801C003
:102A4000F12CF8018581813031F0823039F4FF2D8D
:102A5000F062FF2E03C08F2D8063F82EF80186816F
:102A6000863049F018F48530A9F00DC0873039F070
:102A7000893069F008C0FF2DF160FF2E0BC08F2D4B
:102A80008260F82E07C0EF2DE360FE2E03C0FF2DFD
:102A9000F760FF2E60E183E00E94C901C0EAD8E040
:102AA000FD82F80180819181A281B381880F991FF5
:102AB000AA1FBB1F880F991FAA1FBB1F9C01AD0136
:102AC000220F331F441F551F60E07CE68CED92E01F
:102AD000C3D0DA01C9010196A11DB11DB695A79514
:102AE000979587959C01215031092E833F83DF9173
:102AF000CF911F910F91FF90089560E183E00E94B4
:102B0000C901E0E4F6E088E0818384E08283E0EAC2
:102B1000F8E08CE1848380E38383089560E183E0BF
:102B20000E94DF01E0EAF8E01382148208958091A8
:102B3000A308882319F083E38093A30808951F92C4
:102B40000F920FB60F9211240BB60F922F933F9353
:102B50004F935F936F937F938F939F93AF93BF93A5
:102B6000CF93EF93FF930E9437018091A108887162
:102B700021F00E9436040E943F01C091A0080E94EB
:102B8000AB05811105C00E943C040E94400104C0B5
:102B90008C2F90E00E94FD050E943B01FF91EF9178
:102BA000CF91BF91AF919F918F917F916F915F91E5
:102BB0004F913F912F910F900BBE0F900FBE0F9032
:102BC0001F9018951F920F920FB60F9211240BB6FB
:102BD0000F922F933F934F935F936F937F938F93B6
:102BE0009F93AF93BF93EF93FF930E941A0588239F
:102BF00039F00E942F010E9471058093A00805C042
:102C000080E38093A3080E943301FF91EF91BF916D
:102C1000AF919F918F917F916F915F914F913F9174
:102C20002F910F900BBE0F900FBE0F901F90189515
:102C3000AA1BBB1B51E107C0AA1FBB1FA617B707E2
:102C400010F0A61BB70B881F991F5A95A9F78095FE
:102C50009095BC01CD010895A1E21A2EAA1BBB1BC1
:102C6000FD010DC0AA1FBB1FEE1FFF1FA217B30758
:102C7000E407F50720F0A21BB30BE40BF50B661F6E
:102C8000771F881F991F1A9469F760957095809532
:102C900090959B01AC01BD01CF010895EE0FFF1F80
:102CA000881F8BBF0790F691E02D1994FB01DC0182
:102CB00002C001900D9241505040D8F70895F89409
:022CC000FFCF44
:102CC200B804D90368026A026E0372026202E50363
:102CD2006A02000066201A20000022201E200A201C
:102CE200002009024300020100C032090400000171
:102CF2000202010005240010010424020205240638
:102D020000010524010301070582034000100904A4
:102D12000100020A000000070581024000000705C9
:102D22000202400000001201000202000040EB0318
:102D32000424000101020001000300000000000061
:102D42000000000000000000000000000000000081
:102D520000000000000000004344432056697274E2
:102D620075616C20436F6D0041544D454C204153B9
:0E2D7200460004030904802500000300003021
:00000001FF
