S02000005072616B74696B756D5F355F54656D706C6174655F365F322E73726563F7
S113000050C200006FC200006DC200006BC200004D
S113001069C2000067C2000065C2000063C200003C
S113002061C200005FC200005DC200005BC200004C
S113003059C2000057C200000C94980F53C200002C
S113004051C200004FC200004DC200004BC200006C
S113005049C2000047C2000045C2000043C200007C
S113006041C200003FC200003DC200003BC200008C
S113007039C2000037C2000035C2000033C200009C
S113008031C200002FC200002DC200002BC20000AC
S113009029C2000027C2000025C20000D6C7000004
S11300A00C9457080C9489080C94BB081BC20000DC
S11300B019C2000017C2000015C2000013C20000DC
S11300C011C200000FC200000DC200000BC20000EC
S11300D009C2000007C2000005C2000003C20000FC
S11300E001C20000FFC10000FDC10000FBC100000F
S11300F0F9C10000F7C10000F5C10000F3C1000020
S1130100F1C10000EFC10000EDC10000EBC100002F
S1130110E9C10000E7C10000E5C10000CEC600004F
S1130120FEC600002EC700005EC70000DBC1000051
S1130130D9C10000D7C10000D5C10000D3C100005F
S1130140D1C10000CFC10000CDC10000CBC100006F
S1130150C9C10000C7C10000C5C10000C3C100007F
S1130160C1C10000BFC10000BDC10000BBC100008F
S1130170B9C10000B7C10000B5C10000B3C100009F
S1130180B1C10000AFC10000ADC10000ABC10000AF
S1130190A9C10000A7C10000A5C10000A3C10000BF
S11301A0A1C100009FC100009DC100009BC10000CF
S11301B099C1000097C1000095C1000093C10000DF
S11301C091C100008FC100008DC100008BC10000EF
S11301D089C1000087C1000085C1000083C10000FF
S11301E081C100007FC100007DC100007BC100000F
S11301F079C1000077C1000075C10000B418B418BB
S1130200B418EA18DA18E718B418B418EA18DA189F
S1130210000000000000002020202020002050507A
S113022050000000005050F850F850502078A07052
S113023028F020C0C810204098186090A040A890D2
S11302406860204000000000102040404020104022
S1130250201010102040005020F8205000002020D2
S1130260F820200000000000602040000000F8009A
S113027000000000000000606000081020408000C2
S1130280708898A8C888702060202020207070880A
S113029008102040F8F81020100888701030509092
S11302A0F81010F880F008088870304080F08888D2
S11302B070F80810204040407088887088887070FA
S11302C088887808106000606000606000006060EA
S11302D000602040081020402010080000F800F8BA
S11302E000008040201020408070880810200020EA
S11302F070880868A8A87070888888F88888F0884A
S113030088F08888F070888080808870E090888881
S11303108890E0F88080F08080F8F88080E0808029
S11303208070888080988870888888F88888887029
S1130330202020202070381010101090608890A089
S1130340C0A09088808080808080F888D8A8888821
S113035088888888C8A898888870888888888870D9
S1130360F08888F080808070888888A89068F088F9
S113037088F0A09088788080700808F0F820202009
S11303802020208888888888887088888888885071
S113039020888888A8A8D888888850205088888889
S11303A0885020202020F80810204080F838202091
S11303B02020203800804020100800E02020202049
S11303C020E020508800000000000000000000F839
S11303D040201000000000000070087888788080B9
S11303E0B0C88888F0000070808088700808689819
S11303F088887800007088F88070304840E0404079
S113040040000078887808308080B0C888888820C8
S11304100060202020701000301010906040404890
S113042050605048602020202020700000D0A8A8F0
S113043088880000B0C88888880000708888887020
S11304400000F088F08080000068987808080000B8
S1130450B0C8808080000070807008F04040E040A8
S11304604048300000888888986800008888885050
S11304702000008888A8A8500000885020508800D8
S11304800088887808700000F8102040F8102020B8
S11304904020201020202020202020402020102038
S11304A0204011241FBECFEFCDBFDFE5DEBF00E04B
S11304B00CBF10E2A0E0B0E2EAE5F0E400E00BBF1C
S11304C002C007900D92A436B107D9F723E2A4E63F
S11304D0B0E201C01D92A33CB207E1F70E944D1B9C
S11304E00C942B208DCDBF92CF92DF92EF92FF928E
S11304F00F931F93CF93DF931F92CDB7DEB7E0E046
S1130500F6E088E0868385830F2EFBE2BF2EF02D74
S1130510B98280EA99E009D4C12CD12C760100E497
S113052012E42FE030E043E0BE016F5F7F4F80EACA
S113053099E02AD400E616E0FF24F394F801F68249
S1130540B982BE016F5F7F4F80EA99E037D4F8012A
S1130550F682E0EAF9E0818185FFFDCF80EA8093AD
S1130560A009E0EAF9E0818186FFFDCFE0EAF9E045
S113057080E481838081BE016F5F7F4F80EA99E0D0
S113058033D48BE28983BE016F5F7F4F80EA99E0A9
S113059015D481E080936606E0EAF9E0818185FF65
S11305A0FDCF86EA8093A009E0EAF9E0818186FF25
S11305B0FDCFE0EAF9E080E481838081BE016F5FD2
S11305C07F4F80EA99E010D48BE28983BE016F5F8C
S11305D07F4F80EA99E0F2D381E080936606E0EAF7
S11305E0F9E0818185FFFDCF88EC8093A009E0EAE2
S11305F0F9E0818186FFFDCFE0EAF9E080E48183C0
S11306008081BE016F5F7F4F80EA99E0EDD38BE27A
S11306108983BE016F5F7F4F80EA99E0CFD381E089
S113062080936606E0EAF9E0818185FFFDCF82EAE6
S11306308093A009E0EAF9E0818186FFFDCFE0EA3A
S1130640F9E080E481838081BE016F5F7F4F80EA9F
S113065099E0CAD38BE28983BE016F5F7F4F80EA42
S113066099E0ACD381E080936606E0EAF9E0818109
S113067085FFFDCF8FE28093A009E0EAF9E0818154
S113068086FFFDCFE0EAF9E080E481838081BE014A
S11306906F5F7F4F80EA99E0A7D38BE28983BE0125
S11306A06F5F7F4F80EA99E089D381E0809366068B
S11306B0E0EAF9E0818185FFFDCF88EF8093A0090E
S11306C0E0EAF9E0818186FFFDCFE0EAF9E080E429
S11306D081838081BE016F5F7F4F80EA99E084D37C
S11306E08BE28983BE016F5F7F4F80EA99E066D316
S11306F081E080936606E0EAF9E0818185FFFDCF21
S11307001092A009E0EAF9E0818186FFFDCFE0EADA
S1130710F9E080E481838081BE016F5F7F4F80EACE
S113072099E062D38BE28983BE016F5F7F4F80EAD9
S113073099E044D381E080936606E0EAF9E08181A0
S113074085FFFDCF81E28093A009E0EAF9E0818191
S113075086FFFDCFE0EAF9E080E481838081BE0179
S11307606F5F7F4F80EA99E03FD38BE28983BE01BC
S11307706F5F7F4F80EA99E021D381E08093660622
S1130780E0EAF9E0818185FFFDCF81E88093A0094B
S1130790E0EAF9E0818186FFFDCFE0EAF9E080E458
S11307A081838081BE016F5F7F4F80EA99E01CD313
S11307B08BE28983BE016F5F7F4F80EA99E0FED2AE
S11307C081E080936606E0EAF9E0818185FFFDCF50
S11307D081E28093A009E0EAF9E0818186FFFDCF00
S11307E0E0EAF9E080E481838081BE016F5F7F4F9E
S11307F080EA99E0F9D28BE28983BE016F5F7F4F73
S113080080EA99E0DBD281E080936606E0EAF9E0D1
S1130810818185FFFDCF8FEA8093A009E0EAF9E0AA
S1130820818186FFFDCFE0EAF9E080E48183808165
S1130830BE016F5F7F4F80EA99E0D6D20F90DF91BF
S1130840CF911F910F91FF90EF90DF90CF90BF90C9
S113085008959FB7F894E82FF0E0E059FF4F6095B2
S11308608081682360839FBF08959FB7F894E82F21
S1130870F0E0E059FF4F8081682B60839FBF0895AB
S1130880FF920F931F93CF93DF931F92CDB7DEB7E1
S1130890082FF62E142F22D10F70006B8BE2898360
S11308A0BE016F5F7F4F80EA99E088D281E0809338
S11308B06606E0EAF9E0918195FFFDCF0093A00977
S11308C0E0EAF9E0818186FFFDCFE0EAF9E080E427
S11308D081838081BE016F5F7F4F80EA99E084D27B
S11308E00F2D0F7702950F7000618BE28983BE0193
S11308F06F5F7F4F80EA99E061D281E08093660662
S1130900E0EAF9E0818185FFFDCF0093A009E0EAE8
S1130910F9E0818186FFFDCFE0EAF9E080E481839C
S11309208081BE016F5F7F4F80EA99E05DD20F2D19
S11309300F708BE28983BE016F5F7F4F80EA99E07D
S11309403DD281E080936606E0EAF9E0818185FF8B
S1130950FDCF0093A009E0EAF9E0818186FFFDCF95
S1130960E0EAF9E080E481838081BE016F5F7F4F1C
S113097080EA99E039D28BE28983BE016F5F7F4FB1
S113098080EA99E01BD281E080936506E0EAF9E011
S1130990818185FFFDCF1093A009E0EAF9E0818110
S11309A086FFFDCFE0EAF9E080E48183808181E085
S11309B080936606BE016F5F7F4F80EA99E014D290
S11309C00F90DF91CF911F910F91FF9008950F9396
S11309D01F93CF93DF931F92CDB7DEB784E690E2E7
S11309E078D081DD8BE28983BE016F5F7F4F80EA1F
S11309F099E0E4D181E080936606E0EAF9E0818140
S1130A0085FFFDCF80E48093A009E0EAF9E08181CD
S1130A1086FFFDCFE0EAF9E080E481838081BE01B6
S1130A206F5F7F4F80EA99E0DFD100E00AC040E0C9
S1130A30612F802F25DF1F5F1038C9F70F5F043047
S1130A4011F010E0F4CF0F90DF91CF911F910F912F
S1130A500895FF920F931F93CF93DF9388238CF114
S1130A60603278F5D42FC82FF62EF694F694F694C7
S1130A702F2D30E0319521953109220F331F220F9C
S1130A80331F220F331F260F311D61E070E08B01ED
S1130A9002C0000F111F2A95E2F7682F8F2D2CD06A
S1130AA0D13021F028F0D23039F007C0802B05C0B6
S1130AB0602F6095862301C08027482F6C2F8F2DCF
S1130AC0DFDEDF91CF911F910F91FF90089514C045
S1130AD008958093642290936522089520E8829F6C
S1130AE0C0011124860F911DE0916422F0916522CA
S1130AF0E80FF91F4083089520E8829FC001112464
S1130B00860F911DE0916422F0916522E80FF91F90
S1130B1080810895FF920F931F93CF93DF93E42F67
S1130B20F0E0E80FF11DE138F1051CF0C0E84C2FAE
S1130B30481B442309F453C0D62FD695D695D69591
S1130B40ED2FF0E0F195E195F109EE0FFF1FEE0FA7
S1130B50FF1FEE0FFF1FDF01A60FB11DBD01E1E076
S1130B60F0E0DF0102C0AA0FBB1F6A95E2F7FA2E7C
S1130B70213021F098F0223019F131C0C42F1FEF39
S1130B80180F012F0C0F602F8D2FA1DF482F4F2935
S1130B90602F8D2F75DEC150A1F721C0C42F1FEF28
S1130BA0180FFA2EF094012F0C0F602F8D2F8FDF6A
S1130BB0482F4F21602F8D2F63DEC150A1F70FC046
S1130BC0C42F1FEF180F012F0C0F602F8D2F7FDF05
S1130BD0482F4F25602F8D2F53DEC150A1F7DF9191
S1130BE0CF911F910F91FF900895FF920F931F9340
S1130BF0CF93DF93222369F0C22FF42E182FDFEF57
S1130C00D60F6D2F6C0F202F4F2D812F83DFC150F6
S1130C10C1F7DF91CF911F910F91FF900895AF928B
S1130C20BF92CF92DF92EF92FF920F931F93CF93D5
S1130C30DF93C82FE62EB42E690100E0F901248168
S1130C4043816B2D8E2DD1DFF6018081811139C056
S1130C508381282F269526952695877009F02F5F86
S1130C60F601A4802A9D900111248C2F90E04581E7
S1130C70841B9109289FA001299F500D389F500D76
S1130C80112401811281040F151FF601F380FF2046
S1130C90A1F0D0E0C0E08C2F8E0D9C2F977021F432
S1130CA0F801D4910F5F1F4FDD231CF441E06B2D3D
S1130CB0D0DEDD0FCF5FCF11EECFB394AA94A11095
S1130CC0E4CFDF91CF911F910F91FF90EF90DF90D0
S1130CD0CF90BF90AF900895DF92EF92FF920F9361
S1130CE01F93CF93DF93042F7901EC01162FD62E97
S1130CF089918A3031F4F70184818F5F080F1D2DAB
S1130D0009C08D3039F09701402F612F88DFF7013A
S1130D108381180F88818111EBCFDF91CF911F91CF
S1130D200F91FF90EF90DF900895803A28E09207AA
S1130D3021F460E183E08DCD0895803B28E09207A3
S1130D4021F460E283E085CD0895803A29E092079A
S1130D5021F460E184E07DCD0895803B29E0920791
S1130D6021F460E284E075CD0895803A2AE0920788
S1130D7021F460E185E06DCD0895803A9B4019F43B
S1130D8060E186E066CD08950F931F93CF93DF93C0
S1130D9000D000D0CDB7DEB709831A832B833C8300
S1130DA04D831E82BE016F5F7F4F6AD52696CDBFED
S1130DB0DEBFDF91CF911F910F910895FB018081D8
S1130DC0E82FE695E695E69540E2E49FF0011124CC
S1130DD0FA5F877021E030E0A90102C0440F551F7B
S1130DE08A95E2F746830895FB018081E82FE69512
S1130DF0E695E69540E2E49FF0011124FA5F8770DE
S1130E0021E030E0A90102C0440F551F8A95E2F7A2
S1130E1045830895811522E0920761F48091672249
S1130E2091E0980F90936722811112C062E081E0F3
S1130E3010CD08958034924059F48091662291E057
S1130E40980F90936622811103C062E082E001CD85
S1130E500895811522E0920759F480916722815008
S1130E6080936722811111C062E081E0FECC089575
S1130E708034924051F4809166228150809366229E
S1130E80811103C062E082E0F0CC08951F93CF93F8
S1130E90DF93EC011FB7F894BDDF888181608883FC
S1130EA01FBF9FB7F894E5EBF3E281818F5F8183E5
S1130EB09FBFDF91CF911F9108951F920F920FB69C
S1130EC00F9211240BB60F922F933F934F935F937E
S1130ED06F937F938F939F93AF93BF93EF93FF93FE
S1130EE04091240250912502E091BD23F091BE234C
S1130EF061E080E092E01995FF91EF91BF91AF918D
S1130F009F918F917F916F915F914F913F912F911D
S1130F100F900BBE0F900FBE0F901F9018951F924D
S1130F200F920FB60F9211240BB60F922F933F938B
S1130F304F935F936F937F938F939F93AF93BF93DD
S1130F40EF93FF9340912C0250912D02E091BD2329
S1130F50F091BE2362E080E092E01995FF91EF9159
S1130F60BF91AF919F918F917F916F915F914F91BD
S1130F703F912F910F900BBE0F900FBE0F901F90BB
S1130F8018951F920F920FB60F9211240BB60F9261
S1130F902F933F934F935F936F937F938F939F937D
S1130FA0AF93BF93EF93FF93409134025091350276
S1130FB0E091BD23F091BE2364E080E092E01995B6
S1130FC0FF91EF91BF91AF919F918F917F916F911D
S1130FD05F914F913F912F910F900BBE0F900FBED9
S1130FE00F901F9018951F920F920FB60F92112415
S1130FF00BB60F922F933F934F935F936F937F930F
S11310008F939F93AF93BF93EF93FF9340913C02D1
S113101050913D02E091BD23F091BE2368E080E051
S113102092E01995FF91EF91BF91AF919F918F91AC
S11310307F916F915F914F913F912F910F900BBED4
S11310400F900FBE0F901F9018951F920F920FB61E
S11310500F9211240BB60F922F933F934F935F93EC
S11310606F937F938F939F93AF93BF93EF93FF936C
S11310704091640250916502E091BB23F091BC233E
S113108061E080E492E01995FF91EF91BF91AF91F7
S11310909F918F917F916F915F914F913F912F918C
S11310A00F900BBE0F900FBE0F901F9018951F92BC
S11310B00F920FB60F9211240BB60F922F933F93FA
S11310C04F935F936F937F938F939F93AF93BF934C
S11310D0EF93FF9340916C0250916D02E091BB231A
S11310E0F091BC2362E080E492E01995FF91EF91C6
S11310F0BF91AF919F918F917F916F915F914F912C
S11311003F912F910F900BBE0F900FBE0F901F9029
S113111018951F920F920FB60F9211240BB60F92CF
S11311202F933F934F935F936F937F938F939F93EB
S1131130AF93BF93EF93FF93409174025091750264
S1131140E091BB23F091BC2364E080E492E0199524
S1131150FF91EF91BF91AF919F918F917F916F918B
S11311605F914F913F912F910F900BBE0F900FBE47
S11311700F901F9018951F920F920FB60F92112483
S11311800BB60F922F933F934F935F936F937F937D
S11311908F939F93AF93BF93EF93FF9340917C0200
S11311A050917D02E091BB23F091BC2368E080E480
S11311B092E01995FF91EF91BF91AF919F918F911B
S11311C07F916F915F914F913F912F910F900BBE43
S11311D00F900FBE0F901F901895DF92EF92FF9221
S11311E00F931F93CF93DF93EC018B01C11522E082
S11311F0D20771F461E270E082E0D4D0E82EF12CE1
S113120060E270E082E0CED0FE2CEE24E82A10C02A
S11312108034924051F565E270E082E0C3D0E82E5C
S1131220F12C64E270E082E0BDD0FE2CEE24E82ACA
S1131230DFB6F894CE01EEDD888192E09883EC86E7
S1131240FD86F80125813681288F398F92819A8312
S113125094819C8393819B839181998381709081F4
S1131260892B8883CE01F5DDDFBEDF91CF911F91FD
S11312700F91FF90EF90DF900895FF920F931F93CB
S1131280CF93DF93EC018B01FFB6F894C3DD888123
S1131290807CF8018083888D998D858396838A81EB
S11312A082838C8184838B81838389818183CE0132
S11312B0D0DDFFBEDF91CF911F910F91FF90089574
S11312C0CF92DF92EF92FF920F931F93CF93DF930E
S11312D07C01D62E8A01862F837029F4962F969549
S11312E0969582E002C0962F80E090FF8F5FE70121
S11312F0A09698E0899FC00DD11D1124CFB6F89413
S1131300C70188DDF8018081888382818A83818195
S11313108983D0FE02C083818E83C7019ADDCFBE4C
S1131320DF91CF911F910F91FF90EF90DF90CF90BD
S11313300895CF92DF92EF92FF920F931F93CF9372
S1131340DF937C01D62E8A01862F837029F4962F91
S11313509695969582E002C0962F80E090FF8F5F6D
S1131360E701A09698E0899FC00DD11D1124CFB646
S1131370F894C7014FDD8881F80180838A818283D4
S113138089818183D0FE02C08E818383C70161DDA0
S1131390CFBEDF91CF911F910F91FF90EF90DF901F
S11313A0CF9008954091CA01E62FF72F8093CA0188
S11313B084914093CA010895FC01918195FFFDCF6A
S11313C0608380E090E008952F923F924F925F9265
S11313D06F927F928F929F92AF92BF92CF92DF9241
S11313E0EF92FF920F931F93CF931C012A013B01AD
S11313F048015901D901C801689412F8B695A79516
S1131400979587951694D1F7B901A801032E36E173
S113141076956795579547953A95D1F7302DF10113
S1131420248122FD08C0B695A79597958795769552
S113143067955795479584159505A605B70508F44E
S1131440AEC0441655066606770608F4AAC0F10134
S1131450848182FD04C0440C551C661C771CC501A4
S1131460B401A30192010E94011C2F3F31054105E3
S1131470510508F498C0C12CD12C7601CA94C9EF47
S113148005C02C153D054E055F0568F0CC0CDD1C30
S1131490EE1CFF1CCD3F14F46894C0F8CF5FC73036
S11314A081F78C2F56C08C2FCC230CF052C0D30163
S11314B0C201880F991FAA1FBB1F880F991FAA1F5B
S11314C0BB1F880F991FAA1FBB1F85017401E81A4F
S11314D0F90A0A0B1B0BD801C701CE3FF4F42DEF18
S11314E03FEF2C1B3109C7FD339504C0880F991FAA
S11314F0AA1FBB1F2A95D2F773016201F694E794E1
S1131500D794C794BC01CD016C0D7D1D8E1D9F1D0C
S1131510A30192010E94011C38C023E02C0F830117
S1131520720104C0EE0CFF1C001F111F2A95D2F794
S1131530A801970167017801F694E794D794C794BA
S1131540BC01CD016C0D7D1D8E1D9F1D0E94011CD3
S11315501CC08D5FA301920104C0220F331F441FDE
S1131560551F8A95D2F7DA01C901B695A7959795C3
S11315708795BC01CD01680D791D8A1D9B1D0E94B4
S1131580011C2150310941095109832F8F70C295E3
S1131590C07FC82BF101C783268381E01CC080E093
S11315A01AC080E018C0D301C201880F991FAA1F76
S11315B0BB1F880F991FAA1FBB1F880F991FAA1F43
S11315C0BB1F85017401E81AF90A0A0B1B0BD80129
S11315D0C701C9EF84CFCF911F910F91FF90EF9076
S11315E0DF90CF90BF90AF909F908F907F906F903F
S11315F05F904F903F902F9008950F931F93CF9338
S1131600DF93EC018B01009709F4E6C0803C91055F
S113161021F460E180E01DD9DFC0C03881E0D80743
S113162021F462E080E015D9D7C0C115E1E0DE07FE
S113163021F461E080E00DD9CFC0C038F3E0DF07CA
S113164021F461E081E005D9C7C0C03983E0D8073F
S113165021F461E082E0FDD8BFC0C115E2E0DE07FD
S113166021F462E081E0F5D8B7C0C034F2E0DF07CE
S113167021F462E082E0EDD8AFC0C03283E0D80745
S113168021F464E082E0E5D8A7C0C115E8E0DE07F4
S113169021F461E083E0DDD89FC0C115F9E0DF07E4
S11316A021F461E084E0D5D897C0C1158AE0D80759
S11316B021F461E085E0CDD88FC0C115EBE0DE07F1
S11316C021F461E086E0C5D887C0C034F8E0DF07C4
S11316D021F462E083E0BDD87FC0C03489E0D8073C
S11316E021F462E084E0B5D877C0C034EAE0DE07D4
S11316F021F462E085E0ADD86FC0C039F8E0DF07BF
S113170021F464E083E0A5D867C0C03989E0D80734
S113171021F464E084E09DD85FC0C039EAE0DE07CC
S113172021F464E085E095D857C0C039FBE0DF07B9
S113173021F464E086E08DD84FC0C03C88E0D8072F
S113174021F468E083E085D847C0C03CE9E0DE07C7
S113175021F468E084E07DD83FC0C03AF8E0DF07B8
S113176021F460E183E075D837C0C03A89E0D80736
S113177021F460E184E06DD82FC0C03AEAE0DE07CE
S113178021F460E185E065D827C0C03AFBE0DF07BB
S113179021F460E186E05DD81FC0C03B88E0D80733
S11317A021F460E283E055D817C0C03BE9E0DE07CE
S11317B021F460E284E04DD80FC0C038F4E0DF07C4
S11317C021F460E483E045D807C0C03A84E0D80738
S11317D019F460E485E03DD88D818F738D83F80121
S11317E094818581892B9681911198E0892B8D8331
S11317F0F801408151816281738100E814E82EE18F
S113180030E0CE01E1DD9C8198609C839C819061F5
S11318109C83DF91CF911F910F910895CF92DF9216
S1131820EF92FF920F931F93CF93DF93EC01D901B3
S1131830C801B695A79597958795481759076A07DC
S11318407B0778F46A017B01CC0CDD1CEE1CFF1CC9
S1131850C901B801A70196010E94011C2150310958
S113186002C020E030E0832F8F708F832E83DF91BE
S1131870CF911F910F91FF90EF90DF90CF9008953B
S1131880EF92FF920F931F93CF93DF93EC017B01B1
S1131890009709F498C1803C910529F460E180E047
S11318A00E94290490C18038914029F462E080E0CC
S11318B00E94290488C1C11581E0D80729F461E098
S11318C080E00E9429047FC1C038E3E0DE0729F4E8
S11318D061E081E00E94290476C1C039F3E0DF07AA
S11318E029F461E082E00E9429046DC1C11532E04F
S11318F0D30729F462E081E00E94290464C1C03462
S113190082E0D80729F462E082E00E9429045BC1E6
S1131910C032E3E0DE0729F464E082E00E94290497
S113192052C1C115F8E0DF0729F461E083E00E94A9
S1131930290449C1C11539E0D30729F461E084E0E1
S11319400E94290440C1C1158AE0D80729F461E046
S113195085E00E94290437C1C115EBE0DE0729F4B4
S113196061E086E00E9429042EC1C034F8E0DF075C
S113197029F462E083E00E94290425C1C03439E0DF
S1131980D30729F462E084E00E9429041CC1C03416
S11319908AE0D80729F462E085E00E94290413C193
S11319A0C039E8E0DE0729F464E083E00E942904FA
S11319B00AC1C039F9E0DF0729F464E084E00E9439
S11319C0290401C1C0393AE0D30729F464E085E071
S11319D00E942904F8C0C0398BE0D80729F464E0D8
S11319E086E00E942904EFC0C03CE8E0DE0729F449
S11319F068E083E00E942904E6C0C03CF9E0DF0708
S1131A0029F468E084E00E942904DDC0C03A38E08B
S1131A10D30769F460E183E00E942904E0EAF8E076
S1131A2084818F7E8483F701248122504AC0C03A86
S1131A30F9E0DF0729F460E184E00E942904C3C0CF
S1131A40C03A3AE0D30729F460E185E00E94290412
S1131A50BAC0C03A8BE0D80729F460E186E00E945E
S1131A602904B1C0C03BE8E0DE0729F460E283E06A
S1131A700E942904A8C0C03BF9E0DF0729F460E212
S1131A8084E00E9429049FC0C03834E0D30729F4BD
S1131A9060E483E00E94290496C0C03A84E0D80739
S1131AA029F460E485E00E9429048DC08C818F7E36
S1131AB08C83FB0124812250CE01C03AF8E0DF0779
S1131AC031F480914E0684FD86C011E185C0803BCF
S1131AD038E0930779F0803AE9E09E0731F43091D9
S1131AE06E0634FD7CC019E110C0803BF9E09F070D
S1131AF0A9F001C015E1803A3AE0930731F48091EE
S1131B008E0684FD6EC011E20CC0803A9B4049F4FD
S1131B108091AE0684FD04C019E203C01DE101C03A
S1131B201DE2E12FE695E695E69530E2E39FF001AC
S1131B301124FA5F177081E090E0012E02C0880F33
S1131B40991F0A94E2F78183223010F040E001C02B
S1131B5040E4DF015096A10FB11D3FB7F8942C91DA
S1131B6027702C939C91942B9C933FBF85838D81EC
S1131B70806C8D83F70184818D7F813021F48D8188
S1131B8082608D8303C08D818D7F8D83F701858174
S1131B90882321F08D8184608D8303C08D818B7FA8
S1131BA08D83F701408151816281738100E814E8DB
S1131BB02EE130E0CE0132DE8C8188608C838C8112
S1131BC080618C8310C08C818F7E8C83F70124818B
S1131BD02250CE017CCF15E180EA98E086CF1DE14A
S1131BE094CF15E29ECFDF91CF911F910F91FF907B
S1131BF0EF900895FC010396818392832FEF3FEFCA
S1131C002383348385839683878390871082089502
S1131C10FC01108611860895CF93DF939C01FB018C
S1131C20DC011196CD91DC911297C283D3838C8110
S1131C309D81848395838C819D81DC0112966D93B3
S1131C407C9313976C837D8320873187F90180818E
S1131C508F5F8083DF91CF910895CF93DF93EB0162
S1131C60488159814F3F2FEF520721F4FC01A7818E
S1131C70B0850DC0DC01139601C0DF011296ED9111
S1131C80FC9113972081318142175307B0F71296C4
S1131C90ED91FC911397EA83FB83C483D583AC83D2
S1131CA0BD831296CD93DC93139788879987FC01A3
S1131CB020812F5F2083DF91CF910895CF93DF930D
S1131CC0FC01A085B185C281D381848195818C83F7
S1131CD09D83C481D581828193818A839B8311965C
S1131CE0CD91DC911297CE17DF0731F48C819D8161
S1131CF011968D939C931297108611868C91815026
S1131D008C93DF91CF9108950F931F938B0171E111
S1131D10FC017083319762E26083319723E320836F
S1131D20012E000C220B330B319700833197108363
S1131D303197208331971082319720E8208331979F
S1131D401082319722E02083319723E0208331975A
S1131D5024E02083319725E02083319726E02083F7
S1131D60319727E02083319728E02083319729E0B9
S1131D702083319720E1208331977083319722E1CA
S1131D802083319723E12083319724E12083319705
S1131D9025E12083319726E12083319727E12083B1
S1131DA0319728E12083319729E12083319720E27C
S1131DB02083319721E2208331976083319723E296
S1131DC020833197408331975083319726E22083D3
S1131DD0319727E22083319728E22083319729E243
S1131DE02083319720E32083319721E32083879751
S1131DF01F910F910895F894E0E7F0E083818A7FC2
S1131E008383E0E0F8E080E09AEF86A397A391E073
S1131E109683A0EAB0E012968C9112978160129694
S1131E208C9390837894A091C022B091C1220D909C
S1131E300DBE0D900EBEFF91EF91DF91CF91BF913A
S1131E40AF919F918F917F916F915F914F913F914E
S1131E502F911F910F91FF90EF90DF90CF90BF9043
S1131E60AF909F908F907F906F905F904F903F9036
S1131E702F901F900F900FBE0F90089581E008954A
S1131E800F920FB6F8940F921F9211242F923F9243
S1131E904F925F926F927F928F929F92AF92BF9276
S1131EA0CF92DF92EF92FF920F931F932F933F9362
S1131EB04F935F936F937F938F939F93AF93BF934E
S1131EC0CF93DF93EF93FF93A091C022B091C122EF
S1131ED00DB60D920EB60D9210D6A091C022B091FF
S1131EE0C1220D900DBE0D900EBEFF91EF91DF91BA
S1131EF0CF91BF91AF919F918F917F916F915F919E
S1131F004F913F912F911F910F91FF90EF90DF9090
S1131F10CF90BF90AF909F908F907F906F905F9085
S1131F204F903F902F901F900F900FBE0F900895E9
S1131F300F920FB6F8940F921F9211242F923F9292
S1131F404F925F926F927F928F929F92AF92BF92C5
S1131F50CF92DF92EF92FF920F931F932F933F93B1
S1131F604F935F936F937F938F939F93AF93BF939D
S1131F70CF93DF93EF93FF93A091C022B091C1223E
S1131F800DB60D920EB60D924DD48111B6D5A09119
S1131F90C022B091C1220D900DBE0D900EBEFF91D6
S1131FA0EF91DF91CF91BF91AF919F918F917F91ED
S1131FB06F915F914F913F912F911F910F91FF90DE
S1131FC0EF90DF90CF90BF90AF909F908F907F90D5
S1131FD06F905F904F903F902F901F900F900FBE87
S1131FE00F901895CF93DF93EC010CD4CE010E948F
S1131FF02B1CEC01EAD4CE01DF91CF910895CF934D
S1132000DF93009731F0EC01FDD3CE010E94C01C98
S1132010DCD4DF91CF9108951F93CF93DF93EC012C
S1132020142F8C8D8823E9F1411117C0482F50E0FB
S11320308C819D810E94581D2C8D8C819D81820FE5
S1132040911D8C839D832A813B818217930748F1DC
S1132050888199818C839D8324C0482F50E08E8190
S11320609F810E94581D8C8D90E0919581959109D6
S11320702E813F81280F391F2E833F834881598148
S11320802417350730F42A813B81820F931F8E83F6
S11320909F83123031F48A8D882319F08A8D815000
S11320A08A8F8A8D8F5F8A8F80E0DF91CF911F9115
S11320B00895FC01448D4423A9F050E02681378122
S11320C0240F351F2683378382819381281739078C
S11320D020F08081918186839783CB01668177810B
S11320E00C94581D08950F931F93CF93DF93EC0125
S11320F00FB6F8940F928E8D1816ACF4898981115D
S113210005C011C09989911104C00DC08E010F5EE4
S11321101F4FC80196D5811116D69E8D91509E8F62
S11321209E8D19167CF38FEF8E8F0F900FBE0FB616
S1132130F8940F928D8D1816ACF48885811105C022
S113214011C09885911104C00DC08E01085F1F4F06
S1132150C80177D58111F7D59D8D91509D8F9D8DA7
S113216019167CF38FEF8D8F0F900FBEDF91CF91F7
S11321701F910F910895CF93DF93EC010FB6F8945C
S11321800F92488159812C8D30E07B8D729FC00164
S1132190739F900D1124FA01E80FF91FEA83FB8362
S11321A01A8E4C835D83821B930B840F951F8E8341
S11321B09F838FEF8D8F8E8F61110AC0888588234E
S11321C069F0CE0108963DD5813041F459DE06C050
S11321D0CE0108960FDDCE0141960CDD0F900FBEA7
S11321E081E0DF91CF9108950F931F93CF93DF93F5
S11321F0082F162F6623A9F0869FC001112480960C
S1132200F1DEEC01009721F412C0C883D98303C026
S11322104F96888399830B8F1C8F61E0CE01ABDFCF
S113222006C08FE190E0DEDEEC01892B71F7CE0170
S1132230DF91CF911F910F910895AF92BF92CF92EA
S1132240DF92EF92FF920F931F93CF93DF93CDB75B
S1132250DEB72597CDBFDEBF8C016B014C835D8358
S1132260A22EB12C7C0188E0E80EF11C0FB6F89484
S11322700F92F801328D938D391718F0F2E0AF12F6
S113228015C04A2DB601C801C7DEF801918999230A
S113229039F0C8014196D5D4813021F4F1DD02C072
S11322A08111EEDD0F900FBE81E046C0EC81FD810F
S11322B0EF2B21F40F900FBE80E03EC0B11005C09B
S11322C0CE01019604D5BB24B3940F900FBE9AD2CD
S11322D00FB6F8940F92F801858D8F3F09F4158E8F
S11322E0F801868D8F3F09F4168E0F900FBEBE0144
S11322F06C5F7F4FCE010196F5D4811119C00FB6E2
S1132300F8940F92F801928D0F900FBE838D98135D
S11323100BC06C817D81C7015DD4C801E4DE55D357
S11323208111A4CFADDDA2CFC801DDDE4ED39ECF97
S1132330C801D9DE4AD380E02596CDBFDEBFDF9148
S1132340CF911F910F91FF90EF90DF90CF90BF90AE
S1132350AF9008950F931F93CF93DF93FA01DC019D
S11323605A965C915A975B963C91531710F0223021
S1132370D9F4422F8F01EC014FDE8E8D8F3F79F41B
S11323808989882399F0CE0141965BD4882381F012
S11323900115110579F081E0F80180830CC08E8D60
S11323A08F5F8E8F81E007C080E005C081E003C0AD
S11323B081E001C081E0DF91CF911F910F910895D9
S11323C0AF92BF92CF92DF92EF92FF920F931F933F
S11323D0CF93DF93CDB7DEB72597CDBFDEBF8C019A
S11323E06B014C835D83A22EB12C7C0181E1E80E4C
S11323F0F11C0FB6F8940F92F801928D992321F1F4
S1132400E680F780B601C80154DEA1100EC0F801C1
S1132410828D8150828F8085882391F0C80108962F
S113242010D4813069F42CDD0BC0F801E682F78208
S11324308189882329F0C801419603D4811120DDC4
S11324400F900FBE81E045C04C815D81452B21F486
S11324500F900FBE80E03DC0B11005C0CE010196C3
S113246036D4BB24B3940F900FBECCD10FB6F894DE
S11324700F92F801858D8F3F09F4158EF801968D22
S11324809F3F09F4168E0F900FBEBE016C5F7F4F05
S1132490CE01019627D4811118C00FB6F8940F927B
S11324A0F801828D0F900FBE81110BC06C817D816C
S11324B0C70190D3C80117DE88D281119ACFE0DC1E
S11324C098CFC80110DE81D294CFC8010CDE7DD232
S11324D080E02596CDBFDEBFDF91CF911F910F9194
S11324E0FF90EF90DF90CF90BF90AF900895CF937F
S11324F0DF93EC010FB6F8940F928D8D8F3F09F4A2
S11325001D8E8E8D8F3F09F41E8E0F900FBE8A8D07
S1132510811103C0CE01419678D3CE01E4DDDF9171
S1132520CF910895C3E9D2E288818230F0F3A8DC28
S1132530FBCFCF93DF93EC01E091C022F091C12255
S1132540828393838091712290917222C817D90754
S113255060F46091C0227091C12280917D2290919B
S11325607E226E5F7F4F79DB16C06091C02270912E
S1132570C12280917F22909180226E5F7F4F6DDB1C
S11325808091692290916A22C817D90720F4C093D8
S11325906922D0936A22DF91CF9108954F925F927E
S11325A06F927F928F929F92AF92BF92CF92DF925F
S11325B0EF92FF920F931F93CF93DF934C01EB01A4
S11325C05A012901C114D10431F4CA010BDD6C0193
S11325D0892B09F4D2C086E290E004DD3C01009727
S11325E079F0FC01C78AD08EF1E0AF1AB108CA0CA9
S11325F0DB1C8881F301818F8881811104C013C0A1
S1132600C601FDDCBAC0D3015A96FE0131969E0183
S1132610285F3F4FEF0181918D938881882319F0C2
S1132620E217F307B9F7F30110A2102F053008F0F1
S113263014E0F301168BE3012296CE01E9DAC3011B
S11326400C96E6DAF3016086718685E090E0811BE2
S1132650910984879587628A738A11A212A213A2B0
S113266014A215A2A201B401C6014EDBF3018083BA
S11326709183E114F10419F0F701608271820FB6BD
S1132680F8940F92809173228F5F809373228091CC
S1132690C0229091C122892B91F56092C022709240
S11326A0C122809173228130C9F50F2EF3E9EF2EF8
S11326B0F2E2FF2EF02D0F2EF0ECCF2EF2E2DF2E01
S11326C0F02DC70197DAF9E0EF0EF11CEC14FD04CC
S11326D0C1F78AE892E28EDA81E892E28BDA84E743
S11326E092E288DA8AE892E280937F2290938022B1
S11326F081E892E280937D2290937E220FC08091A4
S11327006F2281110BC0E091C022F091C122868911
S1132710081720F06092C0227092C12280916B222F
S11327208F5F80936B22F3018689909170229817B2
S113273010F48093702290E09C01220F331F220F2B
S1132740331F220F331F820F931FBE018D569D4DE1
S113275063DA0F900FBE80916F22882351F0E091CD
S1132760C022F091C1228689801728F489DB81E098
S113277005C081E003C081E001C08FEFDF91CF91FC
S11327801F910F91FF90EF90DF90CF90BF90AF908B
S11327909F908F907F906F905F904F900895AF922D
S11327A0BF92CF92DF92EF92FF920F93A12CB12CA4
S11327B0C12CD12CE12CF12C00E020E030E045E5E7
S11327C050E064E170E282E992E1E8DE813091F464
S11327D023D3813079F4F8948FEF9FEF80936922AB
S11327E090936A2281E080936F221092712210925A
S11327F0722201DB0F91FF90EF90DF90CF90BF909A
S1132800AF900895809168228F5F80936822089525
S11328100FB6F8940F9280917122909172220F90CA
S11328200FBE0895DF92EF92FF920F931F93CF9301
S1132830DF93809168228111B3C0809171229091BD
S1132840722201968093712290937222E0907122F9
S1132850F0907222E114F10499F580917F22909115
S1132860802220917D2230917E2220937F223093FA
S1132870802280937D2290937E2280916C228F5FB0
S113288080936C22E0917F22F091802280818111DB
S113289007C08FEF9FEF8093692290936A2210C044
S11328A0E0917F22F09180220580F681E02D068060
S11328B0F781E02D828193818093692290936A222B
S11328C08091692290916A22E816F90610F4D12CBD
S11328D04FC0D12CE0917F22F09180229081911100
S11328E007C08FEF9FEF8093692290936A2240C0C4
S11328F0E0917F22F09180220580F681E02DC6814F
S1132900D7812A813B81E216F30628F420936922B9
S113291030936A222DC08E010E5F1F4FC801CED99D
S11329208C899D89892B19F0CE010C96C7D92E89E3
S113293080917022821710F42093702230E0C90134
S1132940880F991F880F991F880F991F820F931F53
S1132950B8018D569D4D60D9E091C022F091C122FD
S11329609E898689981708F4B5CFDD24D394B2CF15
S1132970E091C022F091C122868990E0FC01EE0F23
S1132980FF1FEE0FFF1FEE0FFF1F8E0F9F1FFC0197
S1132990ED56FD4D8081823048F0DD24D39406C08D
S11329A080916E228F5F80936E22D12C80916D2254
S11329B0882311F0DD24D3948D2DDF91CF911F91C5
S11329C00F91FF90EF90DF900895DF92EF92FF92C6
S11329D00F931F93CF93DF930FB6F8940F928091C8
S11329E068228150809368228091682281115DC0A1
S11329F080917322811130C05BC0D7011596ED918F
S1132A00FC911697C681D781CE010C9657D98E01B9
S1132A100E5F1F4FC80152D92E89809170228217F0
S1132A2010F42093702230E0C901880F991F880F99
S1132A30991F880F991F820F931FB8018D569D4DC2
S1132A40EBD8E091C022F091C1229E898689981723
S1132A5058F0D0926D2208C00F2EF4E7EF2EF2E268
S1132A60FF2EF02DDD24D394F70180818111C5CF91
S1132A7080916E22882391F080916E22882371F0D8
S1132A80C1E0D0DE8111C0936D2280916E2281500D
S1132A9080936E2280916E228111F3CF80916D22FA
S1132AA0813029F4EDD981E003C080E001C080E0E9
S1132AB00F900FBEDF91CF911F910F91FF90EF9078
S1132AC0DF900895CF93DF93EC01892B91F09ADE88
S1132AD08091712290917222C80FD91F8091C022D7
S1132AE09091C1220296EAD8CE0123DD6EDF8111D6
S1132AF001C0C6D9DF91CF910895809168228823BF
S1132B0021F081E080936D22089510926D228091CE
S1132B10702290E0FC01EE0FFF1FEE0FFF1FEE0F7F
S1132B20FF1F8E0F9F1FFC01ED56FD4D808181110B
S1132B3017C08091702281508093702280917022FE
S1132B4090E0FC01EE0FFF1FEE0FFF1FEE0FFF1FC3
S1132B508E0F9F1FFC01ED56FD4D8081882349F3A4
S1132B608091702290E09C01220F331F220F331FAB
S1132B70220F331F280F391FD901AD56BD4D1196B1
S1132B80ED91FC9112970280F381E02D1196ED9363
S1132B90FC9312972A563D4DE217F30729F422813C
S1132BA03381FD0121833283FC01EE0FFF1FEE0F01
S1132BB0FF1FEE0FFF1F8E0F9F1FFC01ED56FD4DF3
S1132BC00180F281E02D868197818093C0229093C9
S1132BD0C1220895CF93DF93EB012091C02230915D
S1132BE0C122B901645F7F4F38D88091C02290918F
S1132BF0C122029663D880917122909172228C0F27
S1132C009D1F97DCDF91CF910895CF93DF93EB0164
S1132C102091C0223091C122B901645F7F4F0E948C
S1132C200C0E8091C0229091C122029647D88091C7
S1132C307122909172228C0F9D1F7BDCDF91CF91CA
S1132C4008950F931F93CF93DF93DC011596ED91B5
S1132C50FC911697C681D7818E01045F1F4FC8016E
S1132C602DD88091682281111BC00A501109C80116
S1132C7025D82E8980917022821710F42093702217
S1132C8030E0C901880F991F880F991F880F991F79
S1132C90820F931FB8018D569D4D0E940C0E05C0E6
S1132CA0B80184E792E20E940C0EE091C022F091F8
S1132CB0C1229E898689891720F481E080936D2240
S1132CC001C080E0DF91CF911F910F910895209171
S1132CD06C22FC0120832091712230917222218385
S1132CE032830895CF93DF93FC010FB6F8940F92CB
S1132CF0209171223091722280916C2290819817D8
S1132D0029F08181928128173907A8F4A181B28121
S1132D10EB0148815981C9018A1B9B0B84179507D4
S1132D2060F4CF01A21BB30B4A0F5B1F4883598386
S1132D30CEDF80E003C081E001C081E00F900FBED0
S1132D40DF91CF91089581E080936D220895809161
S1132D506F22882331F080916822882321F080E05B
S1132D60089581E0089582E00895FC0162837383ED
S1132D70808791874617570790F0421B530B848531
S1132D80958548175907E0F4BF016E5F7F4F809126
S1132D90C6229091C7220E942D0E80E0089542170A
S1132DA0530718F46217730768F4BF016E5F7F4F0F
S1132DB08091C8229091C9220E942D0E80E008952E
S1132DC081E0089581E008950FB6F8940F92809100
S1132DD0C4229091C522892BE1F483ED92E20E94F2
S1132DE0FA0D8AEC92E20E94FA0D83ED92E280934E
S1132DF0C8229093C9228AEC92E28093C6229093CF
S1132E00C72240E065E08AE0EFD98093C422909322
S1132E10C5220F900FBE0895AF92BF92CF92DF925A
S1132E20EF92FF920F93D0DF8091C4229091C5223C
S1132E30892B89F0A12CB12CC12CD12CE12CF12CA3
S1132E4003E020E030E045E550E069E170E28AE12A
S1132E5098E1A4DB01C080E00F91FF90EF90DF9038
S1132E60CF90BF90AF9008958F929F92BF92CF92D0
S1132E70DF92EF92FF920F931F93CF93DF9361152D
S1132E807105C9F06901B42E7B014C0183E190E026
S1132E90A9D8EC01892B89F097DF88829982EC8686
S1132EA0FD86BE86CF86D88A098B1A8BCE01029600
S1132EB00E94080E02C0C0E0D0E0CE01DF91CF91A5
S1132EC01F910F91FF90EF90DF90CF90BF909F9054
S1132ED08F9008950F931F93CF93DF93CDB7DEB7F1
S1132EE02597CDBFDEBFE091C422F091C522309773
S1132EF051F1D90169834A835B838C839D83663056
S1132F00D4F425DF823059F420E0A801BE016F5FBC
S1132F107F4F8091C4229091C5228FD915C020E0A3
S1132F2040E050E0BE016F5F7F4F8091C4229091DA
S1132F30C52283D909C020E0AD01BE016F5F7F4F78
S1132F40CF0108DA01C080E02596CDBFDEBFDF9156
S1132F50CF911F910F910895AF92BF92CF92DF92BC
S1132F60EF92FF920F931F93CF93DF936C0150DC8A
S1132F707C018091C2229091C322E816F90608F0E0
S1132F8047C02FC00580F681E02DA080B180C681A6
S1132F90D7818E010E5F1F4FC8010E945E0EE98922
S1132FA0FA89CE0119958E858130D9F48C859D8559
S1132FB08A0D9B1DA816B90660F48A839B83C88773
S1132FC0D987B8018091C8229091C9220E942D0E00
S1132FD008C000E010E020E030E0A50160E0CE0190
S1132FE079DFE091C822F091C92290819111CACF72
S1132FF08091C6229091C7228093C8229093C922BF
S1133000E093C622F093C72281E0F601808302C0D8
S1133010F6011082E092C222F092C322C701DF912E
S1133020CF911F910F91FF90EF90DF90CF90BF90C1
S1133030AF900895CF93DF9300D000D0CDB7DEB723
S1133040CE0101965C01E82EFB2CE091C822F091A0
S1133050C9228081882369F00580F681E02DC08033
S1133060D180D0DBC50178DF8C018981882349F0C8
S113307056C0C8DBC50170DF8C0189818823A9F1A2
S11330804EC00C151D0508F43BC09FDCE091C8221E
S1133090F091C9220580F681E02D86809780C401D5
S11330A002960E945E0ED4011E968C911E9781306A
S11330B0A1F41C966D917C911D976C0D7D1D96015C
S11330C0A801C40152DE813041F400E010E020E0A8
S11330D030E0A60160E0C401FDDED4015196ED911B
S11330E0FC915297C401199575C0E091C622F091E4
S11330F0C72241E08081811140E0C12CD12C01C064
S113310040E0B601601B710B8091C4229091C522EE
S1133110EED95BDC81115EC00E94400F5BC055DCC0
S113312059C0998199230CF455C0CC80DD80F601F7
S113313082859385892B21F0C60102960E945E0E3A
S1133140CE01069609DFAC010981002E000C110B9B
S1133150220B330B0A30110508F03CC0F801882714
S1133160E250FF4F8F4F6FC32A813B81D6011C96DB
S11331706D917C911D97620F731FC601F6DD81303E
S113318049F5D6015196ED91FC915297C6011995D6
S1133190F60186858130F1F4448555858A819B81C9
S11331A0480F591F00E010E020E030E060E0C60165
S11331B091DE10C06A817B81D6011C966D937C934D
S11331C01D97640F751F9A01C601CFDD03C0C601A8
S11331D00E94FF0F20E040E050E06E2D7F2D809193
S11331E0C4229091C522ECD881119BCF2ECFCF93CE
S11331F0DF93FC01709620E030E0C62FD0E0DE01C2
S1133200022E02C0B595A7950A94E2F7A0FD50835B
S11332102F5F3F4F31962830310589F740FF0AC0B0
S113322041FF03C0FC01658302C0FC016683FC010D
S1133230618302C0FC016283DF91CF91089543E072
S113324050E061E080EE97E0D2DF43E050E062E0DE
S113325080EE97E0CCDF43E050E060E180E696E06A
S1133260C6DF41E050E460E280E696E0C0DF40E083
S11332705BE160E280E896E0BADF40E05BE162E0B7
S113328080EA96E0B4DF40E05BE164E080EA96E047
S1133290AEDF43E050E062E080E696E0A8DF43E082
S11332A050E068E080E696E0A2DF43E050E068E0AA
S11332B080EA96E09CDF43E050E061E080E696E03F
S11332C096DF43E050E068E080E096E090DF41E084
S11332D050E060E180E896E08ADF43E050E062E09D
S11332E080E696E084DF43E050E068E080E696E024
S11332F07EDF40E050E064E080E696E078DF43E083
S113330050E060E180EA96E072DF40E050E061E086
S113331080E096E06CDF40E050E064E080E096E01E
S113332066DF40E050E062E080E296E060DF43E088
S113333050E068E080E496E05ADF40E050E064E06A
S113334080E496E054DF43E050E068E080E696E0F5
S11333504EDF40E050E064E080E696E048DF43E082
S113336050E068E080E896E042DF40E050E064E04E
S113337080E896E03CCF08958091DC229091DD2294
S1133380A091DE22B091DF220196A11DB11D809390
S1133390DC229093DD22A093DE22B093DF220895F5
S11333A000E816E0C0EED7E0BB24B3946894EE24A2
S11333B0E1F80F2EF0E6CF2EF6E0DF2EF02D689424
S11333C0FF24F4F8F801808585FD14C0BD82ED82E8
S11333D0F601F5821092E2221092E3221092E62284
S11333E01092E7221092E8221092E9221092E4222D
S11333F01092E52285E090E065DBE4CF0F2EF0EA41
S1133400EF2EF6E0FF2EF02D00EE17E0C2E0CC2404
S1133410C394D12CF701808588233CF4F801C6833A
S1133420C092E422D092E52206C0F801C58310922E
S1133430E4221092E52282E390E044DBEBCFC0E08B
S1133440D2E0CC24C39400E616E06894DD24D4F8DA
S1133450EE24E394F12CCE010E9446079FB7F89422
S11334608881846088839FBF9E8190FFFDCFCE8238
S11334708CA19DA18093EA229093EB22813D9740F9
S113348038F4F801D682E092E822F092E92206C0EC
S1133490F801D5821092E8221092E92285E090E0AA
S11334A011DBD9CFE0E4F6E0808181608083E0E045
S11334B0F8E085E0808386E1818388EE93E086A34B
S11334C097A387E791E080A791A70895EBDFC0EA6F
S11334D0D6E000E018E00F2EF7E78F2E992493949E
S11334E0F02DCC24C394D12C0F2EF0EEEF2EF7E068
S11334F0FF2EF02D772473940F2EF6E9AF2EB12C06
S1133500F02D888581FD0AC0F801A0A6B1A6F701B7
S11335107682C092E622D092E72210C0888582FD8E
S11335200AC0F801C0A6D1A6F70175821092E6225E
S11335301092E72203C0F80180A691A685E090E0EE
S1133540C1DADFCF1092A7088CE08093A60810920E
S1133550A30883E08093A50888E18093A4080895D4
S1133560CF93DF93FC016081662349F0EC0121963F
S113357080EA98E00E94DC0969916111F9CFDF913A
S1133580CF91089580E1809385060F2EF1E28F2E6E
S1133590F0E29F2EF02D19ECCCEED2E20F2EF0E3E8
S11335A0AF2EF0E2BF2EF02D0F2EFDE3CF2EF0E272
S11335B0DF2EF02D0F2EF9E4EF2EF0E2FF2EF02D8A
S11335C08091EB228F938091EA228F939F928F9226
S11335D01F921F93DF93CF9374D226E030E240E032
S11335E060E0CE010E946C068091E5228F93809169
S11335F0E4228F93BF92AF921F921F93DF93CF93D6
S113360060D226E030E248E060E0CE010E946C0621
S11336108091E7228F938091E6228F93DF92CF925D
S11336201F921F93DF93CF934CD226E030E240E108
S113363060E0CE010E946C068091E1228F9380911C
S1133640E0228F938091E5228F938091E4228F93DF
S11336508091E7228F938091E6228F938091EB22D1
S11336608F938091EA228F93FF92EF921F921F9380
S1133670DF93CF9326D28DB79EB786968DBF9EBF1C
S113368026E030E248E160E0CE010E946C06CE0103
S113369067DF82E090E016DA93CF8F929F92AF9229
S11336A0BF92CF92DF92EF92FF920F931F93CF932B
S11336B0DF93CDB7DEB72B97CDBFDEBFC0DD87E08C
S11336C08093A200BE016F5F7F4F80E092E00E9472
S11336D03D09AE01485F5F4F61E080E092E00E94E7
S11336E099099A818B818F7880618B83892F817E60
S11336F08A831C8282E08D8381E0888780E48987C5
S1133700BE016F5F7F4F80E092E00E94ED08AE0142
S1133710485F5F4F61E080E092E00E9460090E9490
S1133720E70480E18093850688E0809345068093D2
S1133730410608DF6DE070E280EA98E00E94FD0A2D
S11337400CEB19E120E030E041E061E070E08EE54F
S113375090E28ADB4C01A12CB12CC12CD12CE12CA0
S1133760F12C01E020E030E044EF51E06DE570E23F
S11337708FE19AE10E94CE1220E030E044EF51E064
S11337806DE570E286E69AE10E94CE1220E030E018
S113379044EF51E06DE570E28EEF99E10E94CE12A4
S11337A020E030E044EF51E06DE570E282EC9AE114
S11337B00E94CE1220E030E044EF51E06DE570E26B
S11337C080ED99E10E94CE1223D800E010E020E0C1
S11337D030E0AC0161E0C4017DDB0E94CF1380E0E6
S11337E090E02B96CDBFDEBFDF91CF911F910F915B
S11337F0FF90EF90DF90CF90BF90AF909F908F900D
S11338000895A1E21A2EAA1BBB1BFD010DC0AA1F1D
S1133810BB1FEE1FFF1FA217B307E407F50720F035
S1133820A21BB30BE40BF50B661F771F881F991FB0
S11338301A9469F760957095809590959B01AC01F9
S1133840BD01CF010895EE0FFF1F881F8BBF0790A6
S1133850F691E02D1994CF93DF938230910510F403
S113386082E090E0E091C123F091C22320E030E0B7
S1133870C0E0D0E0309711F14081518148175907D9
S1133880C0F04817590761F482819381209719F099
S11338908A839B832BC08093C1239093C22326C029
S11338A02115310519F04217530718F49A01BE0186
S11338B0DF01EF010280F381E02DDCCF211531051A
S11338C009F1281B390B2430310590F412968D919F
S11338D09C9113976115710521F0FB0182839383F9
S11338E004C08093C1239093C223FD01329644C047
S11338F0FD01E20FF31F81939193225031092D931F
S11339003C933AC02091BF233091C023232B41F430
S113391020910220309103202093BF233093C023B1
S113392020910020309101202115310541F42DB75B
S11339303EB74091042050910520241B350BE091A3
S1133940BF23F091C023E217F307A0F42E1B3F0B13
S11339502817390778F0AC014E5F5F4F24173507FD
S113396048F04E0F5F1F4093BF235093C0238193B1
S1133970919302C0E0E0F0E0CF01DF91CF91089590
S11339800F931F93CF93DF93009709F48CC0FC012E
S11339903297128213820091C1231091C223011520
S11339A0110581F420813181820F931F2091BF235F
S11339B03091C0232817390779F5E093BF23F0939A
S11339C0C02371C0D80140E050E0AE17BF0750F4E7
S11339D012962D913C911397AD012115310509F1F2
S11339E0D901F3CF9D01DA01228333836081718190
S11339F0860F971F8217930769F4EC012881398198
S1133A00260F371F2E5F3F4F208331838A819B818E
S1133A1082839383452B29F4E093C123F093C2233B
S1133A2042C01296ED93FC931397ED01499159917D
S1133A309E01240F351FE217F30771F480819181F1
S1133A40840F951F02968D939C9311978281938185
S1133A5012968D939C931397E0E0F0E0D8011296B0
S1133A608D919C911397009719F0F8018C01F6CF72
S1133A708D919C9198012E5F3F4F820F931F20914F
S1133A80BF233091C0232817390769F4309729F4EC
S1133A901092C1231092C22302C012821382009397
S1133AA0BF231093C023DF91CF911F910F910895ED
S1133AB0FB01DC0102C001900D9241505040D8F747
S1133AC008950F931F93CF93DF93CDB7DEB72E974F
S1133AD0CDBFDEBF0E891F89888D998D26E02C838A
S1133AE009831A8397FF02C080E090E801978D83D1
S1133AF09E83AE01445E5F4F6A8D7B8DCE0101963D
S1133B0016D04D815E8157FD0AC02F81388542173A
S1133B1053070CF49A01F801E20FF31F10822E965A
S1133B20CDBFDEBFDF91CF911F910F9108952F92EA
S1133B303F924F925F926F927F928F929F92AF9239
S1133B40BF92CF92DF92EF92FF920F931F93CF9386
S1133B50DF93CDB7DEB72C97CDBFDEBF7C016B0101
S1133B608A01FC0116821782838181FFB0C1CE01D4
S1133B7001964C01F7019381F60193FD859193FF22
S1133B8081916F01882309F49EC1853239F493FD34
S1133B90859193FF81916F01853221F4B70190E003
S1133BA0C4D1E8CF512C312C20E02032A0F48B3248
S1133BB069F030F4803259F0833269F420612CC00A
S1133BC08D3239F0803339F4216026C022602460BC
S1133BD023C0286021C027FD27C030ED380F3A30BC
S1133BE078F426FF06C0FAE05F9E300D1124532EB0
S1133BF013C08AE0389E300D1124332E20620CC08D
S1133C008E3221F426FD5FC1206406C08C3611F487
S1133C10206802C0883641F4F60193FD859193FF34
S1133C2081916F018111C1CF982F9F7D955493305D
S1133C3028F40C5F1F4FFFE3F9830DC0833631F086
S1133C40833771F0833509F057C021C0F8018081B2
S1133C5089830E5F1F4F44244394512C540114C094
S1133C603801F2E06F0E711CF801A080B18026FFCC
S1133C7003C0652D70E002C06FEF7FEFC5012C8794
S1133C8049D12C0183012C852F77222E16C03801AF
S1133C90F2E06F0E711CF801A080B18026FF03C012
S1133CA0652D70E002C06FEF7FEFC5012C8727D12F
S1133CB02C012C852068222E830123FC19C0832D1E
S1133CC090E048165906A0F4B70180E290E02DD1A7
S1133CD03A94F5CFF50127FC859127FE81915F0188
S1133CE0B70190E022D131103A94F1E04F1A510813
S1133CF04114510479F7DEC0843611F0893631F568
S1133D00F80127FF07C060817181828193810C5F74
S1133D101F4F08C060817181072E000C880B990B1E
S1133D200E5F1F4F2F76722E97FF09C090958095D6
S1133D30709561957F4F8F4F9F4F2068722E2AE0B8
S1133D4030E0A4012AD1A82EA81843C0853729F44D
S1133D502F7EB22E2AE030E025C0F22FF97FBF2E4D
S1133D608F36C1F018F4883579F0ADC0803719F07A
S1133D70883721F0A8C02F2F2061B22EB4FE0DC0C9
S1133D808B2D8460B82E09C024FF0AC09F2F966033
S1133D90B92E06C028E030E005C020E130E002C0C2
S1133DA020E132E0F801B7FE07C0608171818281B1
S1133DB093810C5F1F4F06C06081718180E090E0A9
S1133DC00E5F1F4FA401E9D0A82EA818FB2DFF7782
S1133DD07F2E76FE0BC0372D3E7FA51450F474FE63
S1133DE00AC072FC08C0372D3E7E05C0BA2C372DA0
S1133DF003C0BA2C01C0B52C34FF0DC0FE01EA0D7E
S1133E00F11D8081803311F4397E09C032FF06C070
S1133E10B394B39404C0832F867809F0B39433FD2C
S1133E2012C030FF06C05A2CB31418F4530C5B189C
S1133E30B32CB31460F4B70180E290E03C8775D0F2
S1133E40B3943C85F6CFB31410F43B1801C0312C65
S1133E5034FF11C0B70180E390E03C8766D03C8515
S1133E6032FF16C031FD03C088E790E002C088E548
S1133E7090E0B7010CC0832F867851F031FF02C067
S1133E808BE201C080E237FD8DE2B70190E04DD0B6
S1133E90A51430F4B70180E390E047D05A94F8CFEA
S1133EA0AA94F401EA0DF11D8081B70190E03DD0A0
S1133EB0A110F6CF332009F45DCEB70180E290E083
S1133EC034D03A94F7CFF7018681978102C08FEFFF
S1133ED09FEF2C96CDBFDEBFDF91CF911F910F9145
S1133EE0FF90EF90DF90CF90BF90AF909F908F9016
S1133EF07F906F905F904F903F902F900895FC01BA
S1133F000590615070400110D8F7809590958E0F00
S1133F109F1F0895FC016150704001900110D8F773
S1133F20809590958E0F9F1F08950F931F93CF93A5
S1133F30DF93FB01238121FD03C08FEF9FEF28C096
S1133F4022FF16C0468157812481358142175307C9
S1133F5044F4A081B1819D012F5F3F4F20833183C1
S1133F608C93268137812F5F3F4F2683378310C080
S1133F70EB01092F182F0084F185E02D1995892B69
S1133F80E1F68E819F8101968E839F83812F902FEE
S1133F90DF91CF911F910F910895FA01AA2728303C
S1133FA051F1203181F1E8946F936E7F6E5F7F4F02
S1133FB08F4F9F4FAF4FB1E03ED0B4E03CD0670F7E
S1133FC0781F891F9A1FA11D680F791F8A1F911DD1
S1133FD0A11D6A0F711D811D911DA11D20D009F421
S1133FE068943F912AE0269F11243019305D319363
S1133FF0DEF6CF010895462F4770405D4193B3E04C
S11340000FD0C9F7F6CF462F4F70405D4A3318F0F2
S1134010495D31FD4052419302D0A9F7EACFB4E0A3
S1134020A6959795879577956795BA95C9F700975B
S11340306105710508959B01AC010A2E06945795FC
S1134040479537952795BA95C9F7620F731F841F53
S10D4050951FA01D0895F894FFCFFA
S113405A0000C32320000010020607207D802500EB
S113406A0003000049444C4500546D7220537663A2
S113407A005265616420506F74203A20253364002D
S113408A51746F756368203A20253364005365724E
S113409A766F203A2025336400253364203A253389
S11340AA64203A253364203A253364200A00745084
S10740BA696E6700C0
S9030000FC
