:1000000050C200006FC200006DC200006BC2000051
:1000100069C2000067C2000065C2000063C2000040
:1000200061C200005FC200005DC200005BC2000050
:1000300059C2000057C200000C94980F53C2000030
:1000400051C200004FC200004DC200004BC2000070
:1000500049C2000047C2000045C2000043C2000080
:1000600041C200003FC200003DC200003BC2000090
:1000700039C2000037C2000035C2000033C20000A0
:1000800031C200002FC200002DC200002BC20000B0
:1000900029C2000027C2000025C20000D6C7000008
:1000A0000C9457080C9489080C94BB081BC20000E0
:1000B00019C2000017C2000015C2000013C20000E0
:1000C00011C200000FC200000DC200000BC20000F0
:1000D00009C2000007C2000005C2000003C2000000
:1000E00001C20000FFC10000FDC10000FBC1000013
:1000F000F9C10000F7C10000F5C10000F3C1000024
:10010000F1C10000EFC10000EDC10000EBC1000033
:10011000E9C10000E7C10000E5C10000CEC6000053
:10012000FEC600002EC700005EC70000DBC1000055
:10013000D9C10000D7C10000D5C10000D3C1000063
:10014000D1C10000CFC10000CDC10000CBC1000073
:10015000C9C10000C7C10000C5C10000C3C1000083
:10016000C1C10000BFC10000BDC10000BBC1000093
:10017000B9C10000B7C10000B5C10000B3C10000A3
:10018000B1C10000AFC10000ADC10000ABC10000B3
:10019000A9C10000A7C10000A5C10000A3C10000C3
:1001A000A1C100009FC100009DC100009BC10000D3
:1001B00099C1000097C1000095C1000093C10000E3
:1001C00091C100008FC100008DC100008BC10000F3
:1001D00089C1000087C1000085C1000083C1000003
:1001E00081C100007FC100007DC100007BC1000013
:1001F00079C1000077C1000075C10000DE19DE1969
:10020000DE19141A041A111ADE19DE19141A041A46
:10021000000000000000002020202020002050507E
:1002200050000000005050F850F850502078A07056
:1002300028F020C0C810204098186090A040A890D6
:100240006860204000000000102040404020104026
:10025000201010102040005020F8205000002020D6
:10026000F820200000000000602040000000F8009E
:1002700000000000000000606000081020408000C6
:10028000708898A8C888702060202020207070880E
:1002900008102040F8F81020100888701030509096
:1002A000F81010F880F008088870304080F08888D6
:1002B00070F80810204040407088887088887070FE
:1002C00088887808106000606000606000006060EE
:1002D00000602040081020402010080000F800F8BE
:1002E00000008040201020408070880810200020EE
:1002F00070880868A8A87070888888F88888F0884E
:1003000088F08888F070888080808870E090888885
:100310008890E0F88080F08080F8F88080E080802D
:100320008070888080988870888888F8888888702D
:10033000202020202070381010101090608890A08D
:10034000C0A09088808080808080F888D8A8888825
:1003500088888888C8A898888870888888888870DD
:10036000F08888F080808070888888A89068F088FD
:1003700088F0A09088788080700808F0F82020200D
:100380002020208888888888887088888888885075
:1003900020888888A8A8D88888885020508888888D
:1003A000885020202020F80810204080F838202095
:1003B0002020203800804020100800E0202020204D
:1003C00020E020508800000000000000000000F83D
:1003D00040201000000000000070087888788080BD
:1003E000B0C88888F000007080808870080868981D
:1003F00088887800007088F88070304840E040407D
:1004000040000078887808308080B0C888888820CC
:100410000060202020701000301010906040404894
:1004200050605048602020202020700000D0A8A8F4
:1004300088880000B0C88888880000708888887024
:100440000000F088F08080000068987808080000BC
:10045000B0C8808080000070807008F04040E040AC
:100460004048300000888888986800008888885054
:100470002000008888A8A8500000885020508800DC
:100480000088887808700000F8102040F8102020BC
:10049000402020102020202020202040202010203C
:1004A000204011241FBECFEFCDBFDFE5DEBF00E04F
:1004B0000CBF11E2A0E0B0E2E6E0F2E400E00BBF26
:1004C00002C007900D92A83CB107D9F720E6A8EC2E
:1004D000B1E201C01D92A239B207E1F70E940C1DE2
:1004E0000C9401218DCDBF92CF92DF92EF92FF92BB
:1004F0000F931F93CF93DF931F92CDB7DEB7E0E04A
:10050000F6E088E0868385830F2EFBE2BF2EF02D78
:10051000B98280EA99E009D4C12CD12C760100E49B
:1005200012E42FE030E043E0BE016F5F7F4F80EACE
:1005300099E02AD400E616E0FF24F394F801F6824D
:10054000B982BE016F5F7F4F80EA99E037D4F8012E
:10055000F682E0EAF9E0818185FFFDCF80EA8093B1
:10056000A009E0EAF9E0818186FFFDCFE0EAF9E049
:1005700080E481838081BE016F5F7F4F80EA99E0D4
:1005800033D48BE28983BE016F5F7F4F80EA99E0AD
:1005900015D481E080936606E0EAF9E0818185FF69
:1005A000FDCF86EA8093A009E0EAF9E0818186FF29
:1005B000FDCFE0EAF9E080E481838081BE016F5FD6
:1005C0007F4F80EA99E010D48BE28983BE016F5F90
:1005D0007F4F80EA99E0F2D381E080936606E0EAFB
:1005E000F9E0818185FFFDCF88EC8093A009E0EAE6
:1005F000F9E0818186FFFDCFE0EAF9E080E48183C4
:100600008081BE016F5F7F4F80EA99E0EDD38BE27E
:100610008983BE016F5F7F4F80EA99E0CFD381E08D
:1006200080936606E0EAF9E0818185FFFDCF82EAEA
:100630008093A009E0EAF9E0818186FFFDCFE0EA3E
:10064000F9E080E481838081BE016F5F7F4F80EAA3
:1006500099E0CAD38BE28983BE016F5F7F4F80EA46
:1006600099E0ACD381E080936606E0EAF9E081810D
:1006700085FFFDCF8FE28093A009E0EAF9E0818158
:1006800086FFFDCFE0EAF9E080E481838081BE014E
:100690006F5F7F4F80EA99E0A7D38BE28983BE0129
:1006A0006F5F7F4F80EA99E089D381E0809366068F
:1006B000E0EAF9E0818185FFFDCF88EF8093A00912
:1006C000E0EAF9E0818186FFFDCFE0EAF9E080E42D
:1006D00081838081BE016F5F7F4F80EA99E084D380
:1006E0008BE28983BE016F5F7F4F80EA99E066D31A
:1006F00081E080936606E0EAF9E0818185FFFDCF25
:100700001092A009E0EAF9E0818186FFFDCFE0EADE
:10071000F9E080E481838081BE016F5F7F4F80EAD2
:1007200099E062D38BE28983BE016F5F7F4F80EADD
:1007300099E044D381E080936606E0EAF9E08181A4
:1007400085FFFDCF81E28093A009E0EAF9E0818195
:1007500086FFFDCFE0EAF9E080E481838081BE017D
:100760006F5F7F4F80EA99E03FD38BE28983BE01C0
:100770006F5F7F4F80EA99E021D381E08093660626
:10078000E0EAF9E0818185FFFDCF81E88093A0094F
:10079000E0EAF9E0818186FFFDCFE0EAF9E080E45C
:1007A00081838081BE016F5F7F4F80EA99E01CD317
:1007B0008BE28983BE016F5F7F4F80EA99E0FED2B2
:1007C00081E080936606E0EAF9E0818185FFFDCF54
:1007D00081E28093A009E0EAF9E0818186FFFDCF04
:1007E000E0EAF9E080E481838081BE016F5F7F4FA2
:1007F00080EA99E0F9D28BE28983BE016F5F7F4F77
:1008000080EA99E0DBD281E080936606E0EAF9E0D5
:10081000818185FFFDCF8FEA8093A009E0EAF9E0AE
:10082000818186FFFDCFE0EAF9E080E48183808169
:10083000BE016F5F7F4F80EA99E0D6D20F90DF91C3
:10084000CF911F910F91FF90EF90DF90CF90BF90CD
:1008500008959FB7F894E82FF0E0E059FF4F6095B6
:100860008081682360839FBF08959FB7F894E82F25
:10087000F0E0E059FF4F8081682B60839FBF0895AF
:10088000FF920F931F93CF93DF931F92CDB7DEB7E5
:10089000082FF62E142F22D10F70006B8BE2898364
:1008A000BE016F5F7F4F80EA99E088D281E080933C
:1008B0006606E0EAF9E0918195FFFDCF0093A0097B
:1008C000E0EAF9E0818186FFFDCFE0EAF9E080E42B
:1008D00081838081BE016F5F7F4F80EA99E084D27F
:1008E0000F2D0F7702950F7000618BE28983BE0197
:1008F0006F5F7F4F80EA99E061D281E08093660666
:10090000E0EAF9E0818185FFFDCF0093A009E0EAEC
:10091000F9E0818186FFFDCFE0EAF9E080E48183A0
:100920008081BE016F5F7F4F80EA99E05DD20F2D1D
:100930000F708BE28983BE016F5F7F4F80EA99E081
:100940003DD281E080936606E0EAF9E0818185FF8F
:10095000FDCF0093A009E0EAF9E0818186FFFDCF99
:10096000E0EAF9E080E481838081BE016F5F7F4F20
:1009700080EA99E039D28BE28983BE016F5F7F4FB5
:1009800080EA99E01BD281E080936506E0EAF9E015
:10099000818185FFFDCF1093A009E0EAF9E0818114
:1009A00086FFFDCFE0EAF9E080E48183808181E089
:1009B00080936606BE016F5F7F4F80EA99E014D294
:1009C0000F90DF91CF911F910F91FF9008950F939A
:1009D0001F93CF93DF931F92CDB7DEB788EC91E2E0
:1009E00078D081DD8BE28983BE016F5F7F4F80EA23
:1009F00099E0E4D181E080936606E0EAF9E0818144
:100A000085FFFDCF80E48093A009E0EAF9E08181D1
:100A100086FFFDCFE0EAF9E080E481838081BE01BA
:100A20006F5F7F4F80EA99E0DFD100E00AC040E0CD
:100A3000612F802F25DF1F5F1038C9F70F5F04304B
:100A400011F010E0F4CF0F90DF91CF911F910F9133
:100A50000895FF920F931F93CF93DF9388238CF118
:100A6000603278F5D42FC82FF62EF694F694F694CB
:100A70002F2D30E0319521953109220F331F220FA0
:100A8000331F220F331F260F311D61E070E08B01F1
:100A900002C0000F111F2A95E2F7682F8F2D2CD06E
:100AA000D13021F028F0D23039F007C0802B05C0BA
:100AB000602F6095862301C08027482F6C2F8F2DD3
:100AC000DFDEDF91CF911F910F91FF90089514C049
:100AD00008958093C8239093C923089520E8829FA6
:100AE000C0011124860F911DE091C823F091C92304
:100AF000E80FF91F4083089520E8829FC001112468
:100B0000860F911DE091C823F091C923E80FF91FCA
:100B100080810895FF920F931F93CF93DF93E42F6B
:100B2000F0E0E80FF11DE138F1051CF0C0E84C2FB2
:100B3000481B442309F453C0D62FD695D695D69595
:100B4000ED2FF0E0F195E195F109EE0FFF1FEE0FAB
:100B5000FF1FEE0FFF1FDF01A60FB11DBD01E1E07A
:100B6000F0E0DF0102C0AA0FBB1F6A95E2F7FA2E80
:100B7000213021F098F0223019F131C0C42F1FEF3D
:100B8000180F012F0C0F602F8D2FA1DF482F4F2939
:100B9000602F8D2F75DEC150A1F721C0C42F1FEF2C
:100BA000180FFA2EF094012F0C0F602F8D2F8FDF6E
:100BB000482F4F21602F8D2F63DEC150A1F70FC04A
:100BC000C42F1FEF180F012F0C0F602F8D2F7FDF09
:100BD000482F4F25602F8D2F53DEC150A1F7DF9195
:100BE000CF911F910F91FF900895FF920F931F9344
:100BF000CF93DF93222369F0C22FF42E182FDFEF5B
:100C0000D60F6D2F6C0F202F4F2D812F83DFC150FA
:100C1000C1F7DF91CF911F910F91FF900895AF928F
:100C2000BF92CF92DF92EF92FF920F931F93CF93D9
:100C3000DF93C82FE62EB42E690100E0F90124816C
:100C400043816B2D8E2DD1DFF6018081811139C05A
:100C50008381282F269526952695877009F02F5F8A
:100C6000F601A4802A9D900111248C2F90E04581EB
:100C7000841B9109289FA001299F500D389F500D7A
:100C8000112401811281040F151FF601F380FF204A
:100C9000A1F0D0E0C0E08C2F8E0D9C2F977021F436
:100CA000F801D4910F5F1F4FDD231CF441E06B2D41
:100CB000D0DEDD0FCF5FCF11EECFB394AA94A11099
:100CC000E4CFDF91CF911F910F91FF90EF90DF90D4
:100CD000CF90BF90AF900895DF92EF92FF920F9365
:100CE0001F93CF93DF93042F7901EC01162FD62E9B
:100CF00089918A3031F4F70184818F5F080F1D2DAF
:100D000009C08D3039F09701402F612F88DFF7013E
:100D10008381180F88818111EBCFDF91CF911F91D3
:100D20000F91FF90EF90DF900895803A28E09207AE
:100D300021F460E183E08DCD0895803B28E09207A7
:100D400021F460E283E085CD0895803A29E092079E
:100D500021F460E184E07DCD0895803B29E0920795
:100D600021F460E284E075CD0895803A2AE092078C
:100D700021F460E185E06DCD0895803A9B4019F43F
:100D800060E186E066CD08950F931F93CF93DF93C4
:100D900000D000D0CDB7DEB709831A832B833C8304
:100DA0004D831E82BE016F5F7F4F6AD52696CDBFF1
:100DB000DEBFDF91CF911F910F910895FB018081DC
:100DC000E82FE695E695E69540E2E49FF0011124D0
:100DD000FA5F877021E030E0A90102C0440F551F7F
:100DE0008A95E2F746830895FB018081E82FE69516
:100DF000E695E69540E2E49FF0011124FA5F8770E2
:100E000021E030E0A90102C0440F551F8A95E2F7A6
:100E100045830895811522E0920761F48091CB23E8
:100E200091E0980F9093CB23811112C062E081E092
:100E300010CD08958034924059F48091CA2391E0F6
:100E4000980F9093CA23811103C062E082E001CD24
:100E50000895811522E0920759F48091CB238150A7
:100E60008093CB23811111C062E081E0FECC089514
:100E70008034924051F48091CA2381508093CA23D8
:100E8000811103C062E082E0F0CC08951F93CF93FC
:100E9000DF93EC011FB7F894BDDF88818160888300
:100EA0001FBF9FB7F894E8E8F0E681818F5F8183E8
:100EB0009FBFDF91CF911F9108951F920F920FB6A0
:100EC0000F9211240BB60F922F933F934F935F9382
:100ED0006F937F938F939F93AF93BF93EF93FF9302
:100EE0004091240250912502E0919060F091916030
:100EF00061E080E092E01995FF91EF91BF91AF9191
:100F00009F918F917F916F915F914F913F912F9121
:100F10000F900BBE0F900FBE0F901F9018951F9251
:100F20000F920FB60F9211240BB60F922F933F938F
:100F30004F935F936F937F938F939F93AF93BF93E1
:100F4000EF93FF9340912C0250912D02E09190601D
:100F5000F091916062E080E092E01995FF91EF914D
:100F6000BF91AF919F918F917F916F915F914F91C1
:100F70003F912F910F900BBE0F900FBE0F901F90BF
:100F800018951F920F920FB60F9211240BB60F9265
:100F90002F933F934F935F936F937F938F939F9381
:100FA000AF93BF93EF93FF9340913402509135027A
:100FB000E0919060F091916064E080E092E019959A
:100FC000FF91EF91BF91AF919F918F917F916F9121
:100FD0005F914F913F912F910F900BBE0F900FBEDD
:100FE0000F901F9018951F920F920FB60F92112419
:100FF0000BB60F922F933F934F935F936F937F9313
:101000008F939F93AF93BF93EF93FF9340913C02D5
:1010100050913D02E0919060F091916068E080E035
:1010200092E01995FF91EF91BF91AF919F918F91B0
:101030007F916F915F914F913F912F910F900BBED8
:101040000F900FBE0F901F9018951F920F920FB622
:101050000F9211240BB60F922F933F934F935F93F0
:101060006F937F938F939F93AF93BF93EF93FF9370
:101070004091640250916502E0918E60F0918F6022
:1010800061E080E492E01995FF91EF91BF91AF91FB
:101090009F918F917F916F915F914F913F912F9190
:1010A0000F900BBE0F900FBE0F901F9018951F92C0
:1010B0000F920FB60F9211240BB60F922F933F93FE
:1010C0004F935F936F937F938F939F93AF93BF9350
:1010D000EF93FF9340916C0250916D02E0918E600E
:1010E000F0918F6062E080E492E01995FF91EF91BA
:1010F000BF91AF919F918F917F916F915F914F9130
:101100003F912F910F900BBE0F900FBE0F901F902D
:1011100018951F920F920FB60F9211240BB60F92D3
:101120002F933F934F935F936F937F938F939F93EF
:10113000AF93BF93EF93FF93409174025091750268
:10114000E0918E60F0918F6064E080E492E0199508
:10115000FF91EF91BF91AF919F918F917F916F918F
:101160005F914F913F912F910F900BBE0F900FBE4B
:101170000F901F9018951F920F920FB60F92112487
:101180000BB60F922F933F934F935F936F937F9381
:101190008F939F93AF93BF93EF93FF9340917C0204
:1011A00050917D02E0918E60F0918F6068E080E464
:1011B00092E01995FF91EF91BF91AF919F918F911F
:1011C0007F916F915F914F913F912F910F900BBE47
:1011D0000F900FBE0F901F901895DF92EF92FF9225
:1011E0000F931F93CF93DF93EC018B01C11522E086
:1011F000D20771F461E270E082E0D4D0E82EF12CE5
:1012000060E270E082E0CED0FE2CEE24E82A10C02E
:101210008034924051F565E270E082E0C3D0E82E60
:10122000F12C64E270E082E0BDD0FE2CEE24E82ACE
:10123000DFB6F894CE01EEDD888192E09883EC86EB
:10124000FD86F80125813681288F398F92819A8316
:1012500094819C8393819B839181998381709081F8
:10126000892B8883CE01F5DDDFBEDF91CF911F9101
:101270000F91FF90EF90DF900895FF920F931F93CF
:10128000CF93DF93EC018B01FFB6F894C3DD888127
:10129000807CF8018083888D998D858396838A81EF
:1012A00082838C8184838B81838389818183CE0136
:1012B000D0DDFFBEDF91CF911F910F91FF90089578
:1012C000CF92DF92EF92FF920F931F93CF93DF9312
:1012D0007C01D62E8A01862F837029F4962F96954D
:1012E000969582E002C0962F80E090FF8F5FE70125
:1012F000A09698E0899FC00DD11D1124CFB6F89417
:10130000C70188DDF8018081888382818A83818199
:101310008983D0FE02C083818E83C7019ADDCFBE50
:10132000DF91CF911F910F91FF90EF90DF90CF90C1
:101330000895CF92DF92EF92FF920F931F93CF9376
:10134000DF937C01D62E8A01862F837029F4962F95
:101350009695969582E002C0962F80E090FF8F5F71
:10136000E701A09698E0899FC00DD11D1124CFB64A
:10137000F894C7014FDD8881F80180838A818283D8
:1013800089818183D0FE02C08E818383C70161DDA4
:10139000CFBEDF91CF911F910F91FF90EF90DF9023
:1013A000CF9008954091CA01E62FF72F8093CA018C
:1013B00084914093CA010895FC01918195FFFDCF6E
:1013C000608380E090E008952F923F924F925F9269
:1013D0006F927F928F929F92AF92BF92CF92DF9245
:1013E000EF92FF920F931F93CF931C012A013B01B1
:1013F00048015901D901C801689412F8B695A7951A
:10140000979587951694D1F7B901A801032E36E177
:1014100076956795579547953A95D1F7302DF10117
:10142000248122FD08C0B695A79597958795769556
:1014300067955795479584159505A605B70508F452
:10144000AEC0441655066606770608F4AAC0F10138
:10145000848182FD04C0440C551C661C771CC501A8
:10146000B401A30192010E94041E2F3F31054105E2
:10147000510508F498C0C12CD12C7601CA94C9EF4B
:1014800005C02C153D054E055F0568F0CC0CDD1C34
:10149000EE1CFF1CCD3F14F46894C0F8CF5FC7303A
:1014A00081F78C2F56C08C2FCC230CF052C0D30167
:1014B000C201880F991FAA1FBB1F880F991FAA1F5F
:1014C000BB1F880F991FAA1FBB1F85017401E81A53
:1014D000F90A0A0B1B0BD801C701CE3FF4F42DEF1C
:1014E0003FEF2C1B3109C7FD339504C0880F991FAE
:1014F000AA1FBB1F2A95D2F773016201F694E794E5
:10150000D794C794BC01CD016C0D7D1D8E1D9F1D10
:10151000A30192010E94041E38C023E02C0F830116
:10152000720104C0EE0CFF1C001F111F2A95D2F798
:10153000A801970167017801F694E794D794C794BE
:10154000BC01CD016C0D7D1D8E1D9F1D0E94041ED2
:101550001CC08D5FA301920104C0220F331F441FE2
:10156000551F8A95D2F7DA01C901B695A7959795C7
:101570008795BC01CD01680D791D8A1D9B1D0E94B8
:10158000041E2150310941095109832F8F70C295E2
:10159000C07FC82BF101C783268381E01CC080E097
:1015A0001AC080E018C0D301C201880F991FAA1F7A
:1015B000BB1F880F991FAA1FBB1F880F991FAA1F47
:1015C000BB1F85017401E81AF90A0A0B1B0BD8012D
:1015D000C701C9EF84CFCF911F910F91FF90EF907A
:1015E000DF90CF90BF90AF909F908F907F906F9043
:1015F0005F904F903F902F9008950F931F93CF933C
:10160000DF93EC018B01009709F4E6C0803C910563
:1016100021F460E180E01DD9DFC0C03881E0D80747
:1016200021F462E080E015D9D7C0C115E1E0DE0702
:1016300021F461E080E00DD9CFC0C038F3E0DF07CE
:1016400021F461E081E005D9C7C0C03983E0D80743
:1016500021F461E082E0FDD8BFC0C115E2E0DE0701
:1016600021F462E081E0F5D8B7C0C034F2E0DF07D2
:1016700021F462E082E0EDD8AFC0C03283E0D80749
:1016800021F464E082E0E5D8A7C0C115E8E0DE07F8
:1016900021F461E083E0DDD89FC0C115F9E0DF07E8
:1016A00021F461E084E0D5D897C0C1158AE0D8075D
:1016B00021F461E085E0CDD88FC0C115EBE0DE07F5
:1016C00021F461E086E0C5D887C0C034F8E0DF07C8
:1016D00021F462E083E0BDD87FC0C03489E0D80740
:1016E00021F462E084E0B5D877C0C034EAE0DE07D8
:1016F00021F462E085E0ADD86FC0C039F8E0DF07C3
:1017000021F464E083E0A5D867C0C03989E0D80738
:1017100021F464E084E09DD85FC0C039EAE0DE07D0
:1017200021F464E085E095D857C0C039FBE0DF07BD
:1017300021F464E086E08DD84FC0C03C88E0D80733
:1017400021F468E083E085D847C0C03CE9E0DE07CB
:1017500021F468E084E07DD83FC0C03AF8E0DF07BC
:1017600021F460E183E075D837C0C03A89E0D8073A
:1017700021F460E184E06DD82FC0C03AEAE0DE07D2
:1017800021F460E185E065D827C0C03AFBE0DF07BF
:1017900021F460E186E05DD81FC0C03B88E0D80737
:1017A00021F460E283E055D817C0C03BE9E0DE07D2
:1017B00021F460E284E04DD80FC0C038F4E0DF07C8
:1017C00021F460E483E045D807C0C03A84E0D8073C
:1017D00019F460E485E03DD88D818F738D83F80125
:1017E00094818581892B9681911198E0892B8D8335
:1017F000F801408151816281738100E814E82EE193
:1018000030E0CE01E1DD9C8198609C839C819061F9
:101810009C83DF91CF911F910F910895CF92DF921A
:10182000EF92FF920F931F93CF93DF93EC01D901B7
:10183000C801B695A79597958795481759076A07E0
:101840007B0778F46A017B01CC0CDD1CEE1CFF1CCD
:10185000C901B801A70196010E94041E2150310957
:1018600002C020E030E0832F8F708F832E83DF91C2
:10187000CF911F910F91FF90EF90DF90CF9008953F
:10188000EF92FF920F931F93CF93DF93EC017B01B5
:10189000009709F498C1803C910529F460E180E04B
:1018A0000E94290490C18038914029F462E080E0D0
:1018B0000E94290488C1C11581E0D80729F461E09C
:1018C00080E00E9429047FC1C038E3E0DE0729F4EC
:1018D00061E081E00E94290476C1C039F3E0DF07AE
:1018E00029F461E082E00E9429046DC1C11532E053
:1018F000D30729F462E081E00E94290464C1C03466
:1019000082E0D80729F462E082E00E9429045BC1EA
:10191000C032E3E0DE0729F464E082E00E9429049B
:1019200052C1C115F8E0DF0729F461E083E00E94AD
:10193000290449C1C11539E0D30729F461E084E0E5
:101940000E94290440C1C1158AE0D80729F461E04A
:1019500085E00E94290437C1C115EBE0DE0729F4B8
:1019600061E086E00E9429042EC1C034F8E0DF0760
:1019700029F462E083E00E94290425C1C03439E0E3
:10198000D30729F462E084E00E9429041CC1C0341A
:101990008AE0D80729F462E085E00E94290413C197
:1019A000C039E8E0DE0729F464E083E00E942904FE
:1019B0000AC1C039F9E0DF0729F464E084E00E943D
:1019C000290401C1C0393AE0D30729F464E085E075
:1019D0000E942904F8C0C0398BE0D80729F464E0DC
:1019E00086E00E942904EFC0C03CE8E0DE0729F44D
:1019F00068E083E00E942904E6C0C03CF9E0DF070C
:101A000029F468E084E00E942904DDC0C03A38E08F
:101A1000D30769F460E183E00E942904E0EAF8E07A
:101A200084818F7E8483F701248122504AC0C03A8A
:101A3000F9E0DF0729F460E184E00E942904C3C0D3
:101A4000C03A3AE0D30729F460E185E00E94290416
:101A5000BAC0C03A8BE0D80729F460E186E00E9462
:101A60002904B1C0C03BE8E0DE0729F460E283E06E
:101A70000E942904A8C0C03BF9E0DF0729F460E216
:101A800084E00E9429049FC0C03834E0D30729F4C1
:101A900060E483E00E94290496C0C03A84E0D8073D
:101AA00029F460E485E00E9429048DC08C818F7E3A
:101AB0008C83FB0124812250CE01C03AF8E0DF077D
:101AC00031F480914E0684FD86C011E185C0803BD3
:101AD00038E0930779F0803AE9E09E0731F43091DD
:101AE0006E0634FD7CC019E110C0803BF9E09F0711
:101AF000A9F001C015E1803A3AE0930731F48091F2
:101B00008E0684FD6EC011E20CC0803A9B4049F401
:101B10008091AE0684FD04C019E203C01DE101C03E
:101B20001DE2E12FE695E695E69530E2E39FF001B0
:101B30001124FA5F177081E090E0012E02C0880F37
:101B4000991F0A94E2F78183223010F040E001C02F
:101B500040E4DF015096A10FB11D3FB7F8942C91DE
:101B600027702C939C91942B9C933FBF85838D81F0
:101B7000806C8D83F70184818D7F813021F48D818C
:101B800082608D8303C08D818D7F8D83F701858178
:101B9000882321F08D8184608D8303C08D818B7FAC
:101BA0008D83F701408151816281738100E814E8DF
:101BB0002EE130E0CE0132DE8C8188608C838C8116
:101BC00080618C8310C08C818F7E8C83F70124818F
:101BD0002250CE017CCF15E180EA98E086CF1DE14E
:101BE00094CF15E29ECFDF91CF911F910F91FF907F
:101BF000EF900895FC010396818392832FEF3FEFCE
:101C00002383348385839683878390871082089506
:101C1000FC01108611860895CF93DF939C01FB0190
:101C2000DC011196CD91DC911297C283D3838C8114
:101C30009D81848395838C819D81DC0112966D93B7
:101C40007C9313976C837D8320873187F901808192
:101C50008F5F8083DF91CF910895CF93DF93EB0166
:101C6000488159814F3F2FEF520721F4FC01A78192
:101C7000B0850DC0DC01139601C0DF011296ED9115
:101C8000FC9113972081318142175307B0F71296C8
:101C9000ED91FC911397EA83FB83C483D583AC83D6
:101CA000BD831296CD93DC93139788879987FC01A7
:101CB00020812F5F2083DF91CF910895CF93DF9311
:101CC000FC01A085B185C281D381848195818C83FB
:101CD0009D83C481D581828193818A839B83119660
:101CE000CD91DC911297CE17DF0731F48C819D8165
:101CF00011968D939C931297108611868C9181502A
:101D00008C93DF91CF9108950F931F938B0171E115
:101D1000FC017083319762E26083319723E3208373
:101D2000012E000C220B330B319700833197108367
:101D30003197208331971082319720E820833197A3
:101D40001082319722E02083319723E0208331975E
:101D500024E02083319725E02083319726E02083FB
:101D6000319727E02083319728E02083319729E0BD
:101D70002083319720E1208331977083319722E1CE
:101D80002083319723E12083319724E12083319709
:101D900025E12083319726E12083319727E12083B5
:101DA000319728E12083319729E12083319720E280
:101DB0002083319721E2208331976083319723E29A
:101DC00020833197408331975083319726E22083D7
:101DD000319727E22083319728E22083319729E247
:101DE0002083319720E32083319721E32083879755
:101DF0001F910F910895F894E0E7F0E083818A7FC6
:101E00008383E0E0F8E080E09AEF86A397A391E077
:101E10009683A0EAB0E012968C9112978160129698
:101E20008C9390837894A091C85EB091C95E0D9018
:101E30000DBE0D900EBEFF91EF91DF91CF91BF913E
:101E4000AF919F918F917F916F915F914F913F9152
:101E50002F911F910F91FF90EF90DF90CF90BF9047
:101E6000AF909F908F907F906F905F904F903F903A
:101E70002F901F900F900FBE0F90089581E008954E
:101E80000F920FB6F8940F921F9211242F923F9247
:101E90004F925F926F927F928F929F92AF92BF927A
:101EA000CF92DF92EF92FF920F931F932F933F9366
:101EB0004F935F936F937F938F939F93AF93BF9352
:101EC000CF93DF93EF93FF93A091C85EB091C95E6B
:101ED0000DB60D920EB60D9234D7A091C85EB0919A
:101EE000C95E0D900DBE0D900EBEFF91EF91DF917A
:101EF000CF91BF91AF919F918F917F916F915F91A2
:101F00004F913F912F911F910F91FF90EF90DF9094
:101F1000CF90BF90AF909F908F907F906F905F9089
:101F20004F903F902F901F900F900FBE0F900895ED
:101F30000F920FB6F8940F921F9211242F923F9296
:101F40004F925F926F927F928F929F92AF92BF92C9
:101F5000CF92DF92EF92FF920F931F932F933F93B5
:101F60004F935F936F937F938F939F93AF93BF93A1
:101F7000CF93DF93EF93FF93A091C85EB091C95EBA
:101F80000DB60D920EB60D926FD58111DAD6A091D5
:101F9000C85EB091C95E0D900DBE0D900EBEFF9152
:101FA000EF91DF91CF91BF91AF919F918F917F91F1
:101FB0006F915F914F913F912F911F910F91FF90E2
:101FC000EF90DF90CF90BF90AF909F908F907F90D9
:101FD0006F905F904F903F902F901F900F900FBE8B
:101FE0000F901895CF93DF93DC01E4EDF3E201C08D
:101FF000F901208131812A173B07D0F3EF0182815B
:102000009381AF01480F591F4A175B0751F4DA015A
:1020100012964D915C911397840F951F8283938341
:10202000DF0112968D919C911397FD01E80FF91F26
:10203000E217F307D9F42091D2233091D323E2178A
:10204000F30781F022813381820F931F12968D93C3
:102050009C931397E881F981808191818D939C9362
:10206000119707C0ED93FC93119703C02D933C93F8
:102070001197CA17DB0711F0A883B983DF91CF91BD
:102080000895CF92DF92EF92FF920F931F93CF9319
:10209000DF93EC01D9D48091D2239091D323892B63
:1020A00041F5E4EDF3E2A8EDB3E2A083B18312823F
:1020B0001382ECE6FEE5E093D223F093D323128261
:1020C00013821082118284E99AE312968D939C9375
:1020D0001397ED93FC938093CE239093CF2380931B
:1020E000D0239093D12380E090E88093CC239093E9
:1020F000CD23E090CC23F090CD23CE018E219F21E3
:10210000892B09F05EC0209709F45EC0AE014C5FD8
:102110005F4F09F45CC00091D0231091D1230417C4
:10212000150708F457C0C091D423D091D523E4ED0E
:10213000F3E202C0FE01E9012A813B812417350741
:1021400028F42881398121153105A1F78091D22306
:102150009091D323C817D90709F43FC0C080D1801C
:1021600084E0C80ED11C88819981808391832A8163
:102170003B81241B350B2930310548F0CE01840FFB
:10218000951FFC01228333834A835B832BDF8A8183
:102190009B81081B190B0093D0231093D12320910E
:1021A000CE233091CF230217130720F40093CE23C0
:1021B0001093CF23E82AF92AEA82FB821882198237
:1021C0000EC0C12CD12C0BC0C12CD12C08C0C12CED
:1021D000D12C05C0C12CD12C02C0C12CD12C17D5BB
:1021E000C601DF91CF911F910F91FF90EF90DF908B
:1021F000CF900895CF93DF93009741F1FC0134977E
:10220000228133814091CC235091CD23BA016223A6
:102210007323672BD9F060817181672BB9F4EF01CB
:102220004095509524233523228333830DD4209168
:10223000D0233091D1238A819B81820F931F809379
:10224000D0239093D123CE01CDDEE1D4DF91CF9185
:1022500008958091D0239091D12308951F93CF9317
:10226000DF93EC01142F8C8D8823E9F1411117C005
:10227000482F50E08C819D810E942E1E2C8D8C81D8
:102280009D81820F911D8C839D832A813B818217C2
:10229000930748F1888199818C839D8324C0482FBE
:1022A00050E08E819F810E942E1E8C8D90E0919532
:1022B000819591092E813F81280F391F2E833F83FD
:1022C000488159812417350730F42A813B81820FD8
:1022D000931F8E839F83123031F48A8D882319F0E7
:1022E0008A8D81508A8F8A8D8F5F8A8F80E0DF91FF
:1022F000CF911F910895FC01448D4423A9F050E033
:1023000026813781240F351F26833783828193816D
:102310002817390720F08081918186839783CB012C
:10232000668177810C942E1E08950F931F93CF938F
:10233000DF93EC010FB6F8940F928E8D1816ACF463
:102340008989811105C011C09989911104C00DC0FE
:102350008E010F5E1F4FC8019BD581111DD69E8D2A
:1023600091509E8F9E8D19167CF38FEF8E8F0F905C
:102370000FBE0FB6F8940F928D8D1816ACF48885A9
:10238000811105C011C09885911104C00DC08E0146
:10239000085F1F4FC8017CD58111FED59D8D9150DE
:1023A0009D8F9D8D19167CF38FEF8D8F0F900FBE33
:1023B000DF91CF911F910F910895CF93DF93EC019F
:1023C0000FB6F8940F92488159812C8D30E07B8DA7
:1023D000729FC001739F900D1124FA01E80FF91F3D
:1023E000EA83FB831A8E4C835D83821B930B840FDD
:1023F000951F8E839F838FEF8D8F8E8F61110AC003
:102400008885882369F0CE01089642D5813041F451
:1024100037DD06C0CE010896EDDBCE014196EADB42
:102420000F900FBE81E0DF91CF9108950F931F931E
:10243000CF93DF93082F162F6623A9F0869FC00144
:10244000112480961EDEEC01009721F412C0C8838F
:10245000D98303C04F96888399830B8F1C8F61E0CB
:10246000CE01ABDF06C08FE190E00BDEEC01892BE3
:1024700071F7CE01DF91CF911F910F910895AF9227
:10248000BF92CF92DF92EF92FF920F931F93CF9361
:10249000DF93CDB7DEB72597CDBFDEBF8C016B01D3
:1024A0004C835D83A22EB12C7C0188E0E80EF11CE8
:1024B0000FB6F8940F92F801328D938D391718F0FA
:1024C000F2E0AF1215C04A2DB601C801C7DEF8010F
:1024D0009189992339F0C8014196DAD4813021F4E9
:1024E000CFDC02C08111CCDC0F900FBE81E046C072
:1024F000EC81FD81EF2B21F40F900FBE80E03EC0F8
:10250000B11005C0CE0101960BD5BB24B3940F903A
:102510000FBE9AD20FB6F8940F92F801858D8F3FB7
:1025200009F4158EF801868D8F3F09F4168E0F90F1
:102530000FBEBE016C5F7F4FCE010196FCD48111AE
:1025400019C00FB6F8940F92F801928D0F900FBE3C
:10255000838D98130BC06C817D81C7015FD4C80146
:10256000E4DE55D38111A4CF8BDCA2CFC801DDDE20
:102570004ED39ECFC801D9DE4AD380E02596CDBF89
:10258000DEBFDF91CF911F910F91FF90EF90DF9011
:10259000CF90BF90AF9008950F931F93CF93DF9389
:1025A000FA01DC015A965C915A975B963C9153175D
:1025B00010F02230D9F4422F8F01EC014FDE8E8DC6
:1025C0008F3F79F48989882399F0CE01419660D4B0
:1025D000882381F00115110579F081E0F8018083ED
:1025E0000CC08E8D8F5F8E8F81E007C080E005C0AC
:1025F00081E003C081E001C081E0DF91CF911F91B4
:102600000F910895AF92BF92CF92DF92EF92FF9217
:102610000F931F93CF93DF93CDB7DEB72597CDBF31
:10262000DEBF8C016B014C835D83A22EB12C7C013B
:1026300081E1E80EF11C0FB6F8940F92F801928D2B
:10264000992321F1E680F780B601C80154DEA1107C
:102650000EC0F801828D8150828F8085882391F091
:10266000C801089615D4813069F40ADC0BC0F80162
:10267000E682F7828189882329F0C801419608D42F
:102680008111FEDB0F900FBE81E045C04C815D8162
:10269000452B21F40F900FBE80E03DC0B11005C066
:1026A000CE0101963DD4BB24B3940F900FBECCD184
:1026B0000FB6F8940F92F801858D8F3F09F4158EAF
:1026C000F801968D9F3F09F4168E0F900FBEBE0144
:1026D0006C5F7F4FCE0101962ED4811118C00FB6CA
:1026E000F8940F92F801828D0F900FBE81110BC0EC
:1026F0006C817D81C70192D3C80117DE88D2811118
:102700009ACFBEDB98CFC80110DE81D294CFC8012A
:102710000CDE7DD280E02596CDBFDEBFDF91CF916C
:102720001F910F91FF90EF90DF90CF90BF90AF90EF
:102730000895CF93DF93EC010FB6F8940F928D8D2F
:102740008F3F09F41D8E8E8D8F3F09F41E8E0F90E2
:102750000FBE8A8D811103C0CE0141967CD3CE017C
:10276000E4DDDF91CF910895CBE9DEE58881823009
:10277000F0F386DBFBCFCF93DF93EC01E091C85EF3
:10278000F091C95E828393838091795E90917A5EA5
:10279000C817D90760F46091C85E7091C95E8091D6
:1027A000855E9091865E6E5F7F4F57DA16C06091AE
:1027B000C85E7091C95E8091875E9091885E6E5F01
:1027C0007F4F4BDA8091715E9091725EC817D90786
:1027D00020F4C093715ED093725EDF91CF91089523
:1027E0004F925F926F927F928F929F92AF92BF9221
:1027F000CF92DF92EF92FF920F931F93CF93DF93CD
:102800004C01EB015A012901C114D10431F4CA0170
:1028100038DC6C01892B09F4D2C086E290E031DC0F
:102820003C01009779F0FC01C78AD08EF1E0AF1A25
:10283000B108CA0CDB1C8881F301818F888181116A
:1028400004C013C0C601D6DCBAC0D3015A96FE013B
:1028500031969E01285F3F4FEF0181918D938881D2
:10286000882319F0E217F307B9F7F30110A2102F2C
:10287000053008F014E0F301168BE3012296CE0137
:10288000C7D9C3010C96C4D9F3016086718685E06F
:1028900090E0811B910984879587628A738A11A2CF
:1028A00012A213A214A215A2A201B401C6012CDA2D
:1028B000F30180839183E114F10419F0F701608240
:1028C00071820FB6F8940F9280917B5E8F5F809338
:1028D0007B5E8091C85E9091C95E892B91F5609274
:1028E000C85E7092C95E80917B5E8130C9F50F2E03
:1028F000FBE9EF2EFEE5FF2EF02D0F2EF8ECCF2E8C
:10290000FEE5DF2EF02DC70175D9F9E0EF0EF11CC1
:10291000EC14FD04C1F782E99EE56CD989E89EE5D7
:1029200069D98CE79EE566D982E99EE58093875E4A
:102930009093885E89E89EE58093855E9093865E9D
:102940000FC08091775E81110BC0E091C85EF0915D
:10295000C95E8689081720F06092C85E7092C95ED1
:102960008091735E8F5F8093735EF301868990918F
:10297000785E981710F48093785E90E09C01220FA7
:10298000331F220F331F220F331F820F931FBE01ED
:102990008556914A41D90F900FBE8091775E88236A
:1029A00051F0E091C85EF091C95E8689801728F4E5
:1029B00067DA81E005C081E003C081E001C08FEFEC
:1029C000DF91CF911F910F91FF90EF90DF90CF900B
:1029D000BF90AF909F908F907F906F905F904F903F
:1029E0000895AF92BF92CF92DF92EF92FF920F9332
:1029F000A12CB12CC12CD12CE12CF12C00E020E039
:102A000030E045E550E06EE070E284EB93E1E8DE13
:102A1000813091F42AD3813079F4F8948FEF9FEFCD
:102A20008093715E9093725E81E08093775E1092E6
:102A3000795E10927A5EDFD90F91FF90EF90DF9070
:102A4000CF90BF90AF9008958091705E8F5F80931C
:102A5000705E08950FB6F8940F928091795E909110
:102A60007A5E0F900FBE0895DF92EF92FF920F9360
:102A70001F93CF93DF938091705E8111B3C08091DB
:102A8000795E90917A5E01968093795E90937A5EFA
:102A9000E090795EF0907A5EE114F10499F580910E
:102AA000875E9091885E2091855E3091865E20934E
:102AB000875E3093885E8093855E9093865E80917A
:102AC000745E8F5F8093745EE091875EF091885EA4
:102AD0008081811107C08FEF9FEF8093715E90938B
:102AE000725E10C0E091875EF091885E0580F6818D
:102AF000E02D0680F781E02D828193818093715EC5
:102B00009093725E8091715E9091725EE816F90604
:102B100010F4D12C4FC0D12CE091875EF091885EEB
:102B20009081911107C08FEF9FEF8093715E90931A
:102B3000725E40C0E091875EF091885E0580F6810C
:102B4000E02DC681D7812A813B81E216F30628F465
:102B50002093715E3093725E2DC08E010E5F1F4F09
:102B6000C801ACD88C899D89892B19F0CE010C96AF
:102B7000A5D82E898091785E821710F42093785E14
:102B800030E0C901880F991F880F991F880F991F7E
:102B9000820F931FB8018556914A3ED8E091C85ED6
:102BA000F091C95E9E898689981708F4B5CFDD2417
:102BB000D394B2CFE091C85EF091C95E868990E06F
:102BC000FC01EE0FFF1FEE0FFF1FEE0FFF1F8E0F1A
:102BD0009F1FFC01E556F14A8081823048F0DD24D8
:102BE000D39406C08091765E8F5F8093765ED12C01
:102BF0008091755E882311F0DD24D3948D2DDF91B3
:102C0000CF911F910F91FF90EF90DF900895DF9289
:102C1000EF92FF920F931F93CF93DF930FB6F89429
:102C20000F928091705E81508093705E8091705E93
:102C300081115EC080917B5E811131C05CC0D70183
:102C40001596ED91FC911697C681D781CE010C9611
:102C500035D88E010E5F1F4FC80130D82E89809164
:102C6000785E821710F42093785E30E0C901880FF7
:102C7000991F880F991F880F991F820F931FB80102
:102C80008556914A0E940C0EE091C85EF091C95E93
:102C90009E898689981758F0D092755E08C00F2ECD
:102CA000FCE7EF2EFEE5FF2EF02DDD24D394F70197
:102CB00080818111C4CF8091765E882391F08091CC
:102CC000765E882371F0C1E0CFDE8111C093755E1E
:102CD0008091765E81508093765E8091765E8111E0
:102CE000F3CF8091755E813029F4CAD881E003C0AA
:102CF00080E001C080E00F900FBEDF91CF911F9167
:102D00000F91FF90EF90DF900895CF93DF93EC0148
:102D1000892B99F099DE8091795E90917A5EC80F47
:102D2000D91F8091C85E9091C95E02960E945E0E86
:102D3000CE0121DD6CDF811101C0A2D8DF91CF91DE
:102D400008958091705E882321F081E08093755E04
:102D500008951092755E8091785E90E0FC01EE0F10
:102D6000FF1FEE0FFF1FEE0FFF1F8E0F9F1FFC01B7
:102D7000E556F14A8081811117C08091785E8150BB
:102D80008093785E8091785E90E0FC01EE0FFF1FEB
:102D9000EE0FFF1FEE0FFF1F8E0F9F1FFC01E5566A
:102DA000F14A8081882349F38091785E90E09C010C
:102DB000220F331F220F331F220F331F280F391FFB
:102DC000D901A556B14A1196ED91FC911297028056
:102DD000F381E02D1196ED93FC9312972256314A20
:102DE000E217F30729F422813381FD012183328325
:102DF000FC01EE0FFF1FEE0FFF1FEE0FFF1F8E0FE8
:102E00009F1FFC01E556F14A0180F281E02D868189
:102E100097818093C85E9093C95E0895CF93DF93A6
:102E2000EB012091C85E3091C95EB901645F7F4FAC
:102E30000E942D0E8091C85E9091C95E02960E94FC
:102E40005E0E8091795E90917A5E8C0F9D1F93DC6F
:102E5000DF91CF910895CF93DF93EB012091C85E6E
:102E60003091C95EB901645F7F4F0E940C0E809162
:102E7000C85E9091C95E02960E945E0E8091795E56
:102E800090917A5E8C0F9D1F76DCDF91CF91089533
:102E90000F931F93CF93DF93DC011596ED91FC9177
:102EA0001697C681D7818E01045F1F4FC8010E940B
:102EB0005E0E8091705E81111CC00A501109C8011C
:102EC0000E945E0E2E898091785E821710F4209306
:102ED000785E30E0C901880F991F880F991F880F0D
:102EE000991F820F931FB8018556914A0E940C0EBC
:102EF00005C0B8018CE79EE50E940C0EE091C85E0B
:102F0000F091C95E9E898689891720F481E08093BB
:102F1000755E01C080E0DF91CF911F910F91089500
:102F20002091745EFC0120832091795E30917A5E5D
:102F3000218332830895CF93DF93FC010FB6F89479
:102F40000F922091795E30917A5E8091745E9081CB
:102F5000981729F08181928128173907A8F4A18157
:102F6000B281EB0148815981C9018A1B9B0B8417EF
:102F7000950760F4CF01A21BB30B4A0F5B1F488378
:102F80005983CEDF80E003C081E001C081E00F9073
:102F90000FBEDF91CF91089581E08093755E089513
:102FA0008091775E882331F08091705E882321F0D4
:102FB00080E0089581E0089582E00895FC01628335
:102FC0007383808791874617570790F0421B530BF6
:102FD0008485958548175907E0F4BF016E5F7F4FE0
:102FE0008091CE5E9091CF5E0E942D0E80E008957C
:102FF0004217530718F46217730768F4BF016E5F36
:103000007F4F8091D05E9091D15E0E942D0E80E026
:10301000089581E0089581E008950FB6F8940F9225
:103020008091CC5E9091CD5E892BE1F48BED9EE595
:103030000E94FA0D82ED9EE50E94FA0D8BED9EE551
:103040008093D05E9093D15E82ED9EE58093CE5EBC
:103050009093CF5E40E065E08AE0E8D98093CC5E53
:103060009093CD5E0F900FBE0895AF92BF92CF9216
:10307000DF92EF92FF920F93D0DF8091CC5E909120
:10308000CD5E892B89F0A12CB12CC12CD12CE12C47
:10309000F12C03E020E030E045E550E063E170E230
:1030A00084E499E19DDB01C080E00F91FF90EF90F7
:1030B000DF90CF90BF90AF9008958F929F92BF9274
:1030C000CF92DF92EF92FF920F931F93CF93DF93F4
:1030D00061157105D1F06901B42E7B014C0183E1CA
:1030E00090E00E944110EC01892B89F096DF8882E4
:1030F0009982EC86FD86BE86CF86D88A098B1A8B8C
:10310000CE0102960E94080E02C0C0E0D0E0CE01BF
:10311000DF91CF911F910F91FF90EF90DF90CF90B3
:10312000BF909F908F9008950F931F93CF93DF933D
:10313000CDB7DEB72597CDBFDEBFE091CC5EF09175
:10314000CD5E309751F1D90169834A835B838C83CB
:103150009D836630D4F424DF823059F420E0A80146
:10316000BE016F5F7F4F8091CC5E9091CD5E87D91D
:1031700015C020E040E050E0BE016F5F7F4F8091BE
:10318000CC5E9091CD5E7BD909C020E0AD01BE013F
:103190006F5F7F4FCF0100DA01C080E02596CDBF81
:1031A000DEBFDF91CF911F910F910895AF92BF9233
:1031B000CF92DF92EF92FF920F931F93CF93DF9303
:1031C0006C0148DC7C018091CA5E9091CB5EE81670
:1031D000F90608F047C02FC00580F681E02DA080D9
:1031E000B180C681D7818E010E5F1F4FC8010E943A
:1031F0005E0EE989FA89CE0119958E858130D9F460
:103200008C859D858A0D9B1DA816B90660F48A835E
:103210009B83C887D987B8018091D05E9091D15E99
:103220000E942D0E08C000E010E020E030E0A50173
:1032300060E0CE0179DFE091D05EF091D15E9081C7
:103240009111CACF8091CE5E9091CF5E8093D05E77
:103250009093D15EE093CE5EF093CF5E81E0F60175
:10326000808302C0F6011082E092CA5EF092CB5ECB
:10327000C701DF91CF911F910F91FF90EF90DF90E9
:10328000CF90BF90AF900895CF93DF9300D000D040
:10329000CDB7DEB7CE0101965C01E82EFB2CE091A4
:1032A000D05EF091D15E8081882369F00580F6813F
:1032B000E02DC080D180C8DBC50178DF8C01898119
:1032C000882349F056C0C0DBC50170DF8C018981BD
:1032D0008823A9F14EC00C151D0508F43BC097DCEE
:1032E000E091D05EF091D15E0580F681E02D868080
:1032F0009780C40102960E945E0ED4011E968C91A6
:103300001E978130A1F41C966D917C911D976C0DD8
:103310007D1D9601A801C40151DE813041F400E019
:1033200010E020E030E0A60160E0C401FDDED40141
:103330005196ED91FC915297C401199575C0E09199
:10334000CE5EF091CF5E41E08081811140E0C12CE2
:10335000D12C01C040E0B601601B710B8091CC5EA6
:103360009091CD5EE6D953DC81115EC00E94400F82
:103370005BC04DDC59C0998199230CF455C0CC80B9
:10338000DD80F60182859385892B21F0C6010296A6
:103390000E945E0ECE01069609DFAC010981002E67
:1033A000000C110B220B330B0A30110508F03CC046
:1033B000F8018827E250FF4F8F4F48C42A813B8194
:1033C000D6011C966D917C911D97620F731FC601EB
:1033D000F5DD813049F5D6015196ED91FC9152977A
:1033E000C6011995F60186858130F1F4448555852D
:1033F0008A819B81480F591F00E010E020E030E0F7
:1034000060E0C60191DE10C06A817B81D6011C9606
:103410006D937C931D97640F751F9A01C601CEDDD5
:1034200003C0C6010E94FA1020E040E050E06E2D7B
:103430007F2D8091CC5E9091CD5EE4D881119BCFA1
:103440002ECFCF93DF93FC01709620E030E0C62FA3
:10345000D0E0DE01022E02C0B595A7950A94E2F7EE
:10346000A0FD50832F5F3F4F31962830310589F7FB
:1034700040FF0AC041FF03C0FC01658302C0FC019C
:103480006683FC01618302C0FC016283DF91CF91FE
:10349000089543E050E061E080EE97E0D2DF43E042
:1034A00050E062E080EE97E0CCDF43E050E060E186
:1034B00080E696E0C6DF41E050E460E280E696E018
:1034C000C0DF40E05BE160E280E896E0BADF40E028
:1034D0005BE162E080EA96E0B4DF40E05BE164E05B
:1034E00080EA96E0AEDF43E050E062E080E696E0FE
:1034F000A8DF43E050E068E080E696E0A2DF43E02A
:1035000050E068E080EA96E09CDF43E050E061E054
:1035100080E696E096DF43E050E068E080E096E0E9
:1035200090DF41E050E060E180E896E08ADF43E030
:1035300050E062E080E696E084DF43E050E068E03F
:1035400080E696E07EDF40E050E064E080E696E0D2
:1035500078DF43E050E060E180EA96E072DF40E02F
:1035600050E061E080E096E06CDF40E050E064E035
:1035700080E096E066DF40E050E062E080E296E0C6
:1035800060DF43E050E068E080E496E05ADF40E02E
:1035900050E064E080E496E054DF43E050E068E00F
:1035A00080E696E04EDF40E050E064E080E696E0A2
:1035B00048DF43E050E068E080E896E042DF40E02A
:1035C00050E064E080E896E03CCF08958091E45EAE
:1035D0009091E55EA091E65EB091E75E0196A11D37
:1035E000B11D8093E45E9093E55EA093E65EB09398
:1035F000E75E08950F2EF0EAEF2EF6E0FF2EF02D95
:1036000000EE17E0C2E0CC24C394D12CF7018085F2
:1036100088233CF4F801C683C092EA5ED092EB5E48
:1036200006C0F801C5831092EA5E1092EB5E82E359
:1036300090E06BDBEBCF0E9429118093E85E9093C2
:10364000E95E85E090E061DBF6CFC0E0D2E068940F
:10365000FF24F1F808E212E0CE010E9446079FB76E
:10366000F8948881886088839FBF9E8191FFFDCFF9
:10367000FE82F801848195818093F25E9093F35EDF
:1036800085E090E042DBE8CFC0E0D2E0CC24C394F8
:1036900000E616E06894DD24D4F8EE24E394F12CDF
:1036A000CE010E9446079FB7F89488818460888382
:1036B0009FBF9E8190FFFDCFCE828CA19DA1809364
:1036C000F45E9093F55E813D974038F4F801D68220
:1036D000E092EE5EF092EF5E06C0F801D5821092A5
:1036E000EE5E1092EF5E85E090E00FDBD9CFE0E474
:1036F000F6E0808181608083E0E0F8E085E080830F
:1037000086E1818388EE93E086A397A387E791E023
:1037100080A791A70895EBDFC0EAD6E000E018E0AB
:103720000F2EF7E78F2E99249394F02DCC24C39479
:10373000D12C0F2EF0EEEF2EF7E0FF2EF02D772498
:1037400073940F2EF6E9AF2EB12CF02D888581FDF4
:103750000AC0F801A0A6B1A6F7017682C092EC5E7D
:10376000D092ED5E10C0888582FD0AC0F801C0A627
:10377000D1A6F70175821092EC5E1092ED5E03C047
:10378000F80180A691A685E090E0BFDADFCF109225
:10379000A70A8CE08093A60A1092A30A83E0809384
:1037A000A50A88E18093A40A0895CF93DF93FC01D2
:1037B0006081662349F0EC01219680EA9AE00E943C
:1037C000DC0969916111F9CFDF91CF91089580E112
:1037D000809385060F2EFBE1EF2EF0E2FF2EF02DF9
:1037E0000F2EF9EC3F2EF02DCFEBDFE50F2EF7E19A
:1037F0006F2EF1E27F2EF02D06EF1EE50F2EFBED72
:103800004F2EF0E25F2EF02D0F2EF1EB8F2EF0E217
:103810009F2EF02D0F2EF7E8AF2EF0E2BF2EF02DE9
:103820000F2EF1E3CF2EF0E2DF2EF02D8091F15E2E
:103830008F938091F05E8F93FF92EF921F923F9251
:10384000DF93CF9314D220E030E240E060E0CE017D
:103850000E946C068091F05E9091F15E2DB73EB7AC
:10386000285F3F4F2DBF3EBF81309105A9F4809165
:10387000E95E8F938091E85E8F93DF92CF921F92E3
:103880003F921F930F93F3D1C8018FDF8DB79EB77F
:1038900008968DBF9EBFA5C08230910579F48091B6
:1038A000EA5E9091EB5E1816190624F483E490E228
:1038B0007CDF97C082E690E278DF93C08330910589
:1038C00059F58091F25E9091F35E813D27E0920779
:1038D00088F49F938F93BF92AF921F923F921F9352
:1038E0000F93C5D1C80161DF8DB79EB708968DBF14
:1038F0009EBF77C09F938F939F928F921F923F920C
:103900001F930F93B4D1C80150DF2DB73EB7285F86
:103910003F4F2DBF3EBF65C08430910559F5809162
:10392000F45E9091F55E813D37E0930788F49F93B4
:103930008F935F924F921F923F921F930F9397D155
:10394000C80133DF8DB79EB708968DBF9EBF49C0B3
:103950009F938F937F926F921F923F921F930F932B
:1039600086D1C80122DF2DB73EB7285F3F4F2DBF5C
:103970003EBF37C08530910579F48091EC5E90911F
:10398000ED5E1816190624F484E591E20EDF29C0D5
:103990008EE691E20ADF25C0069719F58091EA5E6E
:1039A0009091EB5E18161906CCF48091F25E90911E
:1039B000F35E813D974090F48091F45E9091F55EC6
:1039C000813D974058F48091EC5E9091ED5E181621
:1039D000190624F487E891E2E8DE03C08CE991E25D
:1039E000E4DEC801E2DE85E090E08FD91FCFE1EA96
:1039F000FAE080818823ECF78091A00A0895F7DF30
:103A0000082E000C990BC0978093F05E9093F15EA6
:103A100085E090E07AD9F3CF8F929F92AF92BF92D8
:103A2000CF92DF92EF92FF920F931F93CF93DF938A
:103A3000CDB7DEB72B97CDBFDEBF2BDD87E0809300
:103A4000A200BE016F5F7F4F80E092E00E943D09BF
:103A5000AE01485F5F4F61E080E092E00E9499090B
:103A60009A818B818F7880618B83892F817E8A8375
:103A70001C8202E00D8311E0188780E48987BE0173
:103A80006F5F7F4F80E092E00E94ED08AE01485FDB
:103A90005F4F61E080E092E00E946009BE016F5FCD
:103AA0007F4F80E092E00E943D09AE01485F5F4F8A
:103AB00062E080E092E00E9499099A818B818F7880
:103AC00080618B83892F817E8A831C820D83188776
:103AD0001986BE016F5F7F4F80E092E00E94ED0883
:103AE000AE01485F5F4F62E080E092E00E946009B3
:103AF0000E94E70480E18093850688E08093850634
:103B00008093810684E080938606809382063FDE60
:103B100067E070E280EA9AE00E94FD0A06EE1AE190
:103B200020E030E041E061E070E081EC91E2C5DA54
:103B30004C01A12CB12CC12CD12CE12CF12C01E099
:103B400020E030E044EF51E066E171E284E49BE183
:103B50000E94F01320E030E044EF51E066E171E2B2
:103B60008BE89BE10E94F01320E030E044EF51E04D
:103B700066E171E28AEF9AE10E94F01320E030E002
:103B800044EF51E066E171E285E29BE10E94F013AF
:103B900020E030E044EF51E066E171E28FEF9CE11C
:103BA0000E94F01320E030E044EF51E066E171E262
:103BB0008BE19BE10E94F01320E030E044EF51E004
:103BC00066E171E287EE9BE10E94F0130E942A15E4
:103BD00000E010E020E030E0AC0161E0C401A4DAD4
:103BE0000E94F11480E090E02B96CDBFDEBFDF9104
:103BF000CF911F910F91FF90EF90DF90CF90BF90EA
:103C0000AF909F908F900895A1E21A2EAA1BBB1B24
:103C1000FD010DC0AA1FBB1FEE1FFF1FA217B30798
:103C2000E407F50720F0A21BB30BE40BF50B661FAE
:103C3000771F881F991F1A9469F760957095809572
:103C400090959B01AC01BD01CF010895EE0FFF1FC0
:103C5000881F8BBF0790F691E02D1994FB01DC01C2
:103C600002C001900D9241505040D8F708950F9333
:103C70001F93CF93DF93CDB7DEB72E97CDBFDEBFB7
:103C80000E891F89888D998D26E02C8309831A83DC
:103C900097FF02C080E090E801978D839E83AE017C
:103CA000445E5F4F6A8D7B8DCE01019616D04D81AB
:103CB0005E8157FD0AC02F813885421753070CF4E7
:103CC0009A01F801E20FF31F10822E96CDBFDEBFDE
:103CD000DF91CF911F910F9108952F923F924F92B4
:103CE0005F926F927F928F929F92AF92BF92CF928C
:103CF000DF92EF92FF920F931F93CF93DF93CDB795
:103D0000DEB72C97CDBFDEBF7C016B018A01FC01C1
:103D100016821782838181FFB0C1CE0101964C01CA
:103D2000F7019381F60193FD859193FF81916F01D6
:103D3000882309F49EC1853239F493FD859193FF60
:103D400081916F01853221F4B70190E0C4D1E8CFB1
:103D5000512C312C20E02032A0F48B3269F030F469
:103D6000803259F0833269F420612CC08D3239F0F1
:103D7000803339F4216026C02260246023C028608B
:103D800021C027FD27C030ED380F3A3078F426FFE8
:103D900006C0FAE05F9E300D1124532E13C08AE056
:103DA000389E300D1124332E20620CC08E3221F447
:103DB00026FD5FC1206406C08C3611F4206802C065
:103DC000883641F4F60193FD859193FF81916F014F
:103DD0008111C1CF982F9F7D9554933028F40C5FAB
:103DE0001F4FFFE3F9830DC0833631F0833771F045
:103DF000833509F057C021C0F801808189830E5FA7
:103E00001F4F44244394512C540114C03801F2E054
:103E10006F0E711CF801A080B18026FF03C0652DD4
:103E200070E002C06FEF7FEFC5012C8749D12C01F4
:103E300083012C852F77222E16C03801F2E06F0EF9
:103E4000711CF801A080B18026FF03C0652D70E0D1
:103E500002C06FEF7FEFC5012C8727D12C012C8585
:103E60002068222E830123FC19C0832D90E0481680
:103E70005906A0F4B70180E290E02DD13A94F5CF35
:103E8000F50127FC859127FE81915F01B70190E044
:103E900022D131103A94F1E04F1A510841145104E3
:103EA00079F7DEC0843611F0893631F5F80127FF45
:103EB00007C060817181828193810C5F1F4F08C0B0
:103EC00060817181072E000C880B990B0E5F1F4FCC
:103ED0002F76722E97FF09C0909580957095619509
:103EE0007F4F8F4F9F4F2068722E2AE030E0A40151
:103EF0002AD1A82EA81843C0853729F42F7EB22EC8
:103F00002AE030E025C0F22FF97FBF2E8F36C1F0B6
:103F100018F4883579F0ADC0803719F0883721F072
:103F2000A8C02F2F2061B22EB4FE0DC08B2D84604F
:103F3000B82E09C024FF0AC09F2F9660B92E06C074
:103F400028E030E005C020E130E002C020E132E0AE
:103F5000F801B7FE07C060817181828193810C5F97
:103F60001F4F06C06081718180E090E00E5F1F4F9F
:103F7000A401E9D0A82EA818FB2DFF777F2E76FE8E
:103F80000BC0372D3E7FA51450F474FE0AC072FC9E
:103F900008C0372D3E7E05C0BA2C372D03C0BA2C81
:103FA00001C0B52C34FF0DC0FE01EA0DF11D80816A
:103FB000803311F4397E09C032FF06C0B394B39444
:103FC00004C0832F867809F0B39433FD12C030FF0C
:103FD00006C05A2CB31418F4530C5B18B32CB3144A
:103FE00060F4B70180E290E03C8775D0B3943C85E3
:103FF000F6CFB31410F43B1801C0312C34FF11C0BC
:10400000B70180E390E03C8766D03C8532FF16C064
:1040100031FD03C088E790E002C088E590E0B70179
:104020000CC0832F867851F031FF02C08BE201C0B3
:1040300080E237FD8DE2B70190E04DD0A51430F459
:10404000B70180E390E047D05A94F8CFAA94F401E6
:10405000EA0DF11D8081B70190E03DD0A110F6CFAF
:10406000332009F45DCEB70180E290E034D03A9479
:10407000F7CFF7018681978102C08FEF9FEF2C96D3
:10408000CDBFDEBFDF91CF911F910F91FF90EF90D9
:10409000DF90CF90BF90AF909F908F907F906F9068
:1040A0005F904F903F902F900895FC0105906150D4
:1040B00070400110D8F7809590958E0F9F1F08953E
:1040C000FC016150704001900110D8F780959095E7
:1040D0008E0F9F1F08950F931F93CF93DF93FB01C4
:1040E000238121FD03C08FEF9FEF28C022FF16C060
:1040F00046815781248135814217530744F4A081BA
:10410000B1819D012F5F3F4F208331838C932681A6
:1041100037812F5F3F4F2683378310C0EB01092F74
:10412000182F0084F185E02D1995892BE1F68E81F9
:104130009F8101968E839F83812F902FDF91CF9156
:104140001F910F910895FA01AA27283051F12031CB
:1041500081F1E8946F936E7F6E5F7F4F8F4F9F4F1B
:10416000AF4FB1E03ED0B4E03CD0670F781F891F5D
:104170009A1FA11D680F791F8A1F911DA11D6A0F2B
:10418000711D811D911DA11D20D009F468943F91DE
:104190002AE0269F11243019305D3193DEF6CF01DD
:1041A0000895462F4770405D4193B3E00FD0C9F7A3
:1041B000F6CF462F4F70405D4A3318F0495D31FD10
:1041C0004052419302D0A9F7EACFB4E0A695979563
:1041D000879577956795BA95C9F700976105710539
:1041E00008959B01AC010A2E069457954795379583
:1041F0002795BA95C9F7620F731F841F951FA01DDD
:064200000895F894FFCFC1
:104206000010020607207D802500000300004944B7
:104216004C4500546D722053766300436F6D6D619B
:104226006E646E7961206164616C61682025336417
:1042360000467265652048656170203D202533641F
:10424600200A00536964696B206A6172692074658B
:1042560072646574656B73692871746F7563682918
:104266000A00536964696B206A6172692074696423
:10427600616B20746572646574656B73692871740B
:104286006F756368290A0048656C6D2073756461F3
:10429600682064696B656E616B616E20286C696766
:1042A600687473656E736F72295B2533645D200ACB
:1042B6000048656C6D2062656C756D2064696B6580
:1042C6006E616B616E20286C6967687473656E73C6
:1042D6006F72295B2533645D200A004B616E64753D
:1042E6006E67616E20616C6B6F686F6C206D6173B9
:1042F60069682064616C616D206261746173206E0F
:104306006F726D616C28706F74656E74696F295B6E
:104316002533645D200A004B616E64756E67616EBD
:1043260020616C6B6F686F6C206D617369682064C7
:104336006961746173206261746173206E6F726D5E
:10434600616C28706F74656E74696F295B253364C0
:104356005D200A0054616C692068656C6D20737578
:104366006461682064696B756E6369200A00546134
:104376006C692068656C6D2062656C756D2064697A
:104386006B756E63690A00537461747573204F4BC5
:104396002C2068656C6D20616D616E0053746174CC
:1043A60075732070656D616B6169616E2068656CFF
:1043B6006D203A2062656C756D20616D616E200A14
:0843C600007450696E670000ED
:00000001FF
